{"abi":[{"inputs":[{"internalType":"uint256","name":"_feePercent","type":"uint256"},{"internalType":"address","name":"_weth","type":"address"}],"stateMutability":"nonpayable","type":"constructor","name":"constructor"},{"anonymous":false,"inputs":[{"indexed":true,"internalType":"uint256","name":"listingId","type":"uint256"},{"indexed":false,"internalType":"uint256","name":"bidPrice","type":"uint256"},{"indexed":true,"internalType":"address","name":"seller","type":"address"},{"indexed":true,"internalType":"address","name":"bidder","type":"address"}],"name":"Bid","type":"event"},{"anonymous":false,"inputs":[{"indexed":true,"internalType":"uint256","name":"listingId","type":"uint256"},{"indexed":false,"internalType":"uint256","name":"salePrice","type":"uint256"},{"indexed":true,"internalType":"address","name":"seller","type":"address"},{"indexed":true,"internalType":"address","name":"buyer","type":"address"}],"name":"Bought","type":"event"},{"anonymous":false,"inputs":[{"indexed":true,"internalType":"uint256","name":"listingId","type":"uint256"},{"indexed":false,"internalType":"address","name":"seller","type":"address"},{"indexed":false,"internalType":"address","name":"buyer","type":"address"}],"name":"Closed","type":"event"},{"anonymous":false,"inputs":[{"indexed":true,"internalType":"uint256","name":"listingId","type":"uint256"},{"indexed":true,"internalType":"address","name":"seller","type":"address"}],"name":"Listed","type":"event"},{"anonymous":false,"inputs":[{"indexed":false,"internalType":"uint256","name":"listingId","type":"uint256"},{"indexed":true,"internalType":"address","name":"seller","type":"address"},{"indexed":true,"internalType":"address","name":"buyer","type":"address"}],"name":"Reverted","type":"event"},{"inputs":[{"internalType":"uint256","name":"_listingId","type":"uint256"},{"internalType":"uint256","name":"_bidPrice","type":"uint256"}],"name":"bid","outputs":[],"stateMutability":"nonpayable","type":"function"},{"inputs":[{"internalType":"uint256","name":"_listingId","type":"uint256"}],"name":"cancelListing","outputs":[],"stateMutability":"nonpayable","type":"function"},{"inputs":[{"internalType":"uint256","name":"_reservePrice","type":"uint256"},{"internalType":"uint256","name":"_startPrice","type":"uint256"},{"internalType":"uint256","name":"_closingTime","type":"uint256"},{"internalType":"uint256","name":"_tokenId","type":"uint256"},{"internalType":"contract IERC721","name":"_nft","type":"address"}],"name":"createListing","outputs":[],"stateMutability":"nonpayable","type":"function"},{"inputs":[{"internalType":"uint256","name":"_listingId","type":"uint256"}],"name":"endAuction","outputs":[],"stateMutability":"nonpayable","type":"function"},{"inputs":[],"name":"feeAccount","outputs":[{"internalType":"address payable","name":"","type":"address"}],"stateMutability":"view","type":"function"},{"inputs":[],"name":"feePercent","outputs":[{"internalType":"uint256","name":"","type":"uint256"}],"stateMutability":"view","type":"function"},{"inputs":[],"name":"listingCount","outputs":[{"internalType":"uint256","name":"","type":"uint256"}],"stateMutability":"view","type":"function"},{"inputs":[{"internalType":"uint256","name":"","type":"uint256"}],"name":"listingNFT","outputs":[{"internalType":"contract IERC721","name":"","type":"address"}],"stateMutability":"view","type":"function"},{"inputs":[{"internalType":"uint256","name":"","type":"uint256"}],"name":"listingTokenId","outputs":[{"internalType":"uint256","name":"","type":"uint256"}],"stateMutability":"view","type":"function"},{"inputs":[{"internalType":"uint256","name":"","type":"uint256"}],"name":"listings","outputs":[{"internalType":"uint256","name":"listingId","type":"uint256"},{"internalType":"uint256","name":"tokenId","type":"uint256"},{"internalType":"uint256","name":"reservePrice","type":"uint256"},{"internalType":"uint256","name":"currentPrice","type":"uint256"},{"internalType":"address payable","name":"seller","type":"address"},{"internalType":"contract IERC721","name":"nft","type":"address"},{"internalType":"uint256","name":"auctionState","type":"uint256"},{"internalType":"uint256","name":"closingTime","type":"uint256"},{"internalType":"address payable","name":"buyer","type":"address"},{"internalType":"uint256","name":"bidCounter","type":"uint256"}],"stateMutability":"view","type":"function"},{"inputs":[],"name":"weth","outputs":[{"internalType":"contract IERC20","name":"","type":"address"}],"stateMutability":"view","type":"function"}],"bytecode":"60c060405234801561001057600080fd5b5060405161127938038061127983398101604081905261002f91610060565b6001600081905580546001600160a01b0319166001600160a01b03929092169190911790553360805260a05261009d565b6000806040838503121561007357600080fd5b825160208401519092506001600160a01b038116811461009257600080fd5b809150509250929050565b60805160a0516111946100e56000396000818161016e0152818161037701528181610d4d0152610e30015260008181610147015281816104530152610e0a01526111946000f3fe608060405234801561001057600080fd5b50600436106100a95760003560e01c806365e17c9d1161007157806365e17c9d146101425780637fd6f15c14610169578063a9b07c261461019e578063b9a2de3a146101a7578063d370ddc2146101ba578063de74e57b146101da57600080fd5b80631c513227146100ae578063305a67a8146100f45780633fc8cef31461010957806352b68b511461011c578063598647f81461012f575b600080fd5b6100d76100bc366004610f8c565b6004602052600090815260409020546001600160a01b031681565b6040516001600160a01b0390911681526020015b60405180910390f35b610107610102366004610f8c565b6102a2565b005b6001546100d7906001600160a01b031681565b61010761012a366004610fa5565b610598565b61010761013d366004610ffe565b61085b565b6100d77f000000000000000000000000000000000000000000000000000000000000000081565b6101907f000000000000000000000000000000000000000000000000000000000000000081565b6040519081526020016100eb565b61019060025481565b6101076101b5366004610f8c565b610b47565b6101906101c8366004610f8c565b60056020526000908152604090205481565b6102496101e8366004610f8c565b6003602081905260009182526040909120805460018201546002830154938301546004840154600585015460068601546007870154600888015460099098015496989597959694956001600160a01b0394851695938516949293919216908a565b604080519a8b5260208b01999099529789019690965260608801949094526001600160a01b03928316608088015290821660a087015260c086015260e085019190915216610100830152610120820152610140016100eb565b600260005414156102ce5760405162461bcd60e51b81526004016102c590611020565b60405180910390fd5b60026000908155818152600360205260409020600581015460068201546001600160a01b039091169060011480610309575081600601546003145b6103555760405162461bcd60e51b815260206004820152601860248201527f416374696f6e206973206e6f7420617574686f72697a6564000000000000000060448201526064016102c5565b60048201546001600160a01b0316331461036e57600080fd5b600061039b60647f000000000000000000000000000000000000000000000000000000000000000061106d565b83600301546103aa919061108f565b60015460405163095ea7b360e01b8152306004820152602481018390529192506001600160a01b03169063095ea7b3906044016020604051808303816000875af11580156103fc573d6000803e3d6000fd5b505050506040513d601f19601f8201168201806040525081019061042091906110ae565b506001546004808501546040516323b872dd60e01b81526001600160a01b03938416936323b872dd9361047b93909116917f0000000000000000000000000000000000000000000000000000000000000000918791016110d7565b6020604051808303816000875af115801561049a573d6000803e3d6000fd5b505050506040513d601f19601f820116820180604052508101906104be91906110ae565b6105155760405162461bcd60e51b815260206004820152602260248201527f4e6f7420656e6f7567682066756e647320746f2063616e63656c206c697374696044820152616e6760f01b60648201526084016102c5565b6004808401546001850154604051632142170760e11b81526001600160a01b03808716946342842e0e94610551943094919093169291016110d7565b600060405180830381600087803b15801561056b57600080fd5b505af115801561057f573d6000803e3d6000fd5b5050600260069095019490945550506001600055505050565b600260005414156105bb5760405162461bcd60e51b81526004016102c590611020565b6002600055838510156106225760405162461bcd60e51b815260206004820152602960248201527f53746172742070726963652063616e6e6f7420626520686967686572207468616044820152686e207265736572766560b81b60648201526084016102c5565b60018310156106815760405162461bcd60e51b815260206004820152602560248201527f41756374696f6e206c656e677468206d757374206265206174206c6561737420604482015264312064617960d81b60648201526084016102c5565b60028054906000610691836110fb565b9091555050604051632142170760e11b81526001600160a01b038216906342842e0e906106c6903390309087906004016110d7565b600060405180830381600087803b1580156106e057600080fd5b505af11580156106f4573d6000803e3d6000fd5b50505050604051806101400160405280600254815260200183815260200186662386f26fc10000610725919061108f565b815260200161073b86662386f26fc1000061108f565b81523360208201526001600160a01b038316604082015260016060820152608001610769856201518061108f565b6107739042611116565b8152600060208083018290526040928301829052600280548352600380835284842086518155928601516001840155858501518383015560608601519083015560808501516004830180546001600160a01b039283166001600160a01b03199182161790915560a087015160058501805491841691831691909117905560c0870151600685015560e08701516007850155610100870151600885018054919093169116179055610120909401516009909101559154905133927ff4e4cd593fa99cef6b200fb8c03ceac5984743e70e112f4a2f035e79af3c0c5991a350506001600055505050565b6002600054141561087e5760405162461bcd60e51b81526004016102c590611020565b6002600090815561089682662386f26fc1000061108f565b6000848152600360208190526040918290209081015460015492516370a0823160e01b8152336004820152939450909290916001600160a01b0316906370a0823190602401602060405180830381865afa1580156108f8573d6000803e3d6000fd5b505050506040513d601f19601f8201168201806040525081019061091c919061112e565b1161097e5760405162461bcd60e51b815260206004820152602c60248201527f596f7520646f6e2774206861766520656e6f7567682045544820746f20636f7660448201526b65722074686973206269642160a01b60648201526084016102c5565b806003015482116109e75760405162461bcd60e51b815260206004820152602d60248201527f426964206d757374206265206d6f7265207468616e207468652063757272656e60448201526c742070726963652c206475682160981b60648201526084016102c5565b8060060154600114610a455760405162461bcd60e51b815260206004820152602160248201527f54686973206974656d206973206e6f74206f70656e20666f722062696464696e6044820152606760f81b60648201526084016102c5565b6008810180546001600160a01b0319163317905560015460405163095ea7b360e01b8152306004820152602481018490526001600160a01b039091169063095ea7b3906044016020604051808303816000875af1158015610aaa573d6000803e3d6000fd5b505050506040513d601f19601f82011682018060405250810190610ace91906110ae565b5060038101829055600981018054906000610ae8836110fb565b9091555050600881015460048201546040518481526001600160a01b03928316929091169086907f4e5c6b65c5dafd32948148161de854b22fdec6140eb03adda94f0e76dd2104de9060200160405180910390a4505060016000555050565b60026000541415610b6a5760405162461bcd60e51b81526004016102c590611020565b60026000908155818152600360205260409020600581015460088201546001600160a01b0391821691163314610bda5760405162461bcd60e51b81526020600482015260156024820152741058dd1a5bdb881b9bdd08185d5d1a1bdc9a5e9959605a1b60448201526064016102c5565b81600701544211610c2d5760405162461bcd60e51b815260206004820152601860248201527f41756374696f6e206973207374696c6c2072756e6e696e67000000000000000060448201526064016102c5565b600382015460015460088401546040516370a0823160e01b81526001600160a01b0391821660048201529116906370a0823190602401602060405180830381865afa158015610c80573d6000803e3d6000fd5b505050506040513d601f19601f82011682018060405250810190610ca4919061112e565b1015610d235760405162461bcd60e51b815260206004820152604260248201527f427579657220646f6573206e6f7420774554482062616c616e636520746f206360448201527f6f766572207468652073616c652070726963652c2073616c6520726576657274606482015261195960f21b608482015260a4016102c5565b600154600883015460048401546001600160a01b03928316926323b872dd9281169116610d7160647f000000000000000000000000000000000000000000000000000000000000000061106d565b610d7c906001611147565b8660030154610d8b919061108f565b6040518463ffffffff1660e01b8152600401610da9939291906110d7565b6020604051808303816000875af1158015610dc8573d6000803e3d6000fd5b505050506040513d601f19601f82011682018060405250810190610dec91906110ae565b5060015460088301546001600160a01b03918216916323b872dd91167f0000000000000000000000000000000000000000000000000000000000000000610e5460647f000000000000000000000000000000000000000000000000000000000000000061106d565b8660030154610e63919061108f565b6040518463ffffffff1660e01b8152600401610e81939291906110d7565b6020604051808303816000875af1158015610ea0573d6000803e3d6000fd5b505050506040513d601f19601f82011682018060405250810190610ec491906110ae565b5060088201546001830154604051632142170760e11b81526001600160a01b03848116936342842e0e93610f00933093909216916004016110d7565b600060405180830381600087803b158015610f1a57600080fd5b505af1158015610f2e573d6000803e3d6000fd5b505060026006850155505081546004830154604080516001600160a01b0390921680835260208301527f6aad6465f8fcd0a392d97bc972091a7788b15336d4b99794af4db92c796597ef910160405180910390a25050600160005550565b600060208284031215610f9e57600080fd5b5035919050565b600080600080600060a08688031215610fbd57600080fd5b8535945060208601359350604086013592506060860135915060808601356001600160a01b0381168114610ff057600080fd5b809150509295509295909350565b6000806040838503121561101157600080fd5b50508035926020909101359150565b6020808252601f908201527f5265656e7472616e637947756172643a207265656e7472616e742063616c6c00604082015260600190565b634e487b7160e01b600052601160045260246000fd5b60008261108a57634e487b7160e01b600052601260045260246000fd5b500490565b60008160001904831182151516156110a9576110a9611057565b500290565b6000602082840312156110c057600080fd5b815180151581146110d057600080fd5b9392505050565b6001600160a01b039384168152919092166020820152604081019190915260600190565b600060001982141561110f5761110f611057565b5060010190565b6000821982111561112957611129611057565b500190565b60006020828403121561114057600080fd5b5051919050565b60008282101561115957611159611057565b50039056fea264697066735822122048589b353e95e8b0c626db3918e36f7363618997928c83a4b34f2fa89f534dc064736f6c634300080c0033","bytecodeSha1":"1d27c9047f169cbfcdec7651a0f563d78b01056b","compiler":{"evm_version":"istanbul","optimizer":{"enabled":true,"runs":200},"version":"0.8.12+commit.f00d7308"},"contractName":"Marketplace","language":"Solidity","natspec":{"kind":"dev","methods":{},"version":1},"opcodes":"PUSH1 0x80 PUSH1 0x40 MSTORE CALLVALUE DUP1 ISZERO PUSH2 0x10 JUMPI PUSH1 0x0 DUP1 REVERT JUMPDEST POP PUSH1 0x4 CALLDATASIZE LT PUSH2 0xA9 JUMPI PUSH1 0x0 CALLDATALOAD PUSH1 0xE0 SHR DUP1 PUSH4 0x65E17C9D GT PUSH2 0x71 JUMPI DUP1 PUSH4 0x65E17C9D EQ PUSH2 0x142 JUMPI DUP1 PUSH4 0x7FD6F15C EQ PUSH2 0x169 JUMPI DUP1 PUSH4 0xA9B07C26 EQ PUSH2 0x19E JUMPI DUP1 PUSH4 0xB9A2DE3A EQ PUSH2 0x1A7 JUMPI DUP1 PUSH4 0xD370DDC2 EQ PUSH2 0x1BA JUMPI DUP1 PUSH4 0xDE74E57B EQ PUSH2 0x1DA JUMPI PUSH1 0x0 DUP1 REVERT JUMPDEST DUP1 PUSH4 0x1C513227 EQ PUSH2 0xAE JUMPI DUP1 PUSH4 0x305A67A8 EQ PUSH2 0xF4 JUMPI DUP1 PUSH4 0x3FC8CEF3 EQ PUSH2 0x109 JUMPI DUP1 PUSH4 0x52B68B51 EQ PUSH2 0x11C JUMPI DUP1 PUSH4 0x598647F8 EQ PUSH2 0x12F JUMPI JUMPDEST PUSH1 0x0 DUP1 REVERT JUMPDEST PUSH2 0xD7 PUSH2 0xBC CALLDATASIZE PUSH1 0x4 PUSH2 0xF8C JUMP JUMPDEST PUSH1 0x4 PUSH1 0x20 MSTORE PUSH1 0x0 SWAP1 DUP2 MSTORE PUSH1 0x40 SWAP1 KECCAK256 SLOAD PUSH1 0x1 PUSH1 0x1 PUSH1 0xA0 SHL SUB AND DUP2 JUMP JUMPDEST PUSH1 0x40 MLOAD PUSH1 0x1 PUSH1 0x1 PUSH1 0xA0 SHL SUB SWAP1 SWAP2 AND DUP2 MSTORE PUSH1 0x20 ADD JUMPDEST PUSH1 0x40 MLOAD DUP1 SWAP2 SUB SWAP1 RETURN JUMPDEST PUSH2 0x107 PUSH2 0x102 CALLDATASIZE PUSH1 0x4 PUSH2 0xF8C JUMP JUMPDEST PUSH2 0x2A2 JUMP JUMPDEST STOP JUMPDEST PUSH1 0x1 SLOAD PUSH2 0xD7 SWAP1 PUSH1 0x1 PUSH1 0x1 PUSH1 0xA0 SHL SUB AND DUP2 JUMP JUMPDEST PUSH2 0x107 PUSH2 0x12A CALLDATASIZE PUSH1 0x4 PUSH2 0xFA5 JUMP JUMPDEST PUSH2 0x598 JUMP JUMPDEST PUSH2 0x107 PUSH2 0x13D CALLDATASIZE PUSH1 0x4 PUSH2 0xFFE JUMP JUMPDEST PUSH2 0x85B JUMP JUMPDEST PUSH2 0xD7 PUSH32 0x0 DUP2 JUMP JUMPDEST PUSH2 0x190 PUSH32 0x0 DUP2 JUMP JUMPDEST PUSH1 0x40 MLOAD SWAP1 DUP2 MSTORE PUSH1 0x20 ADD PUSH2 0xEB JUMP JUMPDEST PUSH2 0x190 PUSH1 0x2 SLOAD DUP2 JUMP JUMPDEST PUSH2 0x107 PUSH2 0x1B5 CALLDATASIZE PUSH1 0x4 PUSH2 0xF8C JUMP JUMPDEST PUSH2 0xB47 JUMP JUMPDEST PUSH2 0x190 PUSH2 0x1C8 CALLDATASIZE PUSH1 0x4 PUSH2 0xF8C JUMP JUMPDEST PUSH1 0x5 PUSH1 0x20 MSTORE PUSH1 0x0 SWAP1 DUP2 MSTORE PUSH1 0x40 SWAP1 KECCAK256 SLOAD DUP2 JUMP JUMPDEST PUSH2 0x249 PUSH2 0x1E8 CALLDATASIZE PUSH1 0x4 PUSH2 0xF8C JUMP JUMPDEST PUSH1 0x3 PUSH1 0x20 DUP2 SWAP1 MSTORE PUSH1 0x0 SWAP2 DUP3 MSTORE PUSH1 0x40 SWAP1 SWAP2 KECCAK256 DUP1 SLOAD PUSH1 0x1 DUP3 ADD SLOAD PUSH1 0x2 DUP4 ADD SLOAD SWAP4 DUP4 ADD SLOAD PUSH1 0x4 DUP5 ADD SLOAD PUSH1 0x5 DUP6 ADD SLOAD PUSH1 0x6 DUP7 ADD SLOAD PUSH1 0x7 DUP8 ADD SLOAD PUSH1 0x8 DUP9 ADD SLOAD PUSH1 0x9 SWAP1 SWAP9 ADD SLOAD SWAP7 SWAP9 SWAP6 SWAP8 SWAP6 SWAP7 SWAP5 SWAP6 PUSH1 0x1 PUSH1 0x1 PUSH1 0xA0 SHL SUB SWAP5 DUP6 AND SWAP6 SWAP4 DUP6 AND SWAP5 SWAP3 SWAP4 SWAP2 SWAP3 AND SWAP1 DUP11 JUMP JUMPDEST PUSH1 0x40 DUP1 MLOAD SWAP11 DUP12 MSTORE PUSH1 0x20 DUP12 ADD SWAP10 SWAP1 SWAP10 MSTORE SWAP8 DUP10 ADD SWAP7 SWAP1 SWAP7 MSTORE PUSH1 0x60 DUP9 ADD SWAP5 SWAP1 SWAP5 MSTORE PUSH1 0x1 PUSH1 0x1 PUSH1 0xA0 SHL SUB SWAP3 DUP4 AND PUSH1 0x80 DUP9 ADD MSTORE SWAP1 DUP3 AND PUSH1 0xA0 DUP8 ADD MSTORE PUSH1 0xC0 DUP7 ADD MSTORE PUSH1 0xE0 DUP6 ADD SWAP2 SWAP1 SWAP2 MSTORE AND PUSH2 0x100 DUP4 ADD MSTORE PUSH2 0x120 DUP3 ADD MSTORE PUSH2 0x140 ADD PUSH2 0xEB JUMP JUMPDEST PUSH1 0x2 PUSH1 0x0 SLOAD EQ ISZERO PUSH2 0x2CE JUMPI PUSH1 0x40 MLOAD PUSH3 0x461BCD PUSH1 0xE5 SHL DUP2 MSTORE PUSH1 0x4 ADD PUSH2 0x2C5 SWAP1 PUSH2 0x1020 JUMP JUMPDEST PUSH1 0x40 MLOAD DUP1 SWAP2 SUB SWAP1 REVERT JUMPDEST PUSH1 0x2 PUSH1 0x0 SWAP1 DUP2 SSTORE DUP2 DUP2 MSTORE PUSH1 0x3 PUSH1 0x20 MSTORE PUSH1 0x40 SWAP1 KECCAK256 PUSH1 0x5 DUP2 ADD SLOAD PUSH1 0x6 DUP3 ADD SLOAD PUSH1 0x1 PUSH1 0x1 PUSH1 0xA0 SHL SUB SWAP1 SWAP2 AND SWAP1 PUSH1 0x1 EQ DUP1 PUSH2 0x309 JUMPI POP DUP2 PUSH1 0x6 ADD SLOAD PUSH1 0x3 EQ JUMPDEST PUSH2 0x355 JUMPI PUSH1 0x40 MLOAD PUSH3 0x461BCD PUSH1 0xE5 SHL DUP2 MSTORE PUSH1 0x20 PUSH1 0x4 DUP3 ADD MSTORE PUSH1 0x18 PUSH1 0x24 DUP3 ADD MSTORE PUSH32 0x416374696F6E206973206E6F7420617574686F72697A65640000000000000000 PUSH1 0x44 DUP3 ADD MSTORE PUSH1 0x64 ADD PUSH2 0x2C5 JUMP JUMPDEST PUSH1 0x4 DUP3 ADD SLOAD PUSH1 0x1 PUSH1 0x1 PUSH1 0xA0 SHL SUB AND CALLER EQ PUSH2 0x36E JUMPI PUSH1 0x0 DUP1 REVERT JUMPDEST PUSH1 0x0 PUSH2 0x39B PUSH1 0x64 PUSH32 0x0 PUSH2 0x106D JUMP JUMPDEST DUP4 PUSH1 0x3 ADD SLOAD PUSH2 0x3AA SWAP2 SWAP1 PUSH2 0x108F JUMP JUMPDEST PUSH1 0x1 SLOAD PUSH1 0x40 MLOAD PUSH4 0x95EA7B3 PUSH1 0xE0 SHL DUP2 MSTORE ADDRESS PUSH1 0x4 DUP3 ADD MSTORE PUSH1 0x24 DUP2 ADD DUP4 SWAP1 MSTORE SWAP2 SWAP3 POP PUSH1 0x1 PUSH1 0x1 PUSH1 0xA0 SHL SUB AND SWAP1 PUSH4 0x95EA7B3 SWAP1 PUSH1 0x44 ADD PUSH1 0x20 PUSH1 0x40 MLOAD DUP1 DUP4 SUB DUP2 PUSH1 0x0 DUP8 GAS CALL ISZERO DUP1 ISZERO PUSH2 0x3FC JUMPI RETURNDATASIZE PUSH1 0x0 DUP1 RETURNDATACOPY RETURNDATASIZE PUSH1 0x0 REVERT JUMPDEST POP POP POP POP PUSH1 0x40 MLOAD RETURNDATASIZE PUSH1 0x1F NOT PUSH1 0x1F DUP3 ADD AND DUP3 ADD DUP1 PUSH1 0x40 MSTORE POP DUP2 ADD SWAP1 PUSH2 0x420 SWAP2 SWAP1 PUSH2 0x10AE JUMP JUMPDEST POP PUSH1 0x1 SLOAD PUSH1 0x4 DUP1 DUP6 ADD SLOAD PUSH1 0x40 MLOAD PUSH4 0x23B872DD PUSH1 0xE0 SHL DUP2 MSTORE PUSH1 0x1 PUSH1 0x1 PUSH1 0xA0 SHL SUB SWAP4 DUP5 AND SWAP4 PUSH4 0x23B872DD SWAP4 PUSH2 0x47B SWAP4 SWAP1 SWAP2 AND SWAP2 PUSH32 0x0 SWAP2 DUP8 SWAP2 ADD PUSH2 0x10D7 JUMP JUMPDEST PUSH1 0x20 PUSH1 0x40 MLOAD DUP1 DUP4 SUB DUP2 PUSH1 0x0 DUP8 GAS CALL ISZERO DUP1 ISZERO PUSH2 0x49A JUMPI RETURNDATASIZE PUSH1 0x0 DUP1 RETURNDATACOPY RETURNDATASIZE PUSH1 0x0 REVERT JUMPDEST POP POP POP POP PUSH1 0x40 MLOAD RETURNDATASIZE PUSH1 0x1F NOT PUSH1 0x1F DUP3 ADD AND DUP3 ADD DUP1 PUSH1 0x40 MSTORE POP DUP2 ADD SWAP1 PUSH2 0x4BE SWAP2 SWAP1 PUSH2 0x10AE JUMP JUMPDEST PUSH2 0x515 JUMPI PUSH1 0x40 MLOAD PUSH3 0x461BCD PUSH1 0xE5 SHL DUP2 MSTORE PUSH1 0x20 PUSH1 0x4 DUP3 ADD MSTORE PUSH1 0x22 PUSH1 0x24 DUP3 ADD MSTORE PUSH32 0x4E6F7420656E6F7567682066756E647320746F2063616E63656C206C69737469 PUSH1 0x44 DUP3 ADD MSTORE PUSH2 0x6E67 PUSH1 0xF0 SHL PUSH1 0x64 DUP3 ADD MSTORE PUSH1 0x84 ADD PUSH2 0x2C5 JUMP JUMPDEST PUSH1 0x4 DUP1 DUP5 ADD SLOAD PUSH1 0x1 DUP6 ADD SLOAD PUSH1 0x40 MLOAD PUSH4 0x21421707 PUSH1 0xE1 SHL DUP2 MSTORE PUSH1 0x1 PUSH1 0x1 PUSH1 0xA0 SHL SUB DUP1 DUP8 AND SWAP5 PUSH4 0x42842E0E SWAP5 PUSH2 0x551 SWAP5 ADDRESS SWAP5 SWAP2 SWAP1 SWAP4 AND SWAP3 SWAP2 ADD PUSH2 0x10D7 JUMP JUMPDEST PUSH1 0x0 PUSH1 0x40 MLOAD DUP1 DUP4 SUB DUP2 PUSH1 0x0 DUP8 DUP1 EXTCODESIZE ISZERO DUP1 ISZERO PUSH2 0x56B JUMPI PUSH1 0x0 DUP1 REVERT JUMPDEST POP GAS CALL ISZERO DUP1 ISZERO PUSH2 0x57F JUMPI RETURNDATASIZE PUSH1 0x0 DUP1 RETURNDATACOPY RETURNDATASIZE PUSH1 0x0 REVERT JUMPDEST POP POP PUSH1 0x2 PUSH1 0x6 SWAP1 SWAP6 ADD SWAP5 SWAP1 SWAP5 SSTORE POP POP PUSH1 0x1 PUSH1 0x0 SSTORE POP POP POP JUMP JUMPDEST PUSH1 0x2 PUSH1 0x0 SLOAD EQ ISZERO PUSH2 0x5BB JUMPI PUSH1 0x40 MLOAD PUSH3 0x461BCD PUSH1 0xE5 SHL DUP2 MSTORE PUSH1 0x4 ADD PUSH2 0x2C5 SWAP1 PUSH2 0x1020 JUMP JUMPDEST PUSH1 0x2 PUSH1 0x0 SSTORE DUP4 DUP6 LT ISZERO PUSH2 0x622 JUMPI PUSH1 0x40 MLOAD PUSH3 0x461BCD PUSH1 0xE5 SHL DUP2 MSTORE PUSH1 0x20 PUSH1 0x4 DUP3 ADD MSTORE PUSH1 0x29 PUSH1 0x24 DUP3 ADD MSTORE PUSH32 0x53746172742070726963652063616E6E6F742062652068696768657220746861 PUSH1 0x44 DUP3 ADD MSTORE PUSH9 0x6E2072657365727665 PUSH1 0xB8 SHL PUSH1 0x64 DUP3 ADD MSTORE PUSH1 0x84 ADD PUSH2 0x2C5 JUMP JUMPDEST PUSH1 0x1 DUP4 LT ISZERO PUSH2 0x681 JUMPI PUSH1 0x40 MLOAD PUSH3 0x461BCD PUSH1 0xE5 SHL DUP2 MSTORE PUSH1 0x20 PUSH1 0x4 DUP3 ADD MSTORE PUSH1 0x25 PUSH1 0x24 DUP3 ADD MSTORE PUSH32 0x41756374696F6E206C656E677468206D757374206265206174206C6561737420 PUSH1 0x44 DUP3 ADD MSTORE PUSH5 0x3120646179 PUSH1 0xD8 SHL PUSH1 0x64 DUP3 ADD MSTORE PUSH1 0x84 ADD PUSH2 0x2C5 JUMP JUMPDEST PUSH1 0x2 DUP1 SLOAD SWAP1 PUSH1 0x0 PUSH2 0x691 DUP4 PUSH2 0x10FB JUMP JUMPDEST SWAP1 SWAP2 SSTORE POP POP PUSH1 0x40 MLOAD PUSH4 0x21421707 PUSH1 0xE1 SHL DUP2 MSTORE PUSH1 0x1 PUSH1 0x1 PUSH1 0xA0 SHL SUB DUP3 AND SWAP1 PUSH4 0x42842E0E SWAP1 PUSH2 0x6C6 SWAP1 CALLER SWAP1 ADDRESS SWAP1 DUP8 SWAP1 PUSH1 0x4 ADD PUSH2 0x10D7 JUMP JUMPDEST PUSH1 0x0 PUSH1 0x40 MLOAD DUP1 DUP4 SUB DUP2 PUSH1 0x0 DUP8 DUP1 EXTCODESIZE ISZERO DUP1 ISZERO PUSH2 0x6E0 JUMPI PUSH1 0x0 DUP1 REVERT JUMPDEST POP GAS CALL ISZERO DUP1 ISZERO PUSH2 0x6F4 JUMPI RETURNDATASIZE PUSH1 0x0 DUP1 RETURNDATACOPY RETURNDATASIZE PUSH1 0x0 REVERT JUMPDEST POP POP POP POP PUSH1 0x40 MLOAD DUP1 PUSH2 0x140 ADD PUSH1 0x40 MSTORE DUP1 PUSH1 0x2 SLOAD DUP2 MSTORE PUSH1 0x20 ADD DUP4 DUP2 MSTORE PUSH1 0x20 ADD DUP7 PUSH7 0x2386F26FC10000 PUSH2 0x725 SWAP2 SWAP1 PUSH2 0x108F JUMP JUMPDEST DUP2 MSTORE PUSH1 0x20 ADD PUSH2 0x73B DUP7 PUSH7 0x2386F26FC10000 PUSH2 0x108F JUMP JUMPDEST DUP2 MSTORE CALLER PUSH1 0x20 DUP3 ADD MSTORE PUSH1 0x1 PUSH1 0x1 PUSH1 0xA0 SHL SUB DUP4 AND PUSH1 0x40 DUP3 ADD MSTORE PUSH1 0x1 PUSH1 0x60 DUP3 ADD MSTORE PUSH1 0x80 ADD PUSH2 0x769 DUP6 PUSH3 0x15180 PUSH2 0x108F JUMP JUMPDEST PUSH2 0x773 SWAP1 TIMESTAMP PUSH2 0x1116 JUMP JUMPDEST DUP2 MSTORE PUSH1 0x0 PUSH1 0x20 DUP1 DUP4 ADD DUP3 SWAP1 MSTORE PUSH1 0x40 SWAP3 DUP4 ADD DUP3 SWAP1 MSTORE PUSH1 0x2 DUP1 SLOAD DUP4 MSTORE PUSH1 0x3 DUP1 DUP4 MSTORE DUP5 DUP5 KECCAK256 DUP7 MLOAD DUP2 SSTORE SWAP3 DUP7 ADD MLOAD PUSH1 0x1 DUP5 ADD SSTORE DUP6 DUP6 ADD MLOAD DUP4 DUP4 ADD SSTORE PUSH1 0x60 DUP7 ADD MLOAD SWAP1 DUP4 ADD SSTORE PUSH1 0x80 DUP6 ADD MLOAD PUSH1 0x4 DUP4 ADD DUP1 SLOAD PUSH1 0x1 PUSH1 0x1 PUSH1 0xA0 SHL SUB SWAP3 DUP4 AND PUSH1 0x1 PUSH1 0x1 PUSH1 0xA0 SHL SUB NOT SWAP2 DUP3 AND OR SWAP1 SWAP2 SSTORE PUSH1 0xA0 DUP8 ADD MLOAD PUSH1 0x5 DUP6 ADD DUP1 SLOAD SWAP2 DUP5 AND SWAP2 DUP4 AND SWAP2 SWAP1 SWAP2 OR SWAP1 SSTORE PUSH1 0xC0 DUP8 ADD MLOAD PUSH1 0x6 DUP6 ADD SSTORE PUSH1 0xE0 DUP8 ADD MLOAD PUSH1 0x7 DUP6 ADD SSTORE PUSH2 0x100 DUP8 ADD MLOAD PUSH1 0x8 DUP6 ADD DUP1 SLOAD SWAP2 SWAP1 SWAP4 AND SWAP2 AND OR SWAP1 SSTORE PUSH2 0x120 SWAP1 SWAP5 ADD MLOAD PUSH1 0x9 SWAP1 SWAP2 ADD SSTORE SWAP2 SLOAD SWAP1 MLOAD CALLER SWAP3 PUSH32 0xF4E4CD593FA99CEF6B200FB8C03CEAC5984743E70E112F4A2F035E79AF3C0C59 SWAP2 LOG3 POP POP PUSH1 0x1 PUSH1 0x0 SSTORE POP POP POP JUMP JUMPDEST PUSH1 0x2 PUSH1 0x0 SLOAD EQ ISZERO PUSH2 0x87E JUMPI PUSH1 0x40 MLOAD PUSH3 0x461BCD PUSH1 0xE5 SHL DUP2 MSTORE PUSH1 0x4 ADD PUSH2 0x2C5 SWAP1 PUSH2 0x1020 JUMP JUMPDEST PUSH1 0x2 PUSH1 0x0 SWAP1 DUP2 SSTORE PUSH2 0x896 DUP3 PUSH7 0x2386F26FC10000 PUSH2 0x108F JUMP JUMPDEST PUSH1 0x0 DUP5 DUP2 MSTORE PUSH1 0x3 PUSH1 0x20 DUP2 SWAP1 MSTORE PUSH1 0x40 SWAP2 DUP3 SWAP1 KECCAK256 SWAP1 DUP2 ADD SLOAD PUSH1 0x1 SLOAD SWAP3 MLOAD PUSH4 0x70A08231 PUSH1 0xE0 SHL DUP2 MSTORE CALLER PUSH1 0x4 DUP3 ADD MSTORE SWAP4 SWAP5 POP SWAP1 SWAP3 SWAP1 SWAP2 PUSH1 0x1 PUSH1 0x1 PUSH1 0xA0 SHL SUB AND SWAP1 PUSH4 0x70A08231 SWAP1 PUSH1 0x24 ADD PUSH1 0x20 PUSH1 0x40 MLOAD DUP1 DUP4 SUB DUP2 DUP7 GAS STATICCALL ISZERO DUP1 ISZERO PUSH2 0x8F8 JUMPI RETURNDATASIZE PUSH1 0x0 DUP1 RETURNDATACOPY RETURNDATASIZE PUSH1 0x0 REVERT JUMPDEST POP POP POP POP PUSH1 0x40 MLOAD RETURNDATASIZE PUSH1 0x1F NOT PUSH1 0x1F DUP3 ADD AND DUP3 ADD DUP1 PUSH1 0x40 MSTORE POP DUP2 ADD SWAP1 PUSH2 0x91C SWAP2 SWAP1 PUSH2 0x112E JUMP JUMPDEST GT PUSH2 0x97E JUMPI PUSH1 0x40 MLOAD PUSH3 0x461BCD PUSH1 0xE5 SHL DUP2 MSTORE PUSH1 0x20 PUSH1 0x4 DUP3 ADD MSTORE PUSH1 0x2C PUSH1 0x24 DUP3 ADD MSTORE PUSH32 0x596F7520646F6E2774206861766520656E6F7567682045544820746F20636F76 PUSH1 0x44 DUP3 ADD MSTORE PUSH12 0x657220746869732062696421 PUSH1 0xA0 SHL PUSH1 0x64 DUP3 ADD MSTORE PUSH1 0x84 ADD PUSH2 0x2C5 JUMP JUMPDEST DUP1 PUSH1 0x3 ADD SLOAD DUP3 GT PUSH2 0x9E7 JUMPI PUSH1 0x40 MLOAD PUSH3 0x461BCD PUSH1 0xE5 SHL DUP2 MSTORE PUSH1 0x20 PUSH1 0x4 DUP3 ADD MSTORE PUSH1 0x2D PUSH1 0x24 DUP3 ADD MSTORE PUSH32 0x426964206D757374206265206D6F7265207468616E207468652063757272656E PUSH1 0x44 DUP3 ADD MSTORE PUSH13 0x742070726963652C2064756821 PUSH1 0x98 SHL PUSH1 0x64 DUP3 ADD MSTORE PUSH1 0x84 ADD PUSH2 0x2C5 JUMP JUMPDEST DUP1 PUSH1 0x6 ADD SLOAD PUSH1 0x1 EQ PUSH2 0xA45 JUMPI PUSH1 0x40 MLOAD PUSH3 0x461BCD PUSH1 0xE5 SHL DUP2 MSTORE PUSH1 0x20 PUSH1 0x4 DUP3 ADD MSTORE PUSH1 0x21 PUSH1 0x24 DUP3 ADD MSTORE PUSH32 0x54686973206974656D206973206E6F74206F70656E20666F722062696464696E PUSH1 0x44 DUP3 ADD MSTORE PUSH1 0x67 PUSH1 0xF8 SHL PUSH1 0x64 DUP3 ADD MSTORE PUSH1 0x84 ADD PUSH2 0x2C5 JUMP JUMPDEST PUSH1 0x8 DUP2 ADD DUP1 SLOAD PUSH1 0x1 PUSH1 0x1 PUSH1 0xA0 SHL SUB NOT AND CALLER OR SWAP1 SSTORE PUSH1 0x1 SLOAD PUSH1 0x40 MLOAD PUSH4 0x95EA7B3 PUSH1 0xE0 SHL DUP2 MSTORE ADDRESS PUSH1 0x4 DUP3 ADD MSTORE PUSH1 0x24 DUP2 ADD DUP5 SWAP1 MSTORE PUSH1 0x1 PUSH1 0x1 PUSH1 0xA0 SHL SUB SWAP1 SWAP2 AND SWAP1 PUSH4 0x95EA7B3 SWAP1 PUSH1 0x44 ADD PUSH1 0x20 PUSH1 0x40 MLOAD DUP1 DUP4 SUB DUP2 PUSH1 0x0 DUP8 GAS CALL ISZERO DUP1 ISZERO PUSH2 0xAAA JUMPI RETURNDATASIZE PUSH1 0x0 DUP1 RETURNDATACOPY RETURNDATASIZE PUSH1 0x0 REVERT JUMPDEST POP POP POP POP PUSH1 0x40 MLOAD RETURNDATASIZE PUSH1 0x1F NOT PUSH1 0x1F DUP3 ADD AND DUP3 ADD DUP1 PUSH1 0x40 MSTORE POP DUP2 ADD SWAP1 PUSH2 0xACE SWAP2 SWAP1 PUSH2 0x10AE JUMP JUMPDEST POP PUSH1 0x3 DUP2 ADD DUP3 SWAP1 SSTORE PUSH1 0x9 DUP2 ADD DUP1 SLOAD SWAP1 PUSH1 0x0 PUSH2 0xAE8 DUP4 PUSH2 0x10FB JUMP JUMPDEST SWAP1 SWAP2 SSTORE POP POP PUSH1 0x8 DUP2 ADD SLOAD PUSH1 0x4 DUP3 ADD SLOAD PUSH1 0x40 MLOAD DUP5 DUP2 MSTORE PUSH1 0x1 PUSH1 0x1 PUSH1 0xA0 SHL SUB SWAP3 DUP4 AND SWAP3 SWAP1 SWAP2 AND SWAP1 DUP7 SWAP1 PUSH32 0x4E5C6B65C5DAFD32948148161DE854B22FDEC6140EB03ADDA94F0E76DD2104DE SWAP1 PUSH1 0x20 ADD PUSH1 0x40 MLOAD DUP1 SWAP2 SUB SWAP1 LOG4 POP POP PUSH1 0x1 PUSH1 0x0 SSTORE POP POP JUMP JUMPDEST PUSH1 0x2 PUSH1 0x0 SLOAD EQ ISZERO PUSH2 0xB6A JUMPI PUSH1 0x40 MLOAD PUSH3 0x461BCD PUSH1 0xE5 SHL DUP2 MSTORE PUSH1 0x4 ADD PUSH2 0x2C5 SWAP1 PUSH2 0x1020 JUMP JUMPDEST PUSH1 0x2 PUSH1 0x0 SWAP1 DUP2 SSTORE DUP2 DUP2 MSTORE PUSH1 0x3 PUSH1 0x20 MSTORE PUSH1 0x40 SWAP1 KECCAK256 PUSH1 0x5 DUP2 ADD SLOAD PUSH1 0x8 DUP3 ADD SLOAD PUSH1 0x1 PUSH1 0x1 PUSH1 0xA0 SHL SUB SWAP2 DUP3 AND SWAP2 AND CALLER EQ PUSH2 0xBDA JUMPI PUSH1 0x40 MLOAD PUSH3 0x461BCD PUSH1 0xE5 SHL DUP2 MSTORE PUSH1 0x20 PUSH1 0x4 DUP3 ADD MSTORE PUSH1 0x15 PUSH1 0x24 DUP3 ADD MSTORE PUSH21 0x1058DD1A5BDB881B9BDD08185D5D1A1BDC9A5E9959 PUSH1 0x5A SHL PUSH1 0x44 DUP3 ADD MSTORE PUSH1 0x64 ADD PUSH2 0x2C5 JUMP JUMPDEST DUP2 PUSH1 0x7 ADD SLOAD TIMESTAMP GT PUSH2 0xC2D JUMPI PUSH1 0x40 MLOAD PUSH3 0x461BCD PUSH1 0xE5 SHL DUP2 MSTORE PUSH1 0x20 PUSH1 0x4 DUP3 ADD MSTORE PUSH1 0x18 PUSH1 0x24 DUP3 ADD MSTORE PUSH32 0x41756374696F6E206973207374696C6C2072756E6E696E670000000000000000 PUSH1 0x44 DUP3 ADD MSTORE PUSH1 0x64 ADD PUSH2 0x2C5 JUMP JUMPDEST PUSH1 0x3 DUP3 ADD SLOAD PUSH1 0x1 SLOAD PUSH1 0x8 DUP5 ADD SLOAD PUSH1 0x40 MLOAD PUSH4 0x70A08231 PUSH1 0xE0 SHL DUP2 MSTORE PUSH1 0x1 PUSH1 0x1 PUSH1 0xA0 SHL SUB SWAP2 DUP3 AND PUSH1 0x4 DUP3 ADD MSTORE SWAP2 AND SWAP1 PUSH4 0x70A08231 SWAP1 PUSH1 0x24 ADD PUSH1 0x20 PUSH1 0x40 MLOAD DUP1 DUP4 SUB DUP2 DUP7 GAS STATICCALL ISZERO DUP1 ISZERO PUSH2 0xC80 JUMPI RETURNDATASIZE PUSH1 0x0 DUP1 RETURNDATACOPY RETURNDATASIZE PUSH1 0x0 REVERT JUMPDEST POP POP POP POP PUSH1 0x40 MLOAD RETURNDATASIZE PUSH1 0x1F NOT PUSH1 0x1F DUP3 ADD AND DUP3 ADD DUP1 PUSH1 0x40 MSTORE POP DUP2 ADD SWAP1 PUSH2 0xCA4 SWAP2 SWAP1 PUSH2 0x112E JUMP JUMPDEST LT ISZERO PUSH2 0xD23 JUMPI PUSH1 0x40 MLOAD PUSH3 0x461BCD PUSH1 0xE5 SHL DUP2 MSTORE PUSH1 0x20 PUSH1 0x4 DUP3 ADD MSTORE PUSH1 0x42 PUSH1 0x24 DUP3 ADD MSTORE PUSH32 0x427579657220646F6573206E6F7420774554482062616C616E636520746F2063 PUSH1 0x44 DUP3 ADD MSTORE PUSH32 0x6F766572207468652073616C652070726963652C2073616C6520726576657274 PUSH1 0x64 DUP3 ADD MSTORE PUSH2 0x1959 PUSH1 0xF2 SHL PUSH1 0x84 DUP3 ADD MSTORE PUSH1 0xA4 ADD PUSH2 0x2C5 JUMP JUMPDEST PUSH1 0x1 SLOAD PUSH1 0x8 DUP4 ADD SLOAD PUSH1 0x4 DUP5 ADD SLOAD PUSH1 0x1 PUSH1 0x1 PUSH1 0xA0 SHL SUB SWAP3 DUP4 AND SWAP3 PUSH4 0x23B872DD SWAP3 DUP2 AND SWAP2 AND PUSH2 0xD71 PUSH1 0x64 PUSH32 0x0 PUSH2 0x106D JUMP JUMPDEST PUSH2 0xD7C SWAP1 PUSH1 0x1 PUSH2 0x1147 JUMP JUMPDEST DUP7 PUSH1 0x3 ADD SLOAD PUSH2 0xD8B SWAP2 SWAP1 PUSH2 0x108F JUMP JUMPDEST PUSH1 0x40 MLOAD DUP5 PUSH4 0xFFFFFFFF AND PUSH1 0xE0 SHL DUP2 MSTORE PUSH1 0x4 ADD PUSH2 0xDA9 SWAP4 SWAP3 SWAP2 SWAP1 PUSH2 0x10D7 JUMP JUMPDEST PUSH1 0x20 PUSH1 0x40 MLOAD DUP1 DUP4 SUB DUP2 PUSH1 0x0 DUP8 GAS CALL ISZERO DUP1 ISZERO PUSH2 0xDC8 JUMPI RETURNDATASIZE PUSH1 0x0 DUP1 RETURNDATACOPY RETURNDATASIZE PUSH1 0x0 REVERT JUMPDEST POP POP POP POP PUSH1 0x40 MLOAD RETURNDATASIZE PUSH1 0x1F NOT PUSH1 0x1F DUP3 ADD AND DUP3 ADD DUP1 PUSH1 0x40 MSTORE POP DUP2 ADD SWAP1 PUSH2 0xDEC SWAP2 SWAP1 PUSH2 0x10AE JUMP JUMPDEST POP PUSH1 0x1 SLOAD PUSH1 0x8 DUP4 ADD SLOAD PUSH1 0x1 PUSH1 0x1 PUSH1 0xA0 SHL SUB SWAP2 DUP3 AND SWAP2 PUSH4 0x23B872DD SWAP2 AND PUSH32 0x0 PUSH2 0xE54 PUSH1 0x64 PUSH32 0x0 PUSH2 0x106D JUMP JUMPDEST DUP7 PUSH1 0x3 ADD SLOAD PUSH2 0xE63 SWAP2 SWAP1 PUSH2 0x108F JUMP JUMPDEST PUSH1 0x40 MLOAD DUP5 PUSH4 0xFFFFFFFF AND PUSH1 0xE0 SHL DUP2 MSTORE PUSH1 0x4 ADD PUSH2 0xE81 SWAP4 SWAP3 SWAP2 SWAP1 PUSH2 0x10D7 JUMP JUMPDEST PUSH1 0x20 PUSH1 0x40 MLOAD DUP1 DUP4 SUB DUP2 PUSH1 0x0 DUP8 GAS CALL ISZERO DUP1 ISZERO PUSH2 0xEA0 JUMPI RETURNDATASIZE PUSH1 0x0 DUP1 RETURNDATACOPY RETURNDATASIZE PUSH1 0x0 REVERT JUMPDEST POP POP POP POP PUSH1 0x40 MLOAD RETURNDATASIZE PUSH1 0x1F NOT PUSH1 0x1F DUP3 ADD AND DUP3 ADD DUP1 PUSH1 0x40 MSTORE POP DUP2 ADD SWAP1 PUSH2 0xEC4 SWAP2 SWAP1 PUSH2 0x10AE JUMP JUMPDEST POP PUSH1 0x8 DUP3 ADD SLOAD PUSH1 0x1 DUP4 ADD SLOAD PUSH1 0x40 MLOAD PUSH4 0x21421707 PUSH1 0xE1 SHL DUP2 MSTORE PUSH1 0x1 PUSH1 0x1 PUSH1 0xA0 SHL SUB DUP5 DUP2 AND SWAP4 PUSH4 0x42842E0E SWAP4 PUSH2 0xF00 SWAP4 ADDRESS SWAP4 SWAP1 SWAP3 AND SWAP2 PUSH1 0x4 ADD PUSH2 0x10D7 JUMP JUMPDEST PUSH1 0x0 PUSH1 0x40 MLOAD DUP1 DUP4 SUB DUP2 PUSH1 0x0 DUP8 DUP1 EXTCODESIZE ISZERO DUP1 ISZERO PUSH2 0xF1A JUMPI PUSH1 0x0 DUP1 REVERT JUMPDEST POP GAS CALL ISZERO DUP1 ISZERO PUSH2 0xF2E JUMPI RETURNDATASIZE PUSH1 0x0 DUP1 RETURNDATACOPY RETURNDATASIZE PUSH1 0x0 REVERT JUMPDEST POP POP PUSH1 0x2 PUSH1 0x6 DUP6 ADD SSTORE POP POP DUP2 SLOAD PUSH1 0x4 DUP4 ADD SLOAD PUSH1 0x40 DUP1 MLOAD PUSH1 0x1 PUSH1 0x1 PUSH1 0xA0 SHL SUB SWAP1 SWAP3 AND DUP1 DUP4 MSTORE PUSH1 0x20 DUP4 ADD MSTORE PUSH32 0x6AAD6465F8FCD0A392D97BC972091A7788B15336D4B99794AF4DB92C796597EF SWAP2 ADD PUSH1 0x40 MLOAD DUP1 SWAP2 SUB SWAP1 LOG2 POP POP PUSH1 0x1 PUSH1 0x0 SSTORE POP JUMP JUMPDEST PUSH1 0x0 PUSH1 0x20 DUP3 DUP5 SUB SLT ISZERO PUSH2 0xF9E JUMPI PUSH1 0x0 DUP1 REVERT JUMPDEST POP CALLDATALOAD SWAP2 SWAP1 POP JUMP JUMPDEST PUSH1 0x0 DUP1 PUSH1 0x0 DUP1 PUSH1 0x0 PUSH1 0xA0 DUP7 DUP9 SUB SLT ISZERO PUSH2 0xFBD JUMPI PUSH1 0x0 DUP1 REVERT JUMPDEST DUP6 CALLDATALOAD SWAP5 POP PUSH1 0x20 DUP7 ADD CALLDATALOAD SWAP4 POP PUSH1 0x40 DUP7 ADD CALLDATALOAD SWAP3 POP PUSH1 0x60 DUP7 ADD CALLDATALOAD SWAP2 POP PUSH1 0x80 DUP7 ADD CALLDATALOAD PUSH1 0x1 PUSH1 0x1 PUSH1 0xA0 SHL SUB DUP2 AND DUP2 EQ PUSH2 0xFF0 JUMPI PUSH1 0x0 DUP1 REVERT JUMPDEST DUP1 SWAP2 POP POP SWAP3 SWAP6 POP SWAP3 SWAP6 SWAP1 SWAP4 POP JUMP JUMPDEST PUSH1 0x0 DUP1 PUSH1 0x40 DUP4 DUP6 SUB SLT ISZERO PUSH2 0x1011 JUMPI PUSH1 0x0 DUP1 REVERT JUMPDEST POP POP DUP1 CALLDATALOAD SWAP3 PUSH1 0x20 SWAP1 SWAP2 ADD CALLDATALOAD SWAP2 POP JUMP JUMPDEST PUSH1 0x20 DUP1 DUP3 MSTORE PUSH1 0x1F SWAP1 DUP3 ADD MSTORE PUSH32 0x5265656E7472616E637947756172643A207265656E7472616E742063616C6C00 PUSH1 0x40 DUP3 ADD MSTORE PUSH1 0x60 ADD SWAP1 JUMP JUMPDEST PUSH4 0x4E487B71 PUSH1 0xE0 SHL PUSH1 0x0 MSTORE PUSH1 0x11 PUSH1 0x4 MSTORE PUSH1 0x24 PUSH1 0x0 REVERT JUMPDEST PUSH1 0x0 DUP3 PUSH2 0x108A JUMPI PUSH4 0x4E487B71 PUSH1 0xE0 SHL PUSH1 0x0 MSTORE PUSH1 0x12 PUSH1 0x4 MSTORE PUSH1 0x24 PUSH1 0x0 REVERT JUMPDEST POP DIV SWAP1 JUMP JUMPDEST PUSH1 0x0 DUP2 PUSH1 0x0 NOT DIV DUP4 GT DUP3 ISZERO ISZERO AND ISZERO PUSH2 0x10A9 JUMPI PUSH2 0x10A9 PUSH2 0x1057 JUMP JUMPDEST POP MUL SWAP1 JUMP JUMPDEST PUSH1 0x0 PUSH1 0x20 DUP3 DUP5 SUB SLT ISZERO PUSH2 0x10C0 JUMPI PUSH1 0x0 DUP1 REVERT JUMPDEST DUP2 MLOAD DUP1 ISZERO ISZERO DUP2 EQ PUSH2 0x10D0 JUMPI PUSH1 0x0 DUP1 REVERT JUMPDEST SWAP4 SWAP3 POP POP POP JUMP JUMPDEST PUSH1 0x1 PUSH1 0x1 PUSH1 0xA0 SHL SUB SWAP4 DUP5 AND DUP2 MSTORE SWAP2 SWAP1 SWAP3 AND PUSH1 0x20 DUP3 ADD MSTORE PUSH1 0x40 DUP2 ADD SWAP2 SWAP1 SWAP2 MSTORE PUSH1 0x60 ADD SWAP1 JUMP JUMPDEST PUSH1 0x0 PUSH1 0x0 NOT DUP3 EQ ISZERO PUSH2 0x110F JUMPI PUSH2 0x110F PUSH2 0x1057 JUMP JUMPDEST POP PUSH1 0x1 ADD SWAP1 JUMP JUMPDEST PUSH1 0x0 DUP3 NOT DUP3 GT ISZERO PUSH2 0x1129 JUMPI PUSH2 0x1129 PUSH2 0x1057 JUMP JUMPDEST POP ADD SWAP1 JUMP JUMPDEST PUSH1 0x0 PUSH1 0x20 DUP3 DUP5 SUB SLT ISZERO PUSH2 0x1140 JUMPI PUSH1 0x0 DUP1 REVERT JUMPDEST POP MLOAD SWAP2 SWAP1 POP JUMP JUMPDEST PUSH1 0x0 DUP3 DUP3 LT ISZERO PUSH2 0x1159 JUMPI PUSH2 0x1159 PUSH2 0x1057 JUMP JUMPDEST POP SUB SWAP1 JUMP INVALID LOG2 PUSH5 0x6970667358 0x22 SLT KECCAK256 BASEFEE PC SWAP12 CALLDATALOAD RETURNDATACOPY SWAP6 0xE8 0xB0 0xC6 0x26 0xDB CODECOPY XOR 0xE3 PUSH16 0x7363618997928C83A4B34F2FA89F534D 0xC0 PUSH5 0x736F6C6343 STOP ADDMOD 0xC STOP CALLER ","sha1":"65c3ea06a350041f81700aa94f8d302a6eaa1a89","source":"// SPDX-License-Identifier: MIT\npragma solidity ^0.8.0;\n\nimport \"@openzeppelin/contracts/security/ReentrancyGuard.sol\";\nimport \"@openzeppelin/contracts/token/ERC721/IERC721.sol\";\nimport \"@openzeppelin/contracts/token/ERC20/IERC20.sol\";\n\ncontract Marketplace is ReentrancyGuard {\n    IERC20 public weth;\n    address payable public immutable feeAccount;\n    uint256 public immutable feePercent;\n    uint256 public listingCount;\n\n    struct Listing {\n        uint256 listingId;\n        uint256 tokenId;\n        uint256 reservePrice;\n        uint256 currentPrice;\n        address payable seller;\n        IERC721 nft;\n        uint256 auctionState;\n        uint256 closingTime;\n        address payable buyer;\n        uint256 bidCounter;\n    }\n\n    // auctionState legend: 1 = Open, 2 = Closed, 3 = Reverted\n\n    mapping(uint256 => Listing) public listings;\n    mapping(uint256 => IERC721) public listingNFT;\n    mapping(uint256 => uint256) public listingTokenId;\n\n    event Listed(uint256 indexed listingId, address indexed seller);\n\n    event Bid(\n        uint256 indexed listingId,\n        uint256 bidPrice,\n        address indexed seller,\n        address indexed bidder\n    );\n\n    event Bought(\n        uint256 indexed listingId,\n        uint256 salePrice,\n        address indexed seller,\n        address indexed buyer\n    );\n\n    event Closed(uint256 indexed listingId, address seller, address buyer);\n    event Reverted(\n        uint256 listingId,\n        address indexed seller,\n        address indexed buyer\n    );\n\n    constructor(uint256 _feePercent, address _weth) {\n        weth = IERC20(_weth);\n        feeAccount = payable(msg.sender);\n        feePercent = _feePercent;\n    }\n\n    function createListing(\n        uint256 _reservePrice,\n        uint256 _startPrice,\n        uint256 _closingTime,\n        uint256 _tokenId,\n        IERC721 _nft\n    ) external nonReentrant {\n        require(_reservePrice >= 0, \"Invalid reserve price\");\n        require(\n            _reservePrice >= _startPrice,\n            \"Start price cannot be higher than reserve\"\n        );\n        require(_closingTime >= (1), \"Auction length must be at least 1 day\");\n        listingCount++;\n        _nft.safeTransferFrom(msg.sender, address(this), _tokenId);\n        listings[listingCount] = Listing(\n            listingCount,\n            _tokenId,\n            (_reservePrice * (10**16)),\n            (_startPrice * (10**16)),\n            payable(msg.sender),\n            _nft,\n            1,\n            (block.timestamp + (_closingTime * 1 days)),\n            payable(address(0)),\n            0\n        );\n        emit Listed(listingCount, msg.sender);\n    }\n\n    function bid(uint256 _listingId, uint256 _bidPrice) external nonReentrant {\n        uint256 bidPrice = _bidPrice * (10**16);\n        Listing storage listing = listings[_listingId];\n        require(\n            weth.balanceOf(msg.sender) > listing.currentPrice,\n            \"You don't have enough ETH to cover this bid!\"\n        );\n        require(\n            bidPrice > listing.currentPrice,\n            \"Bid must be more than the current price, duh!\"\n        );\n        require(listing.auctionState == 1, \"This item is not open for bidding\");\n        listing.buyer = payable(msg.sender);\n        weth.approve(address(this), bidPrice);\n        listing.currentPrice = bidPrice;\n        listing.bidCounter++;\n        emit Bid(_listingId, bidPrice, listing.seller, listing.buyer);\n    }\n\n    function endAuction(uint256 _listingId) external nonReentrant {\n        Listing storage listing = listings[_listingId];\n        IERC721 nft = listing.nft;\n        require(msg.sender == listing.buyer, \"Action not authorized\");\n        require(\n            block.timestamp > listing.closingTime,\n            \"Auction is still running\"\n        );\n        if (weth.balanceOf(listing.buyer) < listing.currentPrice) {\n            revert(\n                \"Buyer does not wETH balance to cover the sale price, sale reverted\"\n            );\n            listing.auctionState = 3;\n            emit Reverted(_listingId, listing.seller, listing.buyer);\n        } else {\n            weth.transferFrom(\n                listing.buyer,\n                listing.seller,\n                listing.currentPrice * (1 - (feePercent / 100))\n            );\n            weth.transferFrom(\n                listing.buyer,\n                feeAccount,\n                listing.currentPrice * (feePercent / 100)\n            );\n            nft.safeTransferFrom(address(this), listing.buyer, listing.tokenId);\n            listing.auctionState = 2;\n            emit Closed(listing.listingId, listing.seller, listing.seller);\n        }\n    }\n\n    function cancelListing(uint256 _listingId) external nonReentrant {\n        Listing storage listing = listings[_listingId];\n        IERC721 nft = listing.nft;\n        require(\n            listing.auctionState == 1 || listing.auctionState == 3,\n            \"Action is not authorized\"\n        );\n        require(listing.seller == msg.sender);\n        uint256 feeAmount = listing.currentPrice * (feePercent / 100);\n        weth.approve(address(this), feeAmount);\n        require(\n            weth.transferFrom(listing.seller, feeAccount, feeAmount),\n            \"Not enough funds to cancel listing\"\n        );\n        nft.safeTransferFrom(address(this), listing.seller, listing.tokenId);\n        listing.auctionState = 2;\n    }\n}\n\n// The code below is for implementation of escrow functionality to be implemented at a later date\n\n// event confirmedEscrow(uint256 indexed listingId, address seller);\n// event WithdrawEscrow(\n//     uint256 indexed listingId,\n//     address seller,\n//     address buyer\n// );\n\n//     function confirmEscrow(uint256 _listingId) external {\n//     Listing memory listing = listings[_listingId];\n//     require(msg.sender == listing.buyer, \"Only buyer can finalize escrow\");\n//     require(listing.auctionState == AUCTION_STATE.PENDING);\n//     require(\n//         block.timestamp < listing.escrowClosingTime,\n//         \"Escrow has expired, the sale will be reversed\"\n//     );\n//     listing.seller.transfer(\n//         listing.currentPrice * (1 - (100 - feePercent / 100))\n//     );\n//     weth.transferFrom(\n//         address(this),\n//         feeAccount,\n//         listing.currentPrice * (feePercent / 100)\n//     );\n//     listing.nft.safeTransferFrom(\n//         address(this),\n//         listing.buyer,\n//         listing.tokenId\n//     );\n//     listing.auctionState = AUCTION_STATE.FINALIZED;\n//     emit confirmedEscrow(_listingId, listing.seller);\n// }\n\n// function withdrawEscrow(uint256 _listingId) external {\n//     Listing memory listing = listings[_listingId];\n//     require(\n//         msg.sender == listing.buyer,\n//         \"Only buyer can withdraw from escrow\"\n//     );\n//     require(listing.auctionState == AUCTION_STATE.PENDING);\n//     require(\n//         block.timestamp > listing.escrowClosingTime,\n//         \"The escrow time has not expired yet\"\n//     );\n//     weth.transferFrom(\n//         address(this),\n//         listing.buyer,\n//         listing.currentPrice * (100 - feePercent)\n//     );\n//     listing.nft.safeTransferFrom(\n//         address(this),\n//         listing.seller,\n//         listing.tokenId\n//     );\n//     listing.auctionState = AUCTION_STATE.FINALIZED;\n//     emit WithdrawEscrow(_listingId, listing.seller, listing.buyer);\n// }\n\n// if (!listing.escrow) {\n//     listing.auctionState == AUCTION_STATE.FINALIZED;\n//     weth.transferFrom(\n//         listing.buyer,\n//         listing.seller,\n//         listing.currentPrice * (1 - feePercent)\n//     );\n//     weth.transferFrom(\n//         listing.buyer,\n//         feeAccount,\n//         listing.currentPrice * feePercent\n//     );\n//     listing.nft.safeTransferFrom(\n//         address(this),\n//         listing.buyer,\n//         listing.tokenId\n//     );\n//     emit Bought(\n//         _listingId,\n//         listing.currentPrice,\n//         listing.seller,\n//         listing.buyer\n//     );\n// } else {\n//     weth.transferFrom(\n//         listing.buyer,\n//         address(this),\n//         listing.currentPrice\n//     );\n//     listing.auctionState == AUCTION_STATE.PENDING;\n","sourcePath":"contracts/Marketplace.sol","type":"contract","deployment":{"address":"0x6399DfCf70A5f896c62260569e095e554b4039eE","chainid":"4","blockHeight":10533527}}