{"abi":[{"inputs":[{"internalType":"uint256","name":"_feePercent","type":"uint256"},{"internalType":"address","name":"_weth","type":"address"}],"stateMutability":"nonpayable","type":"constructor","name":"constructor"},{"anonymous":false,"inputs":[{"indexed":true,"internalType":"uint256","name":"listingId","type":"uint256"},{"indexed":false,"internalType":"uint256","name":"bidPrice","type":"uint256"},{"indexed":true,"internalType":"address","name":"seller","type":"address"},{"indexed":true,"internalType":"address","name":"bidder","type":"address"}],"name":"Bid","type":"event"},{"anonymous":false,"inputs":[{"indexed":true,"internalType":"uint256","name":"listingId","type":"uint256"},{"indexed":false,"internalType":"uint256","name":"salePrice","type":"uint256"},{"indexed":true,"internalType":"address","name":"seller","type":"address"},{"indexed":true,"internalType":"address","name":"buyer","type":"address"}],"name":"Bought","type":"event"},{"anonymous":false,"inputs":[{"indexed":true,"internalType":"uint256","name":"listingId","type":"uint256"},{"indexed":false,"internalType":"address","name":"seller","type":"address"},{"indexed":false,"internalType":"address","name":"buyer","type":"address"}],"name":"Closed","type":"event"},{"anonymous":false,"inputs":[{"indexed":true,"internalType":"uint256","name":"listingId","type":"uint256"},{"indexed":true,"internalType":"address","name":"seller","type":"address"}],"name":"Listed","type":"event"},{"anonymous":false,"inputs":[{"indexed":false,"internalType":"uint256","name":"listingId","type":"uint256"},{"indexed":true,"internalType":"address","name":"seller","type":"address"},{"indexed":true,"internalType":"address","name":"buyer","type":"address"}],"name":"Reverted","type":"event"},{"inputs":[{"internalType":"uint256","name":"_listingId","type":"uint256"},{"internalType":"uint256","name":"_bidPrice","type":"uint256"}],"name":"bid","outputs":[],"stateMutability":"nonpayable","type":"function"},{"inputs":[{"internalType":"uint256","name":"_listingId","type":"uint256"}],"name":"cancelListing","outputs":[],"stateMutability":"nonpayable","type":"function"},{"inputs":[{"internalType":"uint256","name":"_reservePrice","type":"uint256"},{"internalType":"uint256","name":"_startPrice","type":"uint256"},{"internalType":"uint256","name":"_closingTime","type":"uint256"},{"internalType":"uint256","name":"_tokenId","type":"uint256"},{"internalType":"contract IERC721","name":"_nft","type":"address"}],"name":"createListing","outputs":[],"stateMutability":"nonpayable","type":"function"},{"inputs":[{"internalType":"uint256","name":"_listingId","type":"uint256"}],"name":"endAuction","outputs":[],"stateMutability":"nonpayable","type":"function"},{"inputs":[],"name":"feeAccount","outputs":[{"internalType":"address payable","name":"","type":"address"}],"stateMutability":"view","type":"function"},{"inputs":[],"name":"feePercent","outputs":[{"internalType":"uint256","name":"","type":"uint256"}],"stateMutability":"view","type":"function"},{"inputs":[],"name":"listingCount","outputs":[{"internalType":"uint256","name":"","type":"uint256"}],"stateMutability":"view","type":"function"},{"inputs":[{"internalType":"uint256","name":"","type":"uint256"}],"name":"listingNFT","outputs":[{"internalType":"contract IERC721","name":"","type":"address"}],"stateMutability":"view","type":"function"},{"inputs":[{"internalType":"uint256","name":"","type":"uint256"}],"name":"listingTokenId","outputs":[{"internalType":"uint256","name":"","type":"uint256"}],"stateMutability":"view","type":"function"},{"inputs":[{"internalType":"uint256","name":"","type":"uint256"}],"name":"listings","outputs":[{"internalType":"uint256","name":"listingId","type":"uint256"},{"internalType":"uint256","name":"tokenId","type":"uint256"},{"internalType":"uint256","name":"reservePrice","type":"uint256"},{"internalType":"uint256","name":"currentPrice","type":"uint256"},{"internalType":"address payable","name":"seller","type":"address"},{"internalType":"contract IERC721","name":"nft","type":"address"},{"internalType":"uint256","name":"auctionState","type":"uint256"},{"internalType":"uint256","name":"closingTime","type":"uint256"},{"internalType":"address payable","name":"buyer","type":"address"},{"internalType":"uint256","name":"bidCounter","type":"uint256"}],"stateMutability":"view","type":"function"},{"inputs":[],"name":"weth","outputs":[{"internalType":"contract IERC20","name":"","type":"address"}],"stateMutability":"view","type":"function"}],"bytecode":"60c060405234801561001057600080fd5b5060405161139138038061139183398101604081905261002f91610060565b6001600081905580546001600160a01b0319166001600160a01b03929092169190911790553360805260a05261009d565b6000806040838503121561007357600080fd5b825160208401519092506001600160a01b038116811461009257600080fd5b809150509250929050565b60805160a0516112ac6100e56000396000818161016e015281816103cb01528181610e670152610f4a015260008181610147015281816104a20152610f2401526112ac6000f3fe608060405234801561001057600080fd5b50600436106100a95760003560e01c806365e17c9d1161007157806365e17c9d146101425780637fd6f15c14610169578063a9b07c261461019e578063b9a2de3a146101a7578063d370ddc2146101ba578063de74e57b146101da57600080fd5b80631c513227146100ae578063305a67a8146100f45780633fc8cef31461010957806352b68b511461011c578063598647f81461012f575b600080fd5b6100d76100bc3660046110a4565b6004602052600090815260409020546001600160a01b031681565b6040516001600160a01b0390911681526020015b60405180910390f35b6101076101023660046110a4565b6102a2565b005b6001546100d7906001600160a01b031681565b61010761012a3660046110bd565b6105e5565b61010761013d366004611116565b610908565b6100d77f000000000000000000000000000000000000000000000000000000000000000081565b6101907f000000000000000000000000000000000000000000000000000000000000000081565b6040519081526020016100eb565b61019060025481565b6101076101b53660046110a4565b610bf4565b6101906101c83660046110a4565b60056020526000908152604090205481565b6102496101e83660046110a4565b6003602081905260009182526040909120805460018201546002830154938301546004840154600585015460068601546007870154600888015460099098015496989597959694956001600160a01b0394851695938516949293919216908a565b604080519a8b5260208b01999099529789019690965260608801949094526001600160a01b03928316608088015290821660a087015260c086015260e085019190915216610100830152610120820152610140016100eb565b600260005414156102ce5760405162461bcd60e51b81526004016102c590611138565b60405180910390fd5b60026000818155828152600360208181526040928390208351610140810185528154815260018083015493820193909352948101549385019390935290820154606084015260048201546001600160a01b0390811660808501526005830154811660a08501819052600684015460c08601819052600785015460e08701526008850154909216610100860152600990930154610120850152148061037657508160c001516003145b6103c25760405162461bcd60e51b815260206004820152601860248201527f416374696f6e206973206e6f7420617574686f72697a6564000000000000000060448201526064016102c5565b60006103ef60647f0000000000000000000000000000000000000000000000000000000000000000611185565b83606001516103fe91906111a7565b60015460405163095ea7b360e01b8152306004820152602481018390529192506001600160a01b03169063095ea7b3906044016020604051808303816000875af1158015610450573d6000803e3d6000fd5b505050506040513d601f19601f8201168201806040525081019061047491906111c6565b5060015460808401516040516323b872dd60e01b81526001600160a01b03909216916323b872dd916104cc917f00000000000000000000000000000000000000000000000000000000000000009086906004016111ef565b6020604051808303816000875af11580156104eb573d6000803e3d6000fd5b505050506040513d601f19601f8201168201806040525081019061050f91906111c6565b6105665760405162461bcd60e51b815260206004820152602260248201527f4e6f7420656e6f7567682066756e647320746f2063616e63656c206c697374696044820152616e6760f01b60648201526084016102c5565b60808301516020840151604051632142170760e11b81526001600160a01b038516926342842e0e9261059e92309291906004016111ef565b600060405180830381600087803b1580156105b857600080fd5b505af11580156105cc573d6000803e3d6000fd5b5050600260c09095019490945250506001600055505050565b600260005414156106085760405162461bcd60e51b81526004016102c590611138565b60026000558385101561066f5760405162461bcd60e51b815260206004820152602960248201527f53746172742070726963652063616e6e6f7420626520686967686572207468616044820152686e207265736572766560b81b60648201526084016102c5565b60018310156106ce5760405162461bcd60e51b815260206004820152602560248201527f41756374696f6e206c656e677468206d757374206265206174206c6561737420604482015264312064617960d81b60648201526084016102c5565b600280549060006106de83611213565b909155505060405163a22cb46560e01b8152306004820152600160248201526001600160a01b0382169063a22cb46590604401600060405180830381600087803b15801561072b57600080fd5b505af115801561073f573d6000803e3d6000fd5b5050604051632142170760e11b81526001600160a01b03841692506342842e0e9150610773903390309087906004016111ef565b600060405180830381600087803b15801561078d57600080fd5b505af11580156107a1573d6000803e3d6000fd5b50505050604051806101400160405280600254815260200183815260200186662386f26fc100006107d291906111a7565b81526020016107e886662386f26fc100006111a7565b81523360208201526001600160a01b03831660408201526001606082015260800161081685620151806111a7565b610820904261122e565b8152600060208083018290526040928301829052600280548352600380835284842086518155928601516001840155858501518383015560608601519083015560808501516004830180546001600160a01b039283166001600160a01b03199182161790915560a087015160058501805491841691831691909117905560c0870151600685015560e08701516007850155610100870151600885018054919093169116179055610120909401516009909101559154905133927ff4e4cd593fa99cef6b200fb8c03ceac5984743e70e112f4a2f035e79af3c0c5991a350506001600055505050565b6002600054141561092b5760405162461bcd60e51b81526004016102c590611138565b6002600090815561094382662386f26fc100006111a7565b6000848152600360208190526040918290209081015460015492516370a0823160e01b8152336004820152939450909290916001600160a01b0316906370a0823190602401602060405180830381865afa1580156109a5573d6000803e3d6000fd5b505050506040513d601f19601f820116820180604052508101906109c99190611246565b11610a2b5760405162461bcd60e51b815260206004820152602c60248201527f596f7520646f6e2774206861766520656e6f7567682045544820746f20636f7660448201526b65722074686973206269642160a01b60648201526084016102c5565b80600301548211610a945760405162461bcd60e51b815260206004820152602d60248201527f426964206d757374206265206d6f7265207468616e207468652063757272656e60448201526c742070726963652c206475682160981b60648201526084016102c5565b8060060154600114610af25760405162461bcd60e51b815260206004820152602160248201527f54686973206974656d206973206e6f74206f70656e20666f722062696464696e6044820152606760f81b60648201526084016102c5565b6008810180546001600160a01b0319163317905560015460405163095ea7b360e01b8152306004820152602481018490526001600160a01b039091169063095ea7b3906044016020604051808303816000875af1158015610b57573d6000803e3d6000fd5b505050506040513d601f19601f82011682018060405250810190610b7b91906111c6565b5060038101829055600981018054906000610b9583611213565b9091555050600881015460048201546040518481526001600160a01b03928316929091169086907f4e5c6b65c5dafd32948148161de854b22fdec6140eb03adda94f0e76dd2104de9060200160405180910390a4505060016000555050565b60026000541415610c175760405162461bcd60e51b81526004016102c590611138565b6002600081815582815260036020818152604092839020835161014081018552815481526001820154928101929092529384015492810192909252820154606082015260048201546001600160a01b0390811660808301526005830154811660a08301819052600684015460c0840152600784015460e08401526008840154909116610100830181905260099093015461012083015290913314610cf55760405162461bcd60e51b81526020600482015260156024820152741058dd1a5bdb881b9bdd08185d5d1a1bdc9a5e9959605a1b60448201526064016102c5565b8160e001514211610d485760405162461bcd60e51b815260206004820152601860248201527f41756374696f6e206973207374696c6c2072756e6e696e67000000000000000060448201526064016102c5565b60608201516001546101008401516040516370a0823160e01b81526001600160a01b0391821660048201529116906370a0823190602401602060405180830381865afa158015610d9c573d6000803e3d6000fd5b505050506040513d601f19601f82011682018060405250810190610dc09190611246565b1015610e3f5760405162461bcd60e51b815260206004820152604260248201527f427579657220646f6573206e6f7420774554482062616c616e636520746f206360448201527f6f766572207468652073616c652070726963652c2073616c6520726576657274606482015261195960f21b608482015260a4016102c5565b60015461010083015160808401516001600160a01b03909216916323b872dd9190610e8b60647f0000000000000000000000000000000000000000000000000000000000000000611185565b610e9690600161125f565b8660600151610ea591906111a7565b6040518463ffffffff1660e01b8152600401610ec3939291906111ef565b6020604051808303816000875af1158015610ee2573d6000803e3d6000fd5b505050506040513d601f19601f82011682018060405250810190610f0691906111c6565b506001546101008301516001600160a01b03909116906323b872dd907f0000000000000000000000000000000000000000000000000000000000000000610f6e60647f0000000000000000000000000000000000000000000000000000000000000000611185565b8660600151610f7d91906111a7565b6040518463ffffffff1660e01b8152600401610f9b939291906111ef565b6020604051808303816000875af1158015610fba573d6000803e3d6000fd5b505050506040513d601f19601f82011682018060405250810190610fde91906111c6565b506101008201516020830151604051632142170760e11b81526001600160a01b038416926342842e0e9261101892309291906004016111ef565b600060405180830381600087803b15801561103257600080fd5b505af1158015611046573d6000803e3d6000fd5b5050600260c0850152505081516080830151604080516001600160a01b0390921680835260208301527f6aad6465f8fcd0a392d97bc972091a7788b15336d4b99794af4db92c796597ef910160405180910390a25050600160005550565b6000602082840312156110b657600080fd5b5035919050565b600080600080600060a086880312156110d557600080fd5b8535945060208601359350604086013592506060860135915060808601356001600160a01b038116811461110857600080fd5b809150509295509295909350565b6000806040838503121561112957600080fd5b50508035926020909101359150565b6020808252601f908201527f5265656e7472616e637947756172643a207265656e7472616e742063616c6c00604082015260600190565b634e487b7160e01b600052601160045260246000fd5b6000826111a257634e487b7160e01b600052601260045260246000fd5b500490565b60008160001904831182151516156111c1576111c161116f565b500290565b6000602082840312156111d857600080fd5b815180151581146111e857600080fd5b9392505050565b6001600160a01b039384168152919092166020820152604081019190915260600190565b60006000198214156112275761122761116f565b5060010190565b600082198211156112415761124161116f565b500190565b60006020828403121561125857600080fd5b5051919050565b6000828210156112715761127161116f565b50039056fea26469706673582212200ab3bb65817382fcdc2bb41cda44c50565ae1b3fa1016f47201c2b9ca9669cca64736f6c634300080c0033","bytecodeSha1":"6408e35d2dee587d2366be7f149869d2863f146a","compiler":{"evm_version":"istanbul","optimizer":{"enabled":true,"runs":200},"version":"0.8.12+commit.f00d7308"},"contractName":"Marketplace","language":"Solidity","natspec":{"kind":"dev","methods":{},"version":1},"opcodes":"PUSH1 0x80 PUSH1 0x40 MSTORE CALLVALUE DUP1 ISZERO PUSH2 0x10 JUMPI PUSH1 0x0 DUP1 REVERT JUMPDEST POP PUSH1 0x4 CALLDATASIZE LT PUSH2 0xA9 JUMPI PUSH1 0x0 CALLDATALOAD PUSH1 0xE0 SHR DUP1 PUSH4 0x65E17C9D GT PUSH2 0x71 JUMPI DUP1 PUSH4 0x65E17C9D EQ PUSH2 0x142 JUMPI DUP1 PUSH4 0x7FD6F15C EQ PUSH2 0x169 JUMPI DUP1 PUSH4 0xA9B07C26 EQ PUSH2 0x19E JUMPI DUP1 PUSH4 0xB9A2DE3A EQ PUSH2 0x1A7 JUMPI DUP1 PUSH4 0xD370DDC2 EQ PUSH2 0x1BA JUMPI DUP1 PUSH4 0xDE74E57B EQ PUSH2 0x1DA JUMPI PUSH1 0x0 DUP1 REVERT JUMPDEST DUP1 PUSH4 0x1C513227 EQ PUSH2 0xAE JUMPI DUP1 PUSH4 0x305A67A8 EQ PUSH2 0xF4 JUMPI DUP1 PUSH4 0x3FC8CEF3 EQ PUSH2 0x109 JUMPI DUP1 PUSH4 0x52B68B51 EQ PUSH2 0x11C JUMPI DUP1 PUSH4 0x598647F8 EQ PUSH2 0x12F JUMPI JUMPDEST PUSH1 0x0 DUP1 REVERT JUMPDEST PUSH2 0xD7 PUSH2 0xBC CALLDATASIZE PUSH1 0x4 PUSH2 0x10A4 JUMP JUMPDEST PUSH1 0x4 PUSH1 0x20 MSTORE PUSH1 0x0 SWAP1 DUP2 MSTORE PUSH1 0x40 SWAP1 KECCAK256 SLOAD PUSH1 0x1 PUSH1 0x1 PUSH1 0xA0 SHL SUB AND DUP2 JUMP JUMPDEST PUSH1 0x40 MLOAD PUSH1 0x1 PUSH1 0x1 PUSH1 0xA0 SHL SUB SWAP1 SWAP2 AND DUP2 MSTORE PUSH1 0x20 ADD JUMPDEST PUSH1 0x40 MLOAD DUP1 SWAP2 SUB SWAP1 RETURN JUMPDEST PUSH2 0x107 PUSH2 0x102 CALLDATASIZE PUSH1 0x4 PUSH2 0x10A4 JUMP JUMPDEST PUSH2 0x2A2 JUMP JUMPDEST STOP JUMPDEST PUSH1 0x1 SLOAD PUSH2 0xD7 SWAP1 PUSH1 0x1 PUSH1 0x1 PUSH1 0xA0 SHL SUB AND DUP2 JUMP JUMPDEST PUSH2 0x107 PUSH2 0x12A CALLDATASIZE PUSH1 0x4 PUSH2 0x10BD JUMP JUMPDEST PUSH2 0x5E5 JUMP JUMPDEST PUSH2 0x107 PUSH2 0x13D CALLDATASIZE PUSH1 0x4 PUSH2 0x1116 JUMP JUMPDEST PUSH2 0x908 JUMP JUMPDEST PUSH2 0xD7 PUSH32 0x0 DUP2 JUMP JUMPDEST PUSH2 0x190 PUSH32 0x0 DUP2 JUMP JUMPDEST PUSH1 0x40 MLOAD SWAP1 DUP2 MSTORE PUSH1 0x20 ADD PUSH2 0xEB JUMP JUMPDEST PUSH2 0x190 PUSH1 0x2 SLOAD DUP2 JUMP JUMPDEST PUSH2 0x107 PUSH2 0x1B5 CALLDATASIZE PUSH1 0x4 PUSH2 0x10A4 JUMP JUMPDEST PUSH2 0xBF4 JUMP JUMPDEST PUSH2 0x190 PUSH2 0x1C8 CALLDATASIZE PUSH1 0x4 PUSH2 0x10A4 JUMP JUMPDEST PUSH1 0x5 PUSH1 0x20 MSTORE PUSH1 0x0 SWAP1 DUP2 MSTORE PUSH1 0x40 SWAP1 KECCAK256 SLOAD DUP2 JUMP JUMPDEST PUSH2 0x249 PUSH2 0x1E8 CALLDATASIZE PUSH1 0x4 PUSH2 0x10A4 JUMP JUMPDEST PUSH1 0x3 PUSH1 0x20 DUP2 SWAP1 MSTORE PUSH1 0x0 SWAP2 DUP3 MSTORE PUSH1 0x40 SWAP1 SWAP2 KECCAK256 DUP1 SLOAD PUSH1 0x1 DUP3 ADD SLOAD PUSH1 0x2 DUP4 ADD SLOAD SWAP4 DUP4 ADD SLOAD PUSH1 0x4 DUP5 ADD SLOAD PUSH1 0x5 DUP6 ADD SLOAD PUSH1 0x6 DUP7 ADD SLOAD PUSH1 0x7 DUP8 ADD SLOAD PUSH1 0x8 DUP9 ADD SLOAD PUSH1 0x9 SWAP1 SWAP9 ADD SLOAD SWAP7 SWAP9 SWAP6 SWAP8 SWAP6 SWAP7 SWAP5 SWAP6 PUSH1 0x1 PUSH1 0x1 PUSH1 0xA0 SHL SUB SWAP5 DUP6 AND SWAP6 SWAP4 DUP6 AND SWAP5 SWAP3 SWAP4 SWAP2 SWAP3 AND SWAP1 DUP11 JUMP JUMPDEST PUSH1 0x40 DUP1 MLOAD SWAP11 DUP12 MSTORE PUSH1 0x20 DUP12 ADD SWAP10 SWAP1 SWAP10 MSTORE SWAP8 DUP10 ADD SWAP7 SWAP1 SWAP7 MSTORE PUSH1 0x60 DUP9 ADD SWAP5 SWAP1 SWAP5 MSTORE PUSH1 0x1 PUSH1 0x1 PUSH1 0xA0 SHL SUB SWAP3 DUP4 AND PUSH1 0x80 DUP9 ADD MSTORE SWAP1 DUP3 AND PUSH1 0xA0 DUP8 ADD MSTORE PUSH1 0xC0 DUP7 ADD MSTORE PUSH1 0xE0 DUP6 ADD SWAP2 SWAP1 SWAP2 MSTORE AND PUSH2 0x100 DUP4 ADD MSTORE PUSH2 0x120 DUP3 ADD MSTORE PUSH2 0x140 ADD PUSH2 0xEB JUMP JUMPDEST PUSH1 0x2 PUSH1 0x0 SLOAD EQ ISZERO PUSH2 0x2CE JUMPI PUSH1 0x40 MLOAD PUSH3 0x461BCD PUSH1 0xE5 SHL DUP2 MSTORE PUSH1 0x4 ADD PUSH2 0x2C5 SWAP1 PUSH2 0x1138 JUMP JUMPDEST PUSH1 0x40 MLOAD DUP1 SWAP2 SUB SWAP1 REVERT JUMPDEST PUSH1 0x2 PUSH1 0x0 DUP2 DUP2 SSTORE DUP3 DUP2 MSTORE PUSH1 0x3 PUSH1 0x20 DUP2 DUP2 MSTORE PUSH1 0x40 SWAP3 DUP4 SWAP1 KECCAK256 DUP4 MLOAD PUSH2 0x140 DUP2 ADD DUP6 MSTORE DUP2 SLOAD DUP2 MSTORE PUSH1 0x1 DUP1 DUP4 ADD SLOAD SWAP4 DUP3 ADD SWAP4 SWAP1 SWAP4 MSTORE SWAP5 DUP2 ADD SLOAD SWAP4 DUP6 ADD SWAP4 SWAP1 SWAP4 MSTORE SWAP1 DUP3 ADD SLOAD PUSH1 0x60 DUP5 ADD MSTORE PUSH1 0x4 DUP3 ADD SLOAD PUSH1 0x1 PUSH1 0x1 PUSH1 0xA0 SHL SUB SWAP1 DUP2 AND PUSH1 0x80 DUP6 ADD MSTORE PUSH1 0x5 DUP4 ADD SLOAD DUP2 AND PUSH1 0xA0 DUP6 ADD DUP2 SWAP1 MSTORE PUSH1 0x6 DUP5 ADD SLOAD PUSH1 0xC0 DUP7 ADD DUP2 SWAP1 MSTORE PUSH1 0x7 DUP6 ADD SLOAD PUSH1 0xE0 DUP8 ADD MSTORE PUSH1 0x8 DUP6 ADD SLOAD SWAP1 SWAP3 AND PUSH2 0x100 DUP7 ADD MSTORE PUSH1 0x9 SWAP1 SWAP4 ADD SLOAD PUSH2 0x120 DUP6 ADD MSTORE EQ DUP1 PUSH2 0x376 JUMPI POP DUP2 PUSH1 0xC0 ADD MLOAD PUSH1 0x3 EQ JUMPDEST PUSH2 0x3C2 JUMPI PUSH1 0x40 MLOAD PUSH3 0x461BCD PUSH1 0xE5 SHL DUP2 MSTORE PUSH1 0x20 PUSH1 0x4 DUP3 ADD MSTORE PUSH1 0x18 PUSH1 0x24 DUP3 ADD MSTORE PUSH32 0x416374696F6E206973206E6F7420617574686F72697A65640000000000000000 PUSH1 0x44 DUP3 ADD MSTORE PUSH1 0x64 ADD PUSH2 0x2C5 JUMP JUMPDEST PUSH1 0x0 PUSH2 0x3EF PUSH1 0x64 PUSH32 0x0 PUSH2 0x1185 JUMP JUMPDEST DUP4 PUSH1 0x60 ADD MLOAD PUSH2 0x3FE SWAP2 SWAP1 PUSH2 0x11A7 JUMP JUMPDEST PUSH1 0x1 SLOAD PUSH1 0x40 MLOAD PUSH4 0x95EA7B3 PUSH1 0xE0 SHL DUP2 MSTORE ADDRESS PUSH1 0x4 DUP3 ADD MSTORE PUSH1 0x24 DUP2 ADD DUP4 SWAP1 MSTORE SWAP2 SWAP3 POP PUSH1 0x1 PUSH1 0x1 PUSH1 0xA0 SHL SUB AND SWAP1 PUSH4 0x95EA7B3 SWAP1 PUSH1 0x44 ADD PUSH1 0x20 PUSH1 0x40 MLOAD DUP1 DUP4 SUB DUP2 PUSH1 0x0 DUP8 GAS CALL ISZERO DUP1 ISZERO PUSH2 0x450 JUMPI RETURNDATASIZE PUSH1 0x0 DUP1 RETURNDATACOPY RETURNDATASIZE PUSH1 0x0 REVERT JUMPDEST POP POP POP POP PUSH1 0x40 MLOAD RETURNDATASIZE PUSH1 0x1F NOT PUSH1 0x1F DUP3 ADD AND DUP3 ADD DUP1 PUSH1 0x40 MSTORE POP DUP2 ADD SWAP1 PUSH2 0x474 SWAP2 SWAP1 PUSH2 0x11C6 JUMP JUMPDEST POP PUSH1 0x1 SLOAD PUSH1 0x80 DUP5 ADD MLOAD PUSH1 0x40 MLOAD PUSH4 0x23B872DD PUSH1 0xE0 SHL DUP2 MSTORE PUSH1 0x1 PUSH1 0x1 PUSH1 0xA0 SHL SUB SWAP1 SWAP3 AND SWAP2 PUSH4 0x23B872DD SWAP2 PUSH2 0x4CC SWAP2 PUSH32 0x0 SWAP1 DUP7 SWAP1 PUSH1 0x4 ADD PUSH2 0x11EF JUMP JUMPDEST PUSH1 0x20 PUSH1 0x40 MLOAD DUP1 DUP4 SUB DUP2 PUSH1 0x0 DUP8 GAS CALL ISZERO DUP1 ISZERO PUSH2 0x4EB JUMPI RETURNDATASIZE PUSH1 0x0 DUP1 RETURNDATACOPY RETURNDATASIZE PUSH1 0x0 REVERT JUMPDEST POP POP POP POP PUSH1 0x40 MLOAD RETURNDATASIZE PUSH1 0x1F NOT PUSH1 0x1F DUP3 ADD AND DUP3 ADD DUP1 PUSH1 0x40 MSTORE POP DUP2 ADD SWAP1 PUSH2 0x50F SWAP2 SWAP1 PUSH2 0x11C6 JUMP JUMPDEST PUSH2 0x566 JUMPI PUSH1 0x40 MLOAD PUSH3 0x461BCD PUSH1 0xE5 SHL DUP2 MSTORE PUSH1 0x20 PUSH1 0x4 DUP3 ADD MSTORE PUSH1 0x22 PUSH1 0x24 DUP3 ADD MSTORE PUSH32 0x4E6F7420656E6F7567682066756E647320746F2063616E63656C206C69737469 PUSH1 0x44 DUP3 ADD MSTORE PUSH2 0x6E67 PUSH1 0xF0 SHL PUSH1 0x64 DUP3 ADD MSTORE PUSH1 0x84 ADD PUSH2 0x2C5 JUMP JUMPDEST PUSH1 0x80 DUP4 ADD MLOAD PUSH1 0x20 DUP5 ADD MLOAD PUSH1 0x40 MLOAD PUSH4 0x21421707 PUSH1 0xE1 SHL DUP2 MSTORE PUSH1 0x1 PUSH1 0x1 PUSH1 0xA0 SHL SUB DUP6 AND SWAP3 PUSH4 0x42842E0E SWAP3 PUSH2 0x59E SWAP3 ADDRESS SWAP3 SWAP2 SWAP1 PUSH1 0x4 ADD PUSH2 0x11EF JUMP JUMPDEST PUSH1 0x0 PUSH1 0x40 MLOAD DUP1 DUP4 SUB DUP2 PUSH1 0x0 DUP8 DUP1 EXTCODESIZE ISZERO DUP1 ISZERO PUSH2 0x5B8 JUMPI PUSH1 0x0 DUP1 REVERT JUMPDEST POP GAS CALL ISZERO DUP1 ISZERO PUSH2 0x5CC JUMPI RETURNDATASIZE PUSH1 0x0 DUP1 RETURNDATACOPY RETURNDATASIZE PUSH1 0x0 REVERT JUMPDEST POP POP PUSH1 0x2 PUSH1 0xC0 SWAP1 SWAP6 ADD SWAP5 SWAP1 SWAP5 MSTORE POP POP PUSH1 0x1 PUSH1 0x0 SSTORE POP POP POP JUMP JUMPDEST PUSH1 0x2 PUSH1 0x0 SLOAD EQ ISZERO PUSH2 0x608 JUMPI PUSH1 0x40 MLOAD PUSH3 0x461BCD PUSH1 0xE5 SHL DUP2 MSTORE PUSH1 0x4 ADD PUSH2 0x2C5 SWAP1 PUSH2 0x1138 JUMP JUMPDEST PUSH1 0x2 PUSH1 0x0 SSTORE DUP4 DUP6 LT ISZERO PUSH2 0x66F JUMPI PUSH1 0x40 MLOAD PUSH3 0x461BCD PUSH1 0xE5 SHL DUP2 MSTORE PUSH1 0x20 PUSH1 0x4 DUP3 ADD MSTORE PUSH1 0x29 PUSH1 0x24 DUP3 ADD MSTORE PUSH32 0x53746172742070726963652063616E6E6F742062652068696768657220746861 PUSH1 0x44 DUP3 ADD MSTORE PUSH9 0x6E2072657365727665 PUSH1 0xB8 SHL PUSH1 0x64 DUP3 ADD MSTORE PUSH1 0x84 ADD PUSH2 0x2C5 JUMP JUMPDEST PUSH1 0x1 DUP4 LT ISZERO PUSH2 0x6CE JUMPI PUSH1 0x40 MLOAD PUSH3 0x461BCD PUSH1 0xE5 SHL DUP2 MSTORE PUSH1 0x20 PUSH1 0x4 DUP3 ADD MSTORE PUSH1 0x25 PUSH1 0x24 DUP3 ADD MSTORE PUSH32 0x41756374696F6E206C656E677468206D757374206265206174206C6561737420 PUSH1 0x44 DUP3 ADD MSTORE PUSH5 0x3120646179 PUSH1 0xD8 SHL PUSH1 0x64 DUP3 ADD MSTORE PUSH1 0x84 ADD PUSH2 0x2C5 JUMP JUMPDEST PUSH1 0x2 DUP1 SLOAD SWAP1 PUSH1 0x0 PUSH2 0x6DE DUP4 PUSH2 0x1213 JUMP JUMPDEST SWAP1 SWAP2 SSTORE POP POP PUSH1 0x40 MLOAD PUSH4 0xA22CB465 PUSH1 0xE0 SHL DUP2 MSTORE ADDRESS PUSH1 0x4 DUP3 ADD MSTORE PUSH1 0x1 PUSH1 0x24 DUP3 ADD MSTORE PUSH1 0x1 PUSH1 0x1 PUSH1 0xA0 SHL SUB DUP3 AND SWAP1 PUSH4 0xA22CB465 SWAP1 PUSH1 0x44 ADD PUSH1 0x0 PUSH1 0x40 MLOAD DUP1 DUP4 SUB DUP2 PUSH1 0x0 DUP8 DUP1 EXTCODESIZE ISZERO DUP1 ISZERO PUSH2 0x72B JUMPI PUSH1 0x0 DUP1 REVERT JUMPDEST POP GAS CALL ISZERO DUP1 ISZERO PUSH2 0x73F JUMPI RETURNDATASIZE PUSH1 0x0 DUP1 RETURNDATACOPY RETURNDATASIZE PUSH1 0x0 REVERT JUMPDEST POP POP PUSH1 0x40 MLOAD PUSH4 0x21421707 PUSH1 0xE1 SHL DUP2 MSTORE PUSH1 0x1 PUSH1 0x1 PUSH1 0xA0 SHL SUB DUP5 AND SWAP3 POP PUSH4 0x42842E0E SWAP2 POP PUSH2 0x773 SWAP1 CALLER SWAP1 ADDRESS SWAP1 DUP8 SWAP1 PUSH1 0x4 ADD PUSH2 0x11EF JUMP JUMPDEST PUSH1 0x0 PUSH1 0x40 MLOAD DUP1 DUP4 SUB DUP2 PUSH1 0x0 DUP8 DUP1 EXTCODESIZE ISZERO DUP1 ISZERO PUSH2 0x78D JUMPI PUSH1 0x0 DUP1 REVERT JUMPDEST POP GAS CALL ISZERO DUP1 ISZERO PUSH2 0x7A1 JUMPI RETURNDATASIZE PUSH1 0x0 DUP1 RETURNDATACOPY RETURNDATASIZE PUSH1 0x0 REVERT JUMPDEST POP POP POP POP PUSH1 0x40 MLOAD DUP1 PUSH2 0x140 ADD PUSH1 0x40 MSTORE DUP1 PUSH1 0x2 SLOAD DUP2 MSTORE PUSH1 0x20 ADD DUP4 DUP2 MSTORE PUSH1 0x20 ADD DUP7 PUSH7 0x2386F26FC10000 PUSH2 0x7D2 SWAP2 SWAP1 PUSH2 0x11A7 JUMP JUMPDEST DUP2 MSTORE PUSH1 0x20 ADD PUSH2 0x7E8 DUP7 PUSH7 0x2386F26FC10000 PUSH2 0x11A7 JUMP JUMPDEST DUP2 MSTORE CALLER PUSH1 0x20 DUP3 ADD MSTORE PUSH1 0x1 PUSH1 0x1 PUSH1 0xA0 SHL SUB DUP4 AND PUSH1 0x40 DUP3 ADD MSTORE PUSH1 0x1 PUSH1 0x60 DUP3 ADD MSTORE PUSH1 0x80 ADD PUSH2 0x816 DUP6 PUSH3 0x15180 PUSH2 0x11A7 JUMP JUMPDEST PUSH2 0x820 SWAP1 TIMESTAMP PUSH2 0x122E JUMP JUMPDEST DUP2 MSTORE PUSH1 0x0 PUSH1 0x20 DUP1 DUP4 ADD DUP3 SWAP1 MSTORE PUSH1 0x40 SWAP3 DUP4 ADD DUP3 SWAP1 MSTORE PUSH1 0x2 DUP1 SLOAD DUP4 MSTORE PUSH1 0x3 DUP1 DUP4 MSTORE DUP5 DUP5 KECCAK256 DUP7 MLOAD DUP2 SSTORE SWAP3 DUP7 ADD MLOAD PUSH1 0x1 DUP5 ADD SSTORE DUP6 DUP6 ADD MLOAD DUP4 DUP4 ADD SSTORE PUSH1 0x60 DUP7 ADD MLOAD SWAP1 DUP4 ADD SSTORE PUSH1 0x80 DUP6 ADD MLOAD PUSH1 0x4 DUP4 ADD DUP1 SLOAD PUSH1 0x1 PUSH1 0x1 PUSH1 0xA0 SHL SUB SWAP3 DUP4 AND PUSH1 0x1 PUSH1 0x1 PUSH1 0xA0 SHL SUB NOT SWAP2 DUP3 AND OR SWAP1 SWAP2 SSTORE PUSH1 0xA0 DUP8 ADD MLOAD PUSH1 0x5 DUP6 ADD DUP1 SLOAD SWAP2 DUP5 AND SWAP2 DUP4 AND SWAP2 SWAP1 SWAP2 OR SWAP1 SSTORE PUSH1 0xC0 DUP8 ADD MLOAD PUSH1 0x6 DUP6 ADD SSTORE PUSH1 0xE0 DUP8 ADD MLOAD PUSH1 0x7 DUP6 ADD SSTORE PUSH2 0x100 DUP8 ADD MLOAD PUSH1 0x8 DUP6 ADD DUP1 SLOAD SWAP2 SWAP1 SWAP4 AND SWAP2 AND OR SWAP1 SSTORE PUSH2 0x120 SWAP1 SWAP5 ADD MLOAD PUSH1 0x9 SWAP1 SWAP2 ADD SSTORE SWAP2 SLOAD SWAP1 MLOAD CALLER SWAP3 PUSH32 0xF4E4CD593FA99CEF6B200FB8C03CEAC5984743E70E112F4A2F035E79AF3C0C59 SWAP2 LOG3 POP POP PUSH1 0x1 PUSH1 0x0 SSTORE POP POP POP JUMP JUMPDEST PUSH1 0x2 PUSH1 0x0 SLOAD EQ ISZERO PUSH2 0x92B JUMPI PUSH1 0x40 MLOAD PUSH3 0x461BCD PUSH1 0xE5 SHL DUP2 MSTORE PUSH1 0x4 ADD PUSH2 0x2C5 SWAP1 PUSH2 0x1138 JUMP JUMPDEST PUSH1 0x2 PUSH1 0x0 SWAP1 DUP2 SSTORE PUSH2 0x943 DUP3 PUSH7 0x2386F26FC10000 PUSH2 0x11A7 JUMP JUMPDEST PUSH1 0x0 DUP5 DUP2 MSTORE PUSH1 0x3 PUSH1 0x20 DUP2 SWAP1 MSTORE PUSH1 0x40 SWAP2 DUP3 SWAP1 KECCAK256 SWAP1 DUP2 ADD SLOAD PUSH1 0x1 SLOAD SWAP3 MLOAD PUSH4 0x70A08231 PUSH1 0xE0 SHL DUP2 MSTORE CALLER PUSH1 0x4 DUP3 ADD MSTORE SWAP4 SWAP5 POP SWAP1 SWAP3 SWAP1 SWAP2 PUSH1 0x1 PUSH1 0x1 PUSH1 0xA0 SHL SUB AND SWAP1 PUSH4 0x70A08231 SWAP1 PUSH1 0x24 ADD PUSH1 0x20 PUSH1 0x40 MLOAD DUP1 DUP4 SUB DUP2 DUP7 GAS STATICCALL ISZERO DUP1 ISZERO PUSH2 0x9A5 JUMPI RETURNDATASIZE PUSH1 0x0 DUP1 RETURNDATACOPY RETURNDATASIZE PUSH1 0x0 REVERT JUMPDEST POP POP POP POP PUSH1 0x40 MLOAD RETURNDATASIZE PUSH1 0x1F NOT PUSH1 0x1F DUP3 ADD AND DUP3 ADD DUP1 PUSH1 0x40 MSTORE POP DUP2 ADD SWAP1 PUSH2 0x9C9 SWAP2 SWAP1 PUSH2 0x1246 JUMP JUMPDEST GT PUSH2 0xA2B JUMPI PUSH1 0x40 MLOAD PUSH3 0x461BCD PUSH1 0xE5 SHL DUP2 MSTORE PUSH1 0x20 PUSH1 0x4 DUP3 ADD MSTORE PUSH1 0x2C PUSH1 0x24 DUP3 ADD MSTORE PUSH32 0x596F7520646F6E2774206861766520656E6F7567682045544820746F20636F76 PUSH1 0x44 DUP3 ADD MSTORE PUSH12 0x657220746869732062696421 PUSH1 0xA0 SHL PUSH1 0x64 DUP3 ADD MSTORE PUSH1 0x84 ADD PUSH2 0x2C5 JUMP JUMPDEST DUP1 PUSH1 0x3 ADD SLOAD DUP3 GT PUSH2 0xA94 JUMPI PUSH1 0x40 MLOAD PUSH3 0x461BCD PUSH1 0xE5 SHL DUP2 MSTORE PUSH1 0x20 PUSH1 0x4 DUP3 ADD MSTORE PUSH1 0x2D PUSH1 0x24 DUP3 ADD MSTORE PUSH32 0x426964206D757374206265206D6F7265207468616E207468652063757272656E PUSH1 0x44 DUP3 ADD MSTORE PUSH13 0x742070726963652C2064756821 PUSH1 0x98 SHL PUSH1 0x64 DUP3 ADD MSTORE PUSH1 0x84 ADD PUSH2 0x2C5 JUMP JUMPDEST DUP1 PUSH1 0x6 ADD SLOAD PUSH1 0x1 EQ PUSH2 0xAF2 JUMPI PUSH1 0x40 MLOAD PUSH3 0x461BCD PUSH1 0xE5 SHL DUP2 MSTORE PUSH1 0x20 PUSH1 0x4 DUP3 ADD MSTORE PUSH1 0x21 PUSH1 0x24 DUP3 ADD MSTORE PUSH32 0x54686973206974656D206973206E6F74206F70656E20666F722062696464696E PUSH1 0x44 DUP3 ADD MSTORE PUSH1 0x67 PUSH1 0xF8 SHL PUSH1 0x64 DUP3 ADD MSTORE PUSH1 0x84 ADD PUSH2 0x2C5 JUMP JUMPDEST PUSH1 0x8 DUP2 ADD DUP1 SLOAD PUSH1 0x1 PUSH1 0x1 PUSH1 0xA0 SHL SUB NOT AND CALLER OR SWAP1 SSTORE PUSH1 0x1 SLOAD PUSH1 0x40 MLOAD PUSH4 0x95EA7B3 PUSH1 0xE0 SHL DUP2 MSTORE ADDRESS PUSH1 0x4 DUP3 ADD MSTORE PUSH1 0x24 DUP2 ADD DUP5 SWAP1 MSTORE PUSH1 0x1 PUSH1 0x1 PUSH1 0xA0 SHL SUB SWAP1 SWAP2 AND SWAP1 PUSH4 0x95EA7B3 SWAP1 PUSH1 0x44 ADD PUSH1 0x20 PUSH1 0x40 MLOAD DUP1 DUP4 SUB DUP2 PUSH1 0x0 DUP8 GAS CALL ISZERO DUP1 ISZERO PUSH2 0xB57 JUMPI RETURNDATASIZE PUSH1 0x0 DUP1 RETURNDATACOPY RETURNDATASIZE PUSH1 0x0 REVERT JUMPDEST POP POP POP POP PUSH1 0x40 MLOAD RETURNDATASIZE PUSH1 0x1F NOT PUSH1 0x1F DUP3 ADD AND DUP3 ADD DUP1 PUSH1 0x40 MSTORE POP DUP2 ADD SWAP1 PUSH2 0xB7B SWAP2 SWAP1 PUSH2 0x11C6 JUMP JUMPDEST POP PUSH1 0x3 DUP2 ADD DUP3 SWAP1 SSTORE PUSH1 0x9 DUP2 ADD DUP1 SLOAD SWAP1 PUSH1 0x0 PUSH2 0xB95 DUP4 PUSH2 0x1213 JUMP JUMPDEST SWAP1 SWAP2 SSTORE POP POP PUSH1 0x8 DUP2 ADD SLOAD PUSH1 0x4 DUP3 ADD SLOAD PUSH1 0x40 MLOAD DUP5 DUP2 MSTORE PUSH1 0x1 PUSH1 0x1 PUSH1 0xA0 SHL SUB SWAP3 DUP4 AND SWAP3 SWAP1 SWAP2 AND SWAP1 DUP7 SWAP1 PUSH32 0x4E5C6B65C5DAFD32948148161DE854B22FDEC6140EB03ADDA94F0E76DD2104DE SWAP1 PUSH1 0x20 ADD PUSH1 0x40 MLOAD DUP1 SWAP2 SUB SWAP1 LOG4 POP POP PUSH1 0x1 PUSH1 0x0 SSTORE POP POP JUMP JUMPDEST PUSH1 0x2 PUSH1 0x0 SLOAD EQ ISZERO PUSH2 0xC17 JUMPI PUSH1 0x40 MLOAD PUSH3 0x461BCD PUSH1 0xE5 SHL DUP2 MSTORE PUSH1 0x4 ADD PUSH2 0x2C5 SWAP1 PUSH2 0x1138 JUMP JUMPDEST PUSH1 0x2 PUSH1 0x0 DUP2 DUP2 SSTORE DUP3 DUP2 MSTORE PUSH1 0x3 PUSH1 0x20 DUP2 DUP2 MSTORE PUSH1 0x40 SWAP3 DUP4 SWAP1 KECCAK256 DUP4 MLOAD PUSH2 0x140 DUP2 ADD DUP6 MSTORE DUP2 SLOAD DUP2 MSTORE PUSH1 0x1 DUP3 ADD SLOAD SWAP3 DUP2 ADD SWAP3 SWAP1 SWAP3 MSTORE SWAP4 DUP5 ADD SLOAD SWAP3 DUP2 ADD SWAP3 SWAP1 SWAP3 MSTORE DUP3 ADD SLOAD PUSH1 0x60 DUP3 ADD MSTORE PUSH1 0x4 DUP3 ADD SLOAD PUSH1 0x1 PUSH1 0x1 PUSH1 0xA0 SHL SUB SWAP1 DUP2 AND PUSH1 0x80 DUP4 ADD MSTORE PUSH1 0x5 DUP4 ADD SLOAD DUP2 AND PUSH1 0xA0 DUP4 ADD DUP2 SWAP1 MSTORE PUSH1 0x6 DUP5 ADD SLOAD PUSH1 0xC0 DUP5 ADD MSTORE PUSH1 0x7 DUP5 ADD SLOAD PUSH1 0xE0 DUP5 ADD MSTORE PUSH1 0x8 DUP5 ADD SLOAD SWAP1 SWAP2 AND PUSH2 0x100 DUP4 ADD DUP2 SWAP1 MSTORE PUSH1 0x9 SWAP1 SWAP4 ADD SLOAD PUSH2 0x120 DUP4 ADD MSTORE SWAP1 SWAP2 CALLER EQ PUSH2 0xCF5 JUMPI PUSH1 0x40 MLOAD PUSH3 0x461BCD PUSH1 0xE5 SHL DUP2 MSTORE PUSH1 0x20 PUSH1 0x4 DUP3 ADD MSTORE PUSH1 0x15 PUSH1 0x24 DUP3 ADD MSTORE PUSH21 0x1058DD1A5BDB881B9BDD08185D5D1A1BDC9A5E9959 PUSH1 0x5A SHL PUSH1 0x44 DUP3 ADD MSTORE PUSH1 0x64 ADD PUSH2 0x2C5 JUMP JUMPDEST DUP2 PUSH1 0xE0 ADD MLOAD TIMESTAMP GT PUSH2 0xD48 JUMPI PUSH1 0x40 MLOAD PUSH3 0x461BCD PUSH1 0xE5 SHL DUP2 MSTORE PUSH1 0x20 PUSH1 0x4 DUP3 ADD MSTORE PUSH1 0x18 PUSH1 0x24 DUP3 ADD MSTORE PUSH32 0x41756374696F6E206973207374696C6C2072756E6E696E670000000000000000 PUSH1 0x44 DUP3 ADD MSTORE PUSH1 0x64 ADD PUSH2 0x2C5 JUMP JUMPDEST PUSH1 0x60 DUP3 ADD MLOAD PUSH1 0x1 SLOAD PUSH2 0x100 DUP5 ADD MLOAD PUSH1 0x40 MLOAD PUSH4 0x70A08231 PUSH1 0xE0 SHL DUP2 MSTORE PUSH1 0x1 PUSH1 0x1 PUSH1 0xA0 SHL SUB SWAP2 DUP3 AND PUSH1 0x4 DUP3 ADD MSTORE SWAP2 AND SWAP1 PUSH4 0x70A08231 SWAP1 PUSH1 0x24 ADD PUSH1 0x20 PUSH1 0x40 MLOAD DUP1 DUP4 SUB DUP2 DUP7 GAS STATICCALL ISZERO DUP1 ISZERO PUSH2 0xD9C JUMPI RETURNDATASIZE PUSH1 0x0 DUP1 RETURNDATACOPY RETURNDATASIZE PUSH1 0x0 REVERT JUMPDEST POP POP POP POP PUSH1 0x40 MLOAD RETURNDATASIZE PUSH1 0x1F NOT PUSH1 0x1F DUP3 ADD AND DUP3 ADD DUP1 PUSH1 0x40 MSTORE POP DUP2 ADD SWAP1 PUSH2 0xDC0 SWAP2 SWAP1 PUSH2 0x1246 JUMP JUMPDEST LT ISZERO PUSH2 0xE3F JUMPI PUSH1 0x40 MLOAD PUSH3 0x461BCD PUSH1 0xE5 SHL DUP2 MSTORE PUSH1 0x20 PUSH1 0x4 DUP3 ADD MSTORE PUSH1 0x42 PUSH1 0x24 DUP3 ADD MSTORE PUSH32 0x427579657220646F6573206E6F7420774554482062616C616E636520746F2063 PUSH1 0x44 DUP3 ADD MSTORE PUSH32 0x6F766572207468652073616C652070726963652C2073616C6520726576657274 PUSH1 0x64 DUP3 ADD MSTORE PUSH2 0x1959 PUSH1 0xF2 SHL PUSH1 0x84 DUP3 ADD MSTORE PUSH1 0xA4 ADD PUSH2 0x2C5 JUMP JUMPDEST PUSH1 0x1 SLOAD PUSH2 0x100 DUP4 ADD MLOAD PUSH1 0x80 DUP5 ADD MLOAD PUSH1 0x1 PUSH1 0x1 PUSH1 0xA0 SHL SUB SWAP1 SWAP3 AND SWAP2 PUSH4 0x23B872DD SWAP2 SWAP1 PUSH2 0xE8B PUSH1 0x64 PUSH32 0x0 PUSH2 0x1185 JUMP JUMPDEST PUSH2 0xE96 SWAP1 PUSH1 0x1 PUSH2 0x125F JUMP JUMPDEST DUP7 PUSH1 0x60 ADD MLOAD PUSH2 0xEA5 SWAP2 SWAP1 PUSH2 0x11A7 JUMP JUMPDEST PUSH1 0x40 MLOAD DUP5 PUSH4 0xFFFFFFFF AND PUSH1 0xE0 SHL DUP2 MSTORE PUSH1 0x4 ADD PUSH2 0xEC3 SWAP4 SWAP3 SWAP2 SWAP1 PUSH2 0x11EF JUMP JUMPDEST PUSH1 0x20 PUSH1 0x40 MLOAD DUP1 DUP4 SUB DUP2 PUSH1 0x0 DUP8 GAS CALL ISZERO DUP1 ISZERO PUSH2 0xEE2 JUMPI RETURNDATASIZE PUSH1 0x0 DUP1 RETURNDATACOPY RETURNDATASIZE PUSH1 0x0 REVERT JUMPDEST POP POP POP POP PUSH1 0x40 MLOAD RETURNDATASIZE PUSH1 0x1F NOT PUSH1 0x1F DUP3 ADD AND DUP3 ADD DUP1 PUSH1 0x40 MSTORE POP DUP2 ADD SWAP1 PUSH2 0xF06 SWAP2 SWAP1 PUSH2 0x11C6 JUMP JUMPDEST POP PUSH1 0x1 SLOAD PUSH2 0x100 DUP4 ADD MLOAD PUSH1 0x1 PUSH1 0x1 PUSH1 0xA0 SHL SUB SWAP1 SWAP2 AND SWAP1 PUSH4 0x23B872DD SWAP1 PUSH32 0x0 PUSH2 0xF6E PUSH1 0x64 PUSH32 0x0 PUSH2 0x1185 JUMP JUMPDEST DUP7 PUSH1 0x60 ADD MLOAD PUSH2 0xF7D SWAP2 SWAP1 PUSH2 0x11A7 JUMP JUMPDEST PUSH1 0x40 MLOAD DUP5 PUSH4 0xFFFFFFFF AND PUSH1 0xE0 SHL DUP2 MSTORE PUSH1 0x4 ADD PUSH2 0xF9B SWAP4 SWAP3 SWAP2 SWAP1 PUSH2 0x11EF JUMP JUMPDEST PUSH1 0x20 PUSH1 0x40 MLOAD DUP1 DUP4 SUB DUP2 PUSH1 0x0 DUP8 GAS CALL ISZERO DUP1 ISZERO PUSH2 0xFBA JUMPI RETURNDATASIZE PUSH1 0x0 DUP1 RETURNDATACOPY RETURNDATASIZE PUSH1 0x0 REVERT JUMPDEST POP POP POP POP PUSH1 0x40 MLOAD RETURNDATASIZE PUSH1 0x1F NOT PUSH1 0x1F DUP3 ADD AND DUP3 ADD DUP1 PUSH1 0x40 MSTORE POP DUP2 ADD SWAP1 PUSH2 0xFDE SWAP2 SWAP1 PUSH2 0x11C6 JUMP JUMPDEST POP PUSH2 0x100 DUP3 ADD MLOAD PUSH1 0x20 DUP4 ADD MLOAD PUSH1 0x40 MLOAD PUSH4 0x21421707 PUSH1 0xE1 SHL DUP2 MSTORE PUSH1 0x1 PUSH1 0x1 PUSH1 0xA0 SHL SUB DUP5 AND SWAP3 PUSH4 0x42842E0E SWAP3 PUSH2 0x1018 SWAP3 ADDRESS SWAP3 SWAP2 SWAP1 PUSH1 0x4 ADD PUSH2 0x11EF JUMP JUMPDEST PUSH1 0x0 PUSH1 0x40 MLOAD DUP1 DUP4 SUB DUP2 PUSH1 0x0 DUP8 DUP1 EXTCODESIZE ISZERO DUP1 ISZERO PUSH2 0x1032 JUMPI PUSH1 0x0 DUP1 REVERT JUMPDEST POP GAS CALL ISZERO DUP1 ISZERO PUSH2 0x1046 JUMPI RETURNDATASIZE PUSH1 0x0 DUP1 RETURNDATACOPY RETURNDATASIZE PUSH1 0x0 REVERT JUMPDEST POP POP PUSH1 0x2 PUSH1 0xC0 DUP6 ADD MSTORE POP POP DUP2 MLOAD PUSH1 0x80 DUP4 ADD MLOAD PUSH1 0x40 DUP1 MLOAD PUSH1 0x1 PUSH1 0x1 PUSH1 0xA0 SHL SUB SWAP1 SWAP3 AND DUP1 DUP4 MSTORE PUSH1 0x20 DUP4 ADD MSTORE PUSH32 0x6AAD6465F8FCD0A392D97BC972091A7788B15336D4B99794AF4DB92C796597EF SWAP2 ADD PUSH1 0x40 MLOAD DUP1 SWAP2 SUB SWAP1 LOG2 POP POP PUSH1 0x1 PUSH1 0x0 SSTORE POP JUMP JUMPDEST PUSH1 0x0 PUSH1 0x20 DUP3 DUP5 SUB SLT ISZERO PUSH2 0x10B6 JUMPI PUSH1 0x0 DUP1 REVERT JUMPDEST POP CALLDATALOAD SWAP2 SWAP1 POP JUMP JUMPDEST PUSH1 0x0 DUP1 PUSH1 0x0 DUP1 PUSH1 0x0 PUSH1 0xA0 DUP7 DUP9 SUB SLT ISZERO PUSH2 0x10D5 JUMPI PUSH1 0x0 DUP1 REVERT JUMPDEST DUP6 CALLDATALOAD SWAP5 POP PUSH1 0x20 DUP7 ADD CALLDATALOAD SWAP4 POP PUSH1 0x40 DUP7 ADD CALLDATALOAD SWAP3 POP PUSH1 0x60 DUP7 ADD CALLDATALOAD SWAP2 POP PUSH1 0x80 DUP7 ADD CALLDATALOAD PUSH1 0x1 PUSH1 0x1 PUSH1 0xA0 SHL SUB DUP2 AND DUP2 EQ PUSH2 0x1108 JUMPI PUSH1 0x0 DUP1 REVERT JUMPDEST DUP1 SWAP2 POP POP SWAP3 SWAP6 POP SWAP3 SWAP6 SWAP1 SWAP4 POP JUMP JUMPDEST PUSH1 0x0 DUP1 PUSH1 0x40 DUP4 DUP6 SUB SLT ISZERO PUSH2 0x1129 JUMPI PUSH1 0x0 DUP1 REVERT JUMPDEST POP POP DUP1 CALLDATALOAD SWAP3 PUSH1 0x20 SWAP1 SWAP2 ADD CALLDATALOAD SWAP2 POP JUMP JUMPDEST PUSH1 0x20 DUP1 DUP3 MSTORE PUSH1 0x1F SWAP1 DUP3 ADD MSTORE PUSH32 0x5265656E7472616E637947756172643A207265656E7472616E742063616C6C00 PUSH1 0x40 DUP3 ADD MSTORE PUSH1 0x60 ADD SWAP1 JUMP JUMPDEST PUSH4 0x4E487B71 PUSH1 0xE0 SHL PUSH1 0x0 MSTORE PUSH1 0x11 PUSH1 0x4 MSTORE PUSH1 0x24 PUSH1 0x0 REVERT JUMPDEST PUSH1 0x0 DUP3 PUSH2 0x11A2 JUMPI PUSH4 0x4E487B71 PUSH1 0xE0 SHL PUSH1 0x0 MSTORE PUSH1 0x12 PUSH1 0x4 MSTORE PUSH1 0x24 PUSH1 0x0 REVERT JUMPDEST POP DIV SWAP1 JUMP JUMPDEST PUSH1 0x0 DUP2 PUSH1 0x0 NOT DIV DUP4 GT DUP3 ISZERO ISZERO AND ISZERO PUSH2 0x11C1 JUMPI PUSH2 0x11C1 PUSH2 0x116F JUMP JUMPDEST POP MUL SWAP1 JUMP JUMPDEST PUSH1 0x0 PUSH1 0x20 DUP3 DUP5 SUB SLT ISZERO PUSH2 0x11D8 JUMPI PUSH1 0x0 DUP1 REVERT JUMPDEST DUP2 MLOAD DUP1 ISZERO ISZERO DUP2 EQ PUSH2 0x11E8 JUMPI PUSH1 0x0 DUP1 REVERT JUMPDEST SWAP4 SWAP3 POP POP POP JUMP JUMPDEST PUSH1 0x1 PUSH1 0x1 PUSH1 0xA0 SHL SUB SWAP4 DUP5 AND DUP2 MSTORE SWAP2 SWAP1 SWAP3 AND PUSH1 0x20 DUP3 ADD MSTORE PUSH1 0x40 DUP2 ADD SWAP2 SWAP1 SWAP2 MSTORE PUSH1 0x60 ADD SWAP1 JUMP JUMPDEST PUSH1 0x0 PUSH1 0x0 NOT DUP3 EQ ISZERO PUSH2 0x1227 JUMPI PUSH2 0x1227 PUSH2 0x116F JUMP JUMPDEST POP PUSH1 0x1 ADD SWAP1 JUMP JUMPDEST PUSH1 0x0 DUP3 NOT DUP3 GT ISZERO PUSH2 0x1241 JUMPI PUSH2 0x1241 PUSH2 0x116F JUMP JUMPDEST POP ADD SWAP1 JUMP JUMPDEST PUSH1 0x0 PUSH1 0x20 DUP3 DUP5 SUB SLT ISZERO PUSH2 0x1258 JUMPI PUSH1 0x0 DUP1 REVERT JUMPDEST POP MLOAD SWAP2 SWAP1 POP JUMP JUMPDEST PUSH1 0x0 DUP3 DUP3 LT ISZERO PUSH2 0x1271 JUMPI PUSH2 0x1271 PUSH2 0x116F JUMP JUMPDEST POP SUB SWAP1 JUMP INVALID LOG2 PUSH5 0x6970667358 0x22 SLT KECCAK256 EXP 0xB3 0xBB PUSH6 0x817382FCDC2B 0xB4 SHR 0xDA DIFFICULTY 0xC5 SDIV PUSH6 0xAE1B3FA1016F SELFBALANCE KECCAK256 SHR 0x2B SWAP13 0xA9 PUSH7 0x9CCA64736F6C63 NUMBER STOP ADDMOD 0xC STOP CALLER ","sha1":"db8e46efc42118f1679b94f9e508bcc65d927a95","source":"// SPDX-License-Identifier: MIT\npragma solidity ^0.8.0;\n\nimport \"@openzeppelin/contracts/security/ReentrancyGuard.sol\";\nimport \"@openzeppelin/contracts/token/ERC721/IERC721.sol\";\nimport \"@openzeppelin/contracts/token/ERC20/IERC20.sol\";\n\ncontract Marketplace is ReentrancyGuard {\n    IERC20 public weth;\n    address payable public immutable feeAccount;\n    uint256 public immutable feePercent;\n    uint256 public listingCount;\n\n    struct Listing {\n        uint256 listingId;\n        uint256 tokenId;\n        uint256 reservePrice;\n        uint256 currentPrice;\n        address payable seller;\n        IERC721 nft;\n        uint256 auctionState;\n        uint256 closingTime;\n        address payable buyer;\n        uint256 bidCounter;\n    }\n\n    // auctionState legend: 1 = Open, 2 = Closed, 3 = Reverted\n\n    mapping(uint256 => Listing) public listings;\n    mapping(uint256 => IERC721) public listingNFT;\n    mapping(uint256 => uint256) public listingTokenId;\n\n    event Listed(uint256 indexed listingId, address indexed seller);\n\n    event Bid(\n        uint256 indexed listingId,\n        uint256 bidPrice,\n        address indexed seller,\n        address indexed bidder\n    );\n\n    event Bought(\n        uint256 indexed listingId,\n        uint256 salePrice,\n        address indexed seller,\n        address indexed buyer\n    );\n\n    event Closed(uint256 indexed listingId, address seller, address buyer);\n    event Reverted(\n        uint256 listingId,\n        address indexed seller,\n        address indexed buyer\n    );\n\n    constructor(uint256 _feePercent, address _weth) {\n        weth = IERC20(_weth);\n        feeAccount = payable(msg.sender);\n        feePercent = _feePercent;\n    }\n\n    function createListing(\n        uint256 _reservePrice,\n        uint256 _startPrice,\n        uint256 _closingTime,\n        uint256 _tokenId,\n        IERC721 _nft\n    ) external nonReentrant {\n        require(_reservePrice >= 0, \"Invalid reserve price\");\n        require(\n            _reservePrice >= _startPrice,\n            \"Start price cannot be higher than reserve\"\n        );\n        require(_closingTime >= (1), \"Auction length must be at least 1 day\");\n        listingCount++;\n        _nft.setApprovalForAll(address(this), true);\n        _nft.safeTransferFrom(msg.sender, address(this), _tokenId);\n        listings[listingCount] = Listing(\n            listingCount,\n            _tokenId,\n            (_reservePrice * (10**16)),\n            (_startPrice * (10**16)),\n            payable(msg.sender),\n            _nft,\n            1,\n            (block.timestamp + (_closingTime * 1 days)),\n            payable(address(0)),\n            0\n        );\n        emit Listed(listingCount, msg.sender);\n    }\n\n    function bid(uint256 _listingId, uint256 _bidPrice) external nonReentrant {\n        uint256 bidPrice = _bidPrice * (10**16);\n        Listing storage listing = listings[_listingId];\n        require(\n            weth.balanceOf(msg.sender) > listing.currentPrice,\n            \"You don't have enough ETH to cover this bid!\"\n        );\n        require(\n            bidPrice > listing.currentPrice,\n            \"Bid must be more than the current price, duh!\"\n        );\n        require(listing.auctionState == 1, \"This item is not open for bidding\");\n        listing.buyer = payable(msg.sender);\n        weth.approve(address(this), bidPrice);\n        listing.currentPrice = bidPrice;\n        listing.bidCounter++;\n        emit Bid(_listingId, bidPrice, listing.seller, listing.buyer);\n    }\n\n    function endAuction(uint256 _listingId) external nonReentrant {\n        Listing memory listing = listings[_listingId];\n        IERC721 nft = listing.nft;\n        require(msg.sender == listing.buyer, \"Action not authorized\");\n        require(\n            block.timestamp > listing.closingTime,\n            \"Auction is still running\"\n        );\n        if (weth.balanceOf(listing.buyer) < listing.currentPrice) {\n            revert(\n                \"Buyer does not wETH balance to cover the sale price, sale reverted\"\n            );\n            listing.auctionState = 3;\n            emit Reverted(_listingId, listing.seller, listing.buyer);\n        } else {\n            weth.transferFrom(\n                listing.buyer,\n                listing.seller,\n                listing.currentPrice * (1 - (feePercent / 100))\n            );\n            weth.transferFrom(\n                listing.buyer,\n                feeAccount,\n                listing.currentPrice * (feePercent / 100)\n            );\n            nft.safeTransferFrom(address(this), listing.buyer, listing.tokenId);\n            listing.auctionState = 2;\n            emit Closed(listing.listingId, listing.seller, listing.seller);\n        }\n    }\n\n    function cancelListing(uint256 _listingId) external nonReentrant {\n        Listing memory listing = listings[_listingId];\n        IERC721 nft = listing.nft;\n        require(\n            listing.auctionState == 1 || listing.auctionState == 3,\n            \"Action is not authorized\"\n        );\n        uint256 feeAmount = listing.currentPrice * (feePercent / 100);\n        weth.approve(address(this), feeAmount);\n        require(\n            weth.transferFrom(listing.seller, feeAccount, feeAmount),\n            \"Not enough funds to cancel listing\"\n        );\n        nft.safeTransferFrom(address(this), listing.seller, listing.tokenId);\n        listing.auctionState = 2;\n    }\n}\n\n// The code below is for implementation of escrow functionality to be implemented at a later date\n\n// event confirmedEscrow(uint256 indexed listingId, address seller);\n// event WithdrawEscrow(\n//     uint256 indexed listingId,\n//     address seller,\n//     address buyer\n// );\n\n//     function confirmEscrow(uint256 _listingId) external {\n//     Listing memory listing = listings[_listingId];\n//     require(msg.sender == listing.buyer, \"Only buyer can finalize escrow\");\n//     require(listing.auctionState == AUCTION_STATE.PENDING);\n//     require(\n//         block.timestamp < listing.escrowClosingTime,\n//         \"Escrow has expired, the sale will be reversed\"\n//     );\n//     listing.seller.transfer(\n//         listing.currentPrice * (1 - (100 - feePercent / 100))\n//     );\n//     weth.transferFrom(\n//         address(this),\n//         feeAccount,\n//         listing.currentPrice * (feePercent / 100)\n//     );\n//     listing.nft.safeTransferFrom(\n//         address(this),\n//         listing.buyer,\n//         listing.tokenId\n//     );\n//     listing.auctionState = AUCTION_STATE.FINALIZED;\n//     emit confirmedEscrow(_listingId, listing.seller);\n// }\n\n// function withdrawEscrow(uint256 _listingId) external {\n//     Listing memory listing = listings[_listingId];\n//     require(\n//         msg.sender == listing.buyer,\n//         \"Only buyer can withdraw from escrow\"\n//     );\n//     require(listing.auctionState == AUCTION_STATE.PENDING);\n//     require(\n//         block.timestamp > listing.escrowClosingTime,\n//         \"The escrow time has not expired yet\"\n//     );\n//     weth.transferFrom(\n//         address(this),\n//         listing.buyer,\n//         listing.currentPrice * (100 - feePercent)\n//     );\n//     listing.nft.safeTransferFrom(\n//         address(this),\n//         listing.seller,\n//         listing.tokenId\n//     );\n//     listing.auctionState = AUCTION_STATE.FINALIZED;\n//     emit WithdrawEscrow(_listingId, listing.seller, listing.buyer);\n// }\n\n// if (!listing.escrow) {\n//     listing.auctionState == AUCTION_STATE.FINALIZED;\n//     weth.transferFrom(\n//         listing.buyer,\n//         listing.seller,\n//         listing.currentPrice * (1 - feePercent)\n//     );\n//     weth.transferFrom(\n//         listing.buyer,\n//         feeAccount,\n//         listing.currentPrice * feePercent\n//     );\n//     listing.nft.safeTransferFrom(\n//         address(this),\n//         listing.buyer,\n//         listing.tokenId\n//     );\n//     emit Bought(\n//         _listingId,\n//         listing.currentPrice,\n//         listing.seller,\n//         listing.buyer\n//     );\n// } else {\n//     weth.transferFrom(\n//         listing.buyer,\n//         address(this),\n//         listing.currentPrice\n//     );\n//     listing.auctionState == AUCTION_STATE.PENDING;\n","sourcePath":"contracts/Marketplace.sol","type":"contract","deployment":{"address":"0xa75FF91d932c35a339DC9c7ee7785cD21de4cbdB","chainid":"4","blockHeight":10498208}}