{"abi":[{"inputs":[{"internalType":"uint256","name":"_feePercent","type":"uint256"},{"internalType":"address","name":"_weth","type":"address"}],"stateMutability":"nonpayable","type":"constructor","name":"constructor"},{"anonymous":false,"inputs":[{"indexed":true,"internalType":"uint256","name":"listingId","type":"uint256"},{"indexed":false,"internalType":"uint256","name":"bidPrice","type":"uint256"},{"indexed":true,"internalType":"address","name":"seller","type":"address"},{"indexed":true,"internalType":"address","name":"bidder","type":"address"}],"name":"Bid","type":"event"},{"anonymous":false,"inputs":[{"indexed":true,"internalType":"uint256","name":"listingId","type":"uint256"},{"indexed":false,"internalType":"uint256","name":"salePrice","type":"uint256"},{"indexed":true,"internalType":"address","name":"seller","type":"address"},{"indexed":true,"internalType":"address","name":"buyer","type":"address"}],"name":"Bought","type":"event"},{"anonymous":false,"inputs":[{"indexed":true,"internalType":"uint256","name":"listingId","type":"uint256"},{"indexed":false,"internalType":"address","name":"seller","type":"address"},{"indexed":false,"internalType":"address","name":"buyer","type":"address"}],"name":"Closed","type":"event"},{"anonymous":false,"inputs":[{"indexed":true,"internalType":"uint256","name":"listingId","type":"uint256"},{"indexed":true,"internalType":"address","name":"seller","type":"address"}],"name":"Listed","type":"event"},{"anonymous":false,"inputs":[{"indexed":true,"internalType":"uint256","name":"listingId","type":"uint256"},{"indexed":false,"internalType":"address","name":"seller","type":"address"},{"indexed":false,"internalType":"address","name":"buyer","type":"address"}],"name":"WithdrawEscrow","type":"event"},{"anonymous":false,"inputs":[{"indexed":true,"internalType":"uint256","name":"listingId","type":"uint256"},{"indexed":false,"internalType":"address","name":"seller","type":"address"}],"name":"confirmedEscrow","type":"event"},{"inputs":[],"name":"auction_state","outputs":[{"internalType":"enum Marketplace.AUCTION_STATE","name":"","type":"uint8"}],"stateMutability":"view","type":"function"},{"inputs":[{"internalType":"uint256","name":"_listingId","type":"uint256"},{"internalType":"uint256","name":"_bidPrice","type":"uint256"}],"name":"bid","outputs":[],"stateMutability":"nonpayable","type":"function"},{"inputs":[{"internalType":"uint256","name":"_listingId","type":"uint256"}],"name":"confirmEscrow","outputs":[],"stateMutability":"nonpayable","type":"function"},{"inputs":[{"internalType":"uint256","name":"_reservePrice","type":"uint256"},{"internalType":"uint256","name":"_startPrice","type":"uint256"},{"internalType":"uint256","name":"_closingTime","type":"uint256"},{"internalType":"uint256","name":"_tokenId","type":"uint256"},{"internalType":"contract IERC721","name":"_nft","type":"address"},{"internalType":"bool","name":"_escrow","type":"bool"}],"name":"createListing","outputs":[],"stateMutability":"nonpayable","type":"function"},{"inputs":[{"internalType":"uint256","name":"_listingId","type":"uint256"}],"name":"endAuction","outputs":[],"stateMutability":"nonpayable","type":"function"},{"inputs":[],"name":"feeAccount","outputs":[{"internalType":"address payable","name":"","type":"address"}],"stateMutability":"view","type":"function"},{"inputs":[],"name":"feePercent","outputs":[{"internalType":"uint256","name":"","type":"uint256"}],"stateMutability":"view","type":"function"},{"inputs":[],"name":"listingCount","outputs":[{"internalType":"uint256","name":"","type":"uint256"}],"stateMutability":"view","type":"function"},{"inputs":[{"internalType":"uint256","name":"","type":"uint256"}],"name":"listings","outputs":[{"internalType":"uint256","name":"listingId","type":"uint256"},{"internalType":"uint256","name":"tokenId","type":"uint256"},{"internalType":"uint256","name":"reservePrice","type":"uint256"},{"internalType":"uint256","name":"currentPrice","type":"uint256"},{"internalType":"address payable","name":"seller","type":"address"},{"internalType":"contract IERC721","name":"nft","type":"address"},{"internalType":"enum Marketplace.AUCTION_STATE","name":"auctionState","type":"uint8"},{"internalType":"uint256","name":"closingTime","type":"uint256"},{"internalType":"bool","name":"escrow","type":"bool"},{"internalType":"address payable","name":"buyer","type":"address"},{"internalType":"uint256","name":"escrowClosingTime","type":"uint256"},{"internalType":"uint256","name":"bidCounter","type":"uint256"}],"stateMutability":"view","type":"function"},{"inputs":[],"name":"weth","outputs":[{"internalType":"contract IERC20","name":"","type":"address"}],"stateMutability":"view","type":"function"},{"inputs":[{"internalType":"uint256","name":"_listingId","type":"uint256"}],"name":"withdrawEscrow","outputs":[],"stateMutability":"nonpayable","type":"function"}],"bytecode":"60c060405234801561001057600080fd5b5060405161192238038061192283398101604081905261002f9161005b565b600080546001600160a01b0319166001600160a01b03929092169190911790553360805260a052610098565b6000806040838503121561006e57600080fd5b825160208401519092506001600160a01b038116811461008d57600080fd5b809150509250929050565b60805160a0516118346100ee6000396000818161013201528181610435015281816104e101528181610af201528181610f34015261101401526000818161010b015281816104bb0152610fee01526118346000f3fe608060405234801561001057600080fd5b50600436106100a95760003560e01c8063876512d011610071578063876512d014610162578063a9b07c2614610175578063b9a2de3a1461017e578063c153ed0d14610191578063de74e57b146101a4578063f9688bc11461023d57600080fd5b80630b12c37f146100ae5780633fc8cef3146100c3578063598647f8146100f357806365e17c9d146101065780637fd6f15c1461012d575b600080fd5b6100c16100bc366004611583565b610257565b005b6000546100d6906001600160a01b031681565b6040516001600160a01b0390911681526020015b60405180910390f35b6100c161010136600461159c565b610635565b6100d67f000000000000000000000000000000000000000000000000000000000000000081565b6101547f000000000000000000000000000000000000000000000000000000000000000081565b6040519081526020016100ea565b6100c1610170366004611583565b61090d565b61015460015481565b6100c161018c366004611583565b610c4d565b6100c161019f3660046115cf565b611209565b6102256101b2366004611583565b6003602081905260009182526040909120805460018201546002830154938301546004840154600585015460068601546007870154600888015460099098015496989597959694956001600160a01b03948516958486169560ff600160a01b90960486169584169361010090041691908c565b6040516100ea9c9b9a99989796959493929190611671565b60025461024a9060ff1681565b6040516100ea91906116e8565b60008181526003602081815260408084208151610180810183528154815260018201549381019390935260028101549183019190915280830154606083015260048101546001600160a01b039081166080840152600582015490811660a08401529192909160c0840191600160a01b90910460ff16908111156102dc576102dc611639565b60038111156102ed576102ed611639565b815260068201546020820152600782015460ff81161515604083015261010090046001600160a01b0390811660608301526008830154608083015260099092015460a0909101526101208201519192501633146103915760405162461bcd60e51b815260206004820152601e60248201527f4f6e6c792062757965722063616e2066696e616c697a6520657363726f77000060448201526064015b60405180910390fd5b60018160c0015160038111156103a9576103a9611639565b146103b357600080fd5b806101400151421061041d5760405162461bcd60e51b815260206004820152602d60248201527f457363726f772068617320657870697265642c207468652073616c652077696c60448201526c1b081899481c995d995c9cd959609a1b6064820152608401610388565b60808101516001600160a01b03166108fc61045960647f0000000000000000000000000000000000000000000000000000000000000000611712565b610464906064611734565b61046f906001611734565b836060015161047e919061174b565b6040518115909202916000818181858888f193505050501580156104a6573d6000803e3d6000fd5b506000546001600160a01b03166323b872dd307f000000000000000000000000000000000000000000000000000000000000000061050560647f0000000000000000000000000000000000000000000000000000000000000000611712565b8560600151610514919061174b565b6040518463ffffffff1660e01b81526004016105329392919061176a565b6020604051808303816000875af1158015610551573d6000803e3d6000fd5b505050506040513d601f19601f82011682018060405250810190610575919061178e565b5060a08101516101208201516020830151604051632142170760e11b81526001600160a01b03909316926342842e0e926105b392309260040161176a565b600060405180830381600087803b1580156105cd57600080fd5b505af11580156105e1573d6000803e3d6000fd5b5050600260c0840152505060808101516040516001600160a01b03909116815282907f1d897c7b1ac9388c9ebb7c68d390bfbe05afa200dab59ff644936e95ac264682906020015b60405180910390a25050565b600061064882662386f26fc1000061174b565b600084815260036020819052604080832091820154925490516370a0823160e01b815233600482015293945090926001600160a01b03909116906370a0823190602401602060405180830381865afa1580156106a8573d6000803e3d6000fd5b505050506040513d601f19601f820116820180604052508101906106cc91906117b2565b1161072e5760405162461bcd60e51b815260206004820152602c60248201527f596f7520646f6e2774206861766520656e6f7567682045544820746f20636f7660448201526b65722074686973206269642160a01b6064820152608401610388565b806003015482116107975760405162461bcd60e51b815260206004820152602d60248201527f426964206d757374206265206d6f7265207468616e207468652063757272656e60448201526c742070726963652c206475682160981b6064820152608401610388565b60006005820154600160a01b900460ff1660038111156107b9576107b9611639565b146108065760405162461bcd60e51b815260206004820152601f60248201527f54686973206974656d20697320636c6f73656420666f722062696464696e67006044820152606401610388565b600781018054610100600160a81b031916336101000217905560005460405163095ea7b360e01b8152306004820152602481018490526001600160a01b039091169063095ea7b3906044016020604051808303816000875af1158015610870573d6000803e3d6000fd5b505050506040513d601f19601f82011682018060405250810190610894919061178e565b50600381018290556009810180549060006108ae836117cb565b9091555050600781015460048201546040518481526101009092046001600160a01b039081169291169086907f4e5c6b65c5dafd32948148161de854b22fdec6140eb03adda94f0e76dd2104de9060200160405180910390a450505050565b60008181526003602081815260408084208151610180810183528154815260018201549381019390935260028101549183019190915280830154606083015260048101546001600160a01b039081166080840152600582015490811660a08401529192909160c0840191600160a01b90910460ff169081111561099257610992611639565b60038111156109a3576109a3611639565b815260068201546020820152600782015460ff81161515604083015261010090046001600160a01b0390811660608301526008830154608083015260099092015460a090910152610120820151919250163314610a4e5760405162461bcd60e51b815260206004820152602360248201527f4f6e6c792062757965722063616e2077697468647261772066726f6d20657363604482015262726f7760e81b6064820152608401610388565b60018160c001516003811115610a6657610a66611639565b14610a7057600080fd5b8061014001514211610ad05760405162461bcd60e51b815260206004820152602360248201527f54686520657363726f772074696d6520686173206e6f742065787069726564206044820152621e595d60ea1b6064820152608401610388565b6000546101208201516001600160a01b03909116906323b872dd903090610b187f00000000000000000000000000000000000000000000000000000000000000006064611734565b8560600151610b27919061174b565b6040518463ffffffff1660e01b8152600401610b459392919061176a565b6020604051808303816000875af1158015610b64573d6000803e3d6000fd5b505050506040513d601f19601f82011682018060405250810190610b88919061178e565b5060a081015160808201516020830151604051632142170760e11b81526001600160a01b03909316926342842e0e92610bc592309260040161176a565b600060405180830381600087803b158015610bdf57600080fd5b505af1158015610bf3573d6000803e3d6000fd5b5050600260c084015250506080810151610120820151604080516001600160a01b03938416815292909116602083015283917fea783bb65892b54921083cb8e8198f1bc2d372cbeb9d9949d31a945c22148e589101610629565b60008181526003602081815260408084208151610180810183528154815260018201549381019390935260028101549183019190915280830154606083015260048101546001600160a01b039081166080840152600582015490811660a08401529192909160c0840191600160a01b90910460ff1690811115610cd257610cd2611639565b6003811115610ce357610ce3611639565b815260068201546020820152600782015460ff81161515604083015261010090046001600160a01b039081166060830152600883015460808084019190915260099093015460a0909201919091529082015191925016331480610d5c57508061012001516001600160a01b0316336001600160a01b0316145b610da05760405162461bcd60e51b81526020600482015260156024820152741058dd1a5bdb881b9bdd08185d5d1a1bdc9a5e9959605a1b6044820152606401610388565b8060e001514211610df35760405162461bcd60e51b815260206004820152601860248201527f41756374696f6e206973207374696c6c2072756e6e696e6700000000000000006044820152606401610388565b60608101516000546101208301516040516370a0823160e01b81526001600160a01b0391821660048201529116906370a0823190602401602060405180830381865afa158015610e47573d6000803e3d6000fd5b505050506040513d601f19601f82011682018060405250810190610e6b91906117b2565b1015610eea5760405162461bcd60e51b815260206004820152604260248201527f427579657220646f6573206e6f7420774554482062616c616e636520746f206360448201527f6f766572207468652073616c652070726963652c2073616c6520726576657274606482015261195960f21b608482015260a401610388565b8061010001516111695760028160c001516003811115610f0c57610f0c611639565b505060005461012082015160808301516001600160a01b03909216916323b872dd9190610f5a7f00000000000000000000000000000000000000000000000000000000000000006001611734565b8560600151610f69919061174b565b6040518463ffffffff1660e01b8152600401610f879392919061176a565b6020604051808303816000875af1158015610fa6573d6000803e3d6000fd5b505050506040513d601f19601f82011682018060405250810190610fca919061178e565b5060005461012082015160608301516001600160a01b03909216916323b872dd91907f000000000000000000000000000000000000000000000000000000000000000090611039907f00000000000000000000000000000000000000000000000000000000000000009061174b565b6040518463ffffffff1660e01b81526004016110579392919061176a565b6020604051808303816000875af1158015611076573d6000803e3d6000fd5b505050506040513d601f19601f8201168201806040525081019061109a919061178e565b5060a08101516101208201516020830151604051632142170760e11b81526001600160a01b03909316926342842e0e926110d892309260040161176a565b600060405180830381600087803b1580156110f257600080fd5b505af1158015611106573d6000803e3d6000fd5b505050508061012001516001600160a01b031681608001516001600160a01b0316837f4ebd6ef39c1235e69ba7dedf24ad43bdeb57deb289d98473668070d6ca9b685e846060015160405161115d91815260200190565b60405180910390a45050565b60005461012082015160608301516040516323b872dd60e01b81526001600160a01b03909316926323b872dd926111a792909130919060040161176a565b6020604051808303816000875af11580156111c6573d6000803e3d6000fd5b505050506040513d601f19601f820116820180604052508101906111ea919061178e565b5060018160c00151600381111561120357611203611639565b50505050565b8486101561126b5760405162461bcd60e51b815260206004820152602960248201527f53746172742070726963652063616e6e6f7420626520686967686572207468616044820152686e207265736572766560b81b6064820152608401610388565b60018410156112ca5760405162461bcd60e51b815260206004820152602560248201527f41756374696f6e206c656e677468206d757374206265206174206c6561737420604482015264312064617960d81b6064820152608401610388565b600180549060006112da836117cb565b909155505060405163a22cb46560e01b8152306004820152600160248201526001600160a01b0383169063a22cb46590604401600060405180830381600087803b15801561132757600080fd5b505af115801561133b573d6000803e3d6000fd5b50506040516323b872dd60e01b81526001600160a01b03851692506323b872dd915061136f9033903090889060040161176a565b600060405180830381600087803b15801561138957600080fd5b505af115801561139d573d6000803e3d6000fd5b50505050604051806101800160405280600154815260200184815260200187662386f26fc100006113ce919061174b565b81526020016113e487662386f26fc1000061174b565b81523360208201526001600160a01b038416604082015260600160008152602001611412866201518061174b565b61141c90426117e6565b815282151560208201526000604082015260600161143d8662093a806117e6565b815260006020918201819052600180548252600380845260409283902085518155938501519184019190915590830151600283015560608301518282015560808301516004830180546001600160a01b03199081166001600160a01b039384161790915560a085015160058501805492831691909316908117835560c0860151936001600160a81b03199092161790600160a01b9084908111156114e3576114e3611639565b021790555060e08201516006820155610100808301516007830180546101208601516001600160a81b0319909116921515610100600160a81b031916929092176001600160a01b039092169092021790556101408201516008820155610160909101516009909101556001546040513391907ff4e4cd593fa99cef6b200fb8c03ceac5984743e70e112f4a2f035e79af3c0c5990600090a3505050505050565b60006020828403121561159557600080fd5b5035919050565b600080604083850312156115af57600080fd5b50508035926020909101359150565b80151581146115cc57600080fd5b50565b60008060008060008060c087890312156115e857600080fd5b8635955060208701359450604087013593506060870135925060808701356001600160a01b038116811461161b57600080fd5b915060a087013561162b816115be565b809150509295509295509295565b634e487b7160e01b600052602160045260246000fd5b6004811061166d57634e487b7160e01b600052602160045260246000fd5b9052565b8c8152602081018c9052604081018b9052606081018a90526001600160a01b03898116608083015288811660a08301526101808201906116b460c084018a61164f565b60e0830197909752941515610100820152929094166101208301526101408201526101600191909152979650505050505050565b602081016116f6828461164f565b92915050565b634e487b7160e01b600052601160045260246000fd5b60008261172f57634e487b7160e01b600052601260045260246000fd5b500490565b600082821015611746576117466116fc565b500390565b6000816000190483118215151615611765576117656116fc565b500290565b6001600160a01b039384168152919092166020820152604081019190915260600190565b6000602082840312156117a057600080fd5b81516117ab816115be565b9392505050565b6000602082840312156117c457600080fd5b5051919050565b60006000198214156117df576117df6116fc565b5060010190565b600082198211156117f9576117f96116fc565b50019056fea264697066735822122065f45832e5bcbf061ab9b6d84960682e30406e98752c239373b6aafbcc16e8bc64736f6c634300080c0033","bytecodeSha1":"290888bb9599b3719d29f04e84b3f7427bb43039","compiler":{"evm_version":"istanbul","optimizer":{"enabled":true,"runs":200},"version":"0.8.12+commit.f00d7308"},"contractName":"Marketplace","language":"Solidity","natspec":{"kind":"dev","methods":{},"version":1},"opcodes":"PUSH1 0x80 PUSH1 0x40 MSTORE CALLVALUE DUP1 ISZERO PUSH2 0x10 JUMPI PUSH1 0x0 DUP1 REVERT JUMPDEST POP PUSH1 0x4 CALLDATASIZE LT PUSH2 0xA9 JUMPI PUSH1 0x0 CALLDATALOAD PUSH1 0xE0 SHR DUP1 PUSH4 0x876512D0 GT PUSH2 0x71 JUMPI DUP1 PUSH4 0x876512D0 EQ PUSH2 0x162 JUMPI DUP1 PUSH4 0xA9B07C26 EQ PUSH2 0x175 JUMPI DUP1 PUSH4 0xB9A2DE3A EQ PUSH2 0x17E JUMPI DUP1 PUSH4 0xC153ED0D EQ PUSH2 0x191 JUMPI DUP1 PUSH4 0xDE74E57B EQ PUSH2 0x1A4 JUMPI DUP1 PUSH4 0xF9688BC1 EQ PUSH2 0x23D JUMPI PUSH1 0x0 DUP1 REVERT JUMPDEST DUP1 PUSH4 0xB12C37F EQ PUSH2 0xAE JUMPI DUP1 PUSH4 0x3FC8CEF3 EQ PUSH2 0xC3 JUMPI DUP1 PUSH4 0x598647F8 EQ PUSH2 0xF3 JUMPI DUP1 PUSH4 0x65E17C9D EQ PUSH2 0x106 JUMPI DUP1 PUSH4 0x7FD6F15C EQ PUSH2 0x12D JUMPI JUMPDEST PUSH1 0x0 DUP1 REVERT JUMPDEST PUSH2 0xC1 PUSH2 0xBC CALLDATASIZE PUSH1 0x4 PUSH2 0x1583 JUMP JUMPDEST PUSH2 0x257 JUMP JUMPDEST STOP JUMPDEST PUSH1 0x0 SLOAD PUSH2 0xD6 SWAP1 PUSH1 0x1 PUSH1 0x1 PUSH1 0xA0 SHL SUB AND DUP2 JUMP JUMPDEST PUSH1 0x40 MLOAD PUSH1 0x1 PUSH1 0x1 PUSH1 0xA0 SHL SUB SWAP1 SWAP2 AND DUP2 MSTORE PUSH1 0x20 ADD JUMPDEST PUSH1 0x40 MLOAD DUP1 SWAP2 SUB SWAP1 RETURN JUMPDEST PUSH2 0xC1 PUSH2 0x101 CALLDATASIZE PUSH1 0x4 PUSH2 0x159C JUMP JUMPDEST PUSH2 0x635 JUMP JUMPDEST PUSH2 0xD6 PUSH32 0x0 DUP2 JUMP JUMPDEST PUSH2 0x154 PUSH32 0x0 DUP2 JUMP JUMPDEST PUSH1 0x40 MLOAD SWAP1 DUP2 MSTORE PUSH1 0x20 ADD PUSH2 0xEA JUMP JUMPDEST PUSH2 0xC1 PUSH2 0x170 CALLDATASIZE PUSH1 0x4 PUSH2 0x1583 JUMP JUMPDEST PUSH2 0x90D JUMP JUMPDEST PUSH2 0x154 PUSH1 0x1 SLOAD DUP2 JUMP JUMPDEST PUSH2 0xC1 PUSH2 0x18C CALLDATASIZE PUSH1 0x4 PUSH2 0x1583 JUMP JUMPDEST PUSH2 0xC4D JUMP JUMPDEST PUSH2 0xC1 PUSH2 0x19F CALLDATASIZE PUSH1 0x4 PUSH2 0x15CF JUMP JUMPDEST PUSH2 0x1209 JUMP JUMPDEST PUSH2 0x225 PUSH2 0x1B2 CALLDATASIZE PUSH1 0x4 PUSH2 0x1583 JUMP JUMPDEST PUSH1 0x3 PUSH1 0x20 DUP2 SWAP1 MSTORE PUSH1 0x0 SWAP2 DUP3 MSTORE PUSH1 0x40 SWAP1 SWAP2 KECCAK256 DUP1 SLOAD PUSH1 0x1 DUP3 ADD SLOAD PUSH1 0x2 DUP4 ADD SLOAD SWAP4 DUP4 ADD SLOAD PUSH1 0x4 DUP5 ADD SLOAD PUSH1 0x5 DUP6 ADD SLOAD PUSH1 0x6 DUP7 ADD SLOAD PUSH1 0x7 DUP8 ADD SLOAD PUSH1 0x8 DUP9 ADD SLOAD PUSH1 0x9 SWAP1 SWAP9 ADD SLOAD SWAP7 SWAP9 SWAP6 SWAP8 SWAP6 SWAP7 SWAP5 SWAP6 PUSH1 0x1 PUSH1 0x1 PUSH1 0xA0 SHL SUB SWAP5 DUP6 AND SWAP6 DUP5 DUP7 AND SWAP6 PUSH1 0xFF PUSH1 0x1 PUSH1 0xA0 SHL SWAP1 SWAP7 DIV DUP7 AND SWAP6 DUP5 AND SWAP4 PUSH2 0x100 SWAP1 DIV AND SWAP2 SWAP1 DUP13 JUMP JUMPDEST PUSH1 0x40 MLOAD PUSH2 0xEA SWAP13 SWAP12 SWAP11 SWAP10 SWAP9 SWAP8 SWAP7 SWAP6 SWAP5 SWAP4 SWAP3 SWAP2 SWAP1 PUSH2 0x1671 JUMP JUMPDEST PUSH1 0x2 SLOAD PUSH2 0x24A SWAP1 PUSH1 0xFF AND DUP2 JUMP JUMPDEST PUSH1 0x40 MLOAD PUSH2 0xEA SWAP2 SWAP1 PUSH2 0x16E8 JUMP JUMPDEST PUSH1 0x0 DUP2 DUP2 MSTORE PUSH1 0x3 PUSH1 0x20 DUP2 DUP2 MSTORE PUSH1 0x40 DUP1 DUP5 KECCAK256 DUP2 MLOAD PUSH2 0x180 DUP2 ADD DUP4 MSTORE DUP2 SLOAD DUP2 MSTORE PUSH1 0x1 DUP3 ADD SLOAD SWAP4 DUP2 ADD SWAP4 SWAP1 SWAP4 MSTORE PUSH1 0x2 DUP2 ADD SLOAD SWAP2 DUP4 ADD SWAP2 SWAP1 SWAP2 MSTORE DUP1 DUP4 ADD SLOAD PUSH1 0x60 DUP4 ADD MSTORE PUSH1 0x4 DUP2 ADD SLOAD PUSH1 0x1 PUSH1 0x1 PUSH1 0xA0 SHL SUB SWAP1 DUP2 AND PUSH1 0x80 DUP5 ADD MSTORE PUSH1 0x5 DUP3 ADD SLOAD SWAP1 DUP2 AND PUSH1 0xA0 DUP5 ADD MSTORE SWAP2 SWAP3 SWAP1 SWAP2 PUSH1 0xC0 DUP5 ADD SWAP2 PUSH1 0x1 PUSH1 0xA0 SHL SWAP1 SWAP2 DIV PUSH1 0xFF AND SWAP1 DUP2 GT ISZERO PUSH2 0x2DC JUMPI PUSH2 0x2DC PUSH2 0x1639 JUMP JUMPDEST PUSH1 0x3 DUP2 GT ISZERO PUSH2 0x2ED JUMPI PUSH2 0x2ED PUSH2 0x1639 JUMP JUMPDEST DUP2 MSTORE PUSH1 0x6 DUP3 ADD SLOAD PUSH1 0x20 DUP3 ADD MSTORE PUSH1 0x7 DUP3 ADD SLOAD PUSH1 0xFF DUP2 AND ISZERO ISZERO PUSH1 0x40 DUP4 ADD MSTORE PUSH2 0x100 SWAP1 DIV PUSH1 0x1 PUSH1 0x1 PUSH1 0xA0 SHL SUB SWAP1 DUP2 AND PUSH1 0x60 DUP4 ADD MSTORE PUSH1 0x8 DUP4 ADD SLOAD PUSH1 0x80 DUP4 ADD MSTORE PUSH1 0x9 SWAP1 SWAP3 ADD SLOAD PUSH1 0xA0 SWAP1 SWAP2 ADD MSTORE PUSH2 0x120 DUP3 ADD MLOAD SWAP2 SWAP3 POP AND CALLER EQ PUSH2 0x391 JUMPI PUSH1 0x40 MLOAD PUSH3 0x461BCD PUSH1 0xE5 SHL DUP2 MSTORE PUSH1 0x20 PUSH1 0x4 DUP3 ADD MSTORE PUSH1 0x1E PUSH1 0x24 DUP3 ADD MSTORE PUSH32 0x4F6E6C792062757965722063616E2066696E616C697A6520657363726F770000 PUSH1 0x44 DUP3 ADD MSTORE PUSH1 0x64 ADD JUMPDEST PUSH1 0x40 MLOAD DUP1 SWAP2 SUB SWAP1 REVERT JUMPDEST PUSH1 0x1 DUP2 PUSH1 0xC0 ADD MLOAD PUSH1 0x3 DUP2 GT ISZERO PUSH2 0x3A9 JUMPI PUSH2 0x3A9 PUSH2 0x1639 JUMP JUMPDEST EQ PUSH2 0x3B3 JUMPI PUSH1 0x0 DUP1 REVERT JUMPDEST DUP1 PUSH2 0x140 ADD MLOAD TIMESTAMP LT PUSH2 0x41D JUMPI PUSH1 0x40 MLOAD PUSH3 0x461BCD PUSH1 0xE5 SHL DUP2 MSTORE PUSH1 0x20 PUSH1 0x4 DUP3 ADD MSTORE PUSH1 0x2D PUSH1 0x24 DUP3 ADD MSTORE PUSH32 0x457363726F772068617320657870697265642C207468652073616C652077696C PUSH1 0x44 DUP3 ADD MSTORE PUSH13 0x1B081899481C995D995C9CD959 PUSH1 0x9A SHL PUSH1 0x64 DUP3 ADD MSTORE PUSH1 0x84 ADD PUSH2 0x388 JUMP JUMPDEST PUSH1 0x80 DUP2 ADD MLOAD PUSH1 0x1 PUSH1 0x1 PUSH1 0xA0 SHL SUB AND PUSH2 0x8FC PUSH2 0x459 PUSH1 0x64 PUSH32 0x0 PUSH2 0x1712 JUMP JUMPDEST PUSH2 0x464 SWAP1 PUSH1 0x64 PUSH2 0x1734 JUMP JUMPDEST PUSH2 0x46F SWAP1 PUSH1 0x1 PUSH2 0x1734 JUMP JUMPDEST DUP4 PUSH1 0x60 ADD MLOAD PUSH2 0x47E SWAP2 SWAP1 PUSH2 0x174B JUMP JUMPDEST PUSH1 0x40 MLOAD DUP2 ISZERO SWAP1 SWAP3 MUL SWAP2 PUSH1 0x0 DUP2 DUP2 DUP2 DUP6 DUP9 DUP9 CALL SWAP4 POP POP POP POP ISZERO DUP1 ISZERO PUSH2 0x4A6 JUMPI RETURNDATASIZE PUSH1 0x0 DUP1 RETURNDATACOPY RETURNDATASIZE PUSH1 0x0 REVERT JUMPDEST POP PUSH1 0x0 SLOAD PUSH1 0x1 PUSH1 0x1 PUSH1 0xA0 SHL SUB AND PUSH4 0x23B872DD ADDRESS PUSH32 0x0 PUSH2 0x505 PUSH1 0x64 PUSH32 0x0 PUSH2 0x1712 JUMP JUMPDEST DUP6 PUSH1 0x60 ADD MLOAD PUSH2 0x514 SWAP2 SWAP1 PUSH2 0x174B JUMP JUMPDEST PUSH1 0x40 MLOAD DUP5 PUSH4 0xFFFFFFFF AND PUSH1 0xE0 SHL DUP2 MSTORE PUSH1 0x4 ADD PUSH2 0x532 SWAP4 SWAP3 SWAP2 SWAP1 PUSH2 0x176A JUMP JUMPDEST PUSH1 0x20 PUSH1 0x40 MLOAD DUP1 DUP4 SUB DUP2 PUSH1 0x0 DUP8 GAS CALL ISZERO DUP1 ISZERO PUSH2 0x551 JUMPI RETURNDATASIZE PUSH1 0x0 DUP1 RETURNDATACOPY RETURNDATASIZE PUSH1 0x0 REVERT JUMPDEST POP POP POP POP PUSH1 0x40 MLOAD RETURNDATASIZE PUSH1 0x1F NOT PUSH1 0x1F DUP3 ADD AND DUP3 ADD DUP1 PUSH1 0x40 MSTORE POP DUP2 ADD SWAP1 PUSH2 0x575 SWAP2 SWAP1 PUSH2 0x178E JUMP JUMPDEST POP PUSH1 0xA0 DUP2 ADD MLOAD PUSH2 0x120 DUP3 ADD MLOAD PUSH1 0x20 DUP4 ADD MLOAD PUSH1 0x40 MLOAD PUSH4 0x21421707 PUSH1 0xE1 SHL DUP2 MSTORE PUSH1 0x1 PUSH1 0x1 PUSH1 0xA0 SHL SUB SWAP1 SWAP4 AND SWAP3 PUSH4 0x42842E0E SWAP3 PUSH2 0x5B3 SWAP3 ADDRESS SWAP3 PUSH1 0x4 ADD PUSH2 0x176A JUMP JUMPDEST PUSH1 0x0 PUSH1 0x40 MLOAD DUP1 DUP4 SUB DUP2 PUSH1 0x0 DUP8 DUP1 EXTCODESIZE ISZERO DUP1 ISZERO PUSH2 0x5CD JUMPI PUSH1 0x0 DUP1 REVERT JUMPDEST POP GAS CALL ISZERO DUP1 ISZERO PUSH2 0x5E1 JUMPI RETURNDATASIZE PUSH1 0x0 DUP1 RETURNDATACOPY RETURNDATASIZE PUSH1 0x0 REVERT JUMPDEST POP POP PUSH1 0x2 PUSH1 0xC0 DUP5 ADD MSTORE POP POP PUSH1 0x80 DUP2 ADD MLOAD PUSH1 0x40 MLOAD PUSH1 0x1 PUSH1 0x1 PUSH1 0xA0 SHL SUB SWAP1 SWAP2 AND DUP2 MSTORE DUP3 SWAP1 PUSH32 0x1D897C7B1AC9388C9EBB7C68D390BFBE05AFA200DAB59FF644936E95AC264682 SWAP1 PUSH1 0x20 ADD JUMPDEST PUSH1 0x40 MLOAD DUP1 SWAP2 SUB SWAP1 LOG2 POP POP JUMP JUMPDEST PUSH1 0x0 PUSH2 0x648 DUP3 PUSH7 0x2386F26FC10000 PUSH2 0x174B JUMP JUMPDEST PUSH1 0x0 DUP5 DUP2 MSTORE PUSH1 0x3 PUSH1 0x20 DUP2 SWAP1 MSTORE PUSH1 0x40 DUP1 DUP4 KECCAK256 SWAP2 DUP3 ADD SLOAD SWAP3 SLOAD SWAP1 MLOAD PUSH4 0x70A08231 PUSH1 0xE0 SHL DUP2 MSTORE CALLER PUSH1 0x4 DUP3 ADD MSTORE SWAP4 SWAP5 POP SWAP1 SWAP3 PUSH1 0x1 PUSH1 0x1 PUSH1 0xA0 SHL SUB SWAP1 SWAP2 AND SWAP1 PUSH4 0x70A08231 SWAP1 PUSH1 0x24 ADD PUSH1 0x20 PUSH1 0x40 MLOAD DUP1 DUP4 SUB DUP2 DUP7 GAS STATICCALL ISZERO DUP1 ISZERO PUSH2 0x6A8 JUMPI RETURNDATASIZE PUSH1 0x0 DUP1 RETURNDATACOPY RETURNDATASIZE PUSH1 0x0 REVERT JUMPDEST POP POP POP POP PUSH1 0x40 MLOAD RETURNDATASIZE PUSH1 0x1F NOT PUSH1 0x1F DUP3 ADD AND DUP3 ADD DUP1 PUSH1 0x40 MSTORE POP DUP2 ADD SWAP1 PUSH2 0x6CC SWAP2 SWAP1 PUSH2 0x17B2 JUMP JUMPDEST GT PUSH2 0x72E JUMPI PUSH1 0x40 MLOAD PUSH3 0x461BCD PUSH1 0xE5 SHL DUP2 MSTORE PUSH1 0x20 PUSH1 0x4 DUP3 ADD MSTORE PUSH1 0x2C PUSH1 0x24 DUP3 ADD MSTORE PUSH32 0x596F7520646F6E2774206861766520656E6F7567682045544820746F20636F76 PUSH1 0x44 DUP3 ADD MSTORE PUSH12 0x657220746869732062696421 PUSH1 0xA0 SHL PUSH1 0x64 DUP3 ADD MSTORE PUSH1 0x84 ADD PUSH2 0x388 JUMP JUMPDEST DUP1 PUSH1 0x3 ADD SLOAD DUP3 GT PUSH2 0x797 JUMPI PUSH1 0x40 MLOAD PUSH3 0x461BCD PUSH1 0xE5 SHL DUP2 MSTORE PUSH1 0x20 PUSH1 0x4 DUP3 ADD MSTORE PUSH1 0x2D PUSH1 0x24 DUP3 ADD MSTORE PUSH32 0x426964206D757374206265206D6F7265207468616E207468652063757272656E PUSH1 0x44 DUP3 ADD MSTORE PUSH13 0x742070726963652C2064756821 PUSH1 0x98 SHL PUSH1 0x64 DUP3 ADD MSTORE PUSH1 0x84 ADD PUSH2 0x388 JUMP JUMPDEST PUSH1 0x0 PUSH1 0x5 DUP3 ADD SLOAD PUSH1 0x1 PUSH1 0xA0 SHL SWAP1 DIV PUSH1 0xFF AND PUSH1 0x3 DUP2 GT ISZERO PUSH2 0x7B9 JUMPI PUSH2 0x7B9 PUSH2 0x1639 JUMP JUMPDEST EQ PUSH2 0x806 JUMPI PUSH1 0x40 MLOAD PUSH3 0x461BCD PUSH1 0xE5 SHL DUP2 MSTORE PUSH1 0x20 PUSH1 0x4 DUP3 ADD MSTORE PUSH1 0x1F PUSH1 0x24 DUP3 ADD MSTORE PUSH32 0x54686973206974656D20697320636C6F73656420666F722062696464696E6700 PUSH1 0x44 DUP3 ADD MSTORE PUSH1 0x64 ADD PUSH2 0x388 JUMP JUMPDEST PUSH1 0x7 DUP2 ADD DUP1 SLOAD PUSH2 0x100 PUSH1 0x1 PUSH1 0xA8 SHL SUB NOT AND CALLER PUSH2 0x100 MUL OR SWAP1 SSTORE PUSH1 0x0 SLOAD PUSH1 0x40 MLOAD PUSH4 0x95EA7B3 PUSH1 0xE0 SHL DUP2 MSTORE ADDRESS PUSH1 0x4 DUP3 ADD MSTORE PUSH1 0x24 DUP2 ADD DUP5 SWAP1 MSTORE PUSH1 0x1 PUSH1 0x1 PUSH1 0xA0 SHL SUB SWAP1 SWAP2 AND SWAP1 PUSH4 0x95EA7B3 SWAP1 PUSH1 0x44 ADD PUSH1 0x20 PUSH1 0x40 MLOAD DUP1 DUP4 SUB DUP2 PUSH1 0x0 DUP8 GAS CALL ISZERO DUP1 ISZERO PUSH2 0x870 JUMPI RETURNDATASIZE PUSH1 0x0 DUP1 RETURNDATACOPY RETURNDATASIZE PUSH1 0x0 REVERT JUMPDEST POP POP POP POP PUSH1 0x40 MLOAD RETURNDATASIZE PUSH1 0x1F NOT PUSH1 0x1F DUP3 ADD AND DUP3 ADD DUP1 PUSH1 0x40 MSTORE POP DUP2 ADD SWAP1 PUSH2 0x894 SWAP2 SWAP1 PUSH2 0x178E JUMP JUMPDEST POP PUSH1 0x3 DUP2 ADD DUP3 SWAP1 SSTORE PUSH1 0x9 DUP2 ADD DUP1 SLOAD SWAP1 PUSH1 0x0 PUSH2 0x8AE DUP4 PUSH2 0x17CB JUMP JUMPDEST SWAP1 SWAP2 SSTORE POP POP PUSH1 0x7 DUP2 ADD SLOAD PUSH1 0x4 DUP3 ADD SLOAD PUSH1 0x40 MLOAD DUP5 DUP2 MSTORE PUSH2 0x100 SWAP1 SWAP3 DIV PUSH1 0x1 PUSH1 0x1 PUSH1 0xA0 SHL SUB SWAP1 DUP2 AND SWAP3 SWAP2 AND SWAP1 DUP7 SWAP1 PUSH32 0x4E5C6B65C5DAFD32948148161DE854B22FDEC6140EB03ADDA94F0E76DD2104DE SWAP1 PUSH1 0x20 ADD PUSH1 0x40 MLOAD DUP1 SWAP2 SUB SWAP1 LOG4 POP POP POP POP JUMP JUMPDEST PUSH1 0x0 DUP2 DUP2 MSTORE PUSH1 0x3 PUSH1 0x20 DUP2 DUP2 MSTORE PUSH1 0x40 DUP1 DUP5 KECCAK256 DUP2 MLOAD PUSH2 0x180 DUP2 ADD DUP4 MSTORE DUP2 SLOAD DUP2 MSTORE PUSH1 0x1 DUP3 ADD SLOAD SWAP4 DUP2 ADD SWAP4 SWAP1 SWAP4 MSTORE PUSH1 0x2 DUP2 ADD SLOAD SWAP2 DUP4 ADD SWAP2 SWAP1 SWAP2 MSTORE DUP1 DUP4 ADD SLOAD PUSH1 0x60 DUP4 ADD MSTORE PUSH1 0x4 DUP2 ADD SLOAD PUSH1 0x1 PUSH1 0x1 PUSH1 0xA0 SHL SUB SWAP1 DUP2 AND PUSH1 0x80 DUP5 ADD MSTORE PUSH1 0x5 DUP3 ADD SLOAD SWAP1 DUP2 AND PUSH1 0xA0 DUP5 ADD MSTORE SWAP2 SWAP3 SWAP1 SWAP2 PUSH1 0xC0 DUP5 ADD SWAP2 PUSH1 0x1 PUSH1 0xA0 SHL SWAP1 SWAP2 DIV PUSH1 0xFF AND SWAP1 DUP2 GT ISZERO PUSH2 0x992 JUMPI PUSH2 0x992 PUSH2 0x1639 JUMP JUMPDEST PUSH1 0x3 DUP2 GT ISZERO PUSH2 0x9A3 JUMPI PUSH2 0x9A3 PUSH2 0x1639 JUMP JUMPDEST DUP2 MSTORE PUSH1 0x6 DUP3 ADD SLOAD PUSH1 0x20 DUP3 ADD MSTORE PUSH1 0x7 DUP3 ADD SLOAD PUSH1 0xFF DUP2 AND ISZERO ISZERO PUSH1 0x40 DUP4 ADD MSTORE PUSH2 0x100 SWAP1 DIV PUSH1 0x1 PUSH1 0x1 PUSH1 0xA0 SHL SUB SWAP1 DUP2 AND PUSH1 0x60 DUP4 ADD MSTORE PUSH1 0x8 DUP4 ADD SLOAD PUSH1 0x80 DUP4 ADD MSTORE PUSH1 0x9 SWAP1 SWAP3 ADD SLOAD PUSH1 0xA0 SWAP1 SWAP2 ADD MSTORE PUSH2 0x120 DUP3 ADD MLOAD SWAP2 SWAP3 POP AND CALLER EQ PUSH2 0xA4E JUMPI PUSH1 0x40 MLOAD PUSH3 0x461BCD PUSH1 0xE5 SHL DUP2 MSTORE PUSH1 0x20 PUSH1 0x4 DUP3 ADD MSTORE PUSH1 0x23 PUSH1 0x24 DUP3 ADD MSTORE PUSH32 0x4F6E6C792062757965722063616E2077697468647261772066726F6D20657363 PUSH1 0x44 DUP3 ADD MSTORE PUSH3 0x726F77 PUSH1 0xE8 SHL PUSH1 0x64 DUP3 ADD MSTORE PUSH1 0x84 ADD PUSH2 0x388 JUMP JUMPDEST PUSH1 0x1 DUP2 PUSH1 0xC0 ADD MLOAD PUSH1 0x3 DUP2 GT ISZERO PUSH2 0xA66 JUMPI PUSH2 0xA66 PUSH2 0x1639 JUMP JUMPDEST EQ PUSH2 0xA70 JUMPI PUSH1 0x0 DUP1 REVERT JUMPDEST DUP1 PUSH2 0x140 ADD MLOAD TIMESTAMP GT PUSH2 0xAD0 JUMPI PUSH1 0x40 MLOAD PUSH3 0x461BCD PUSH1 0xE5 SHL DUP2 MSTORE PUSH1 0x20 PUSH1 0x4 DUP3 ADD MSTORE PUSH1 0x23 PUSH1 0x24 DUP3 ADD MSTORE PUSH32 0x54686520657363726F772074696D6520686173206E6F74206578706972656420 PUSH1 0x44 DUP3 ADD MSTORE PUSH3 0x1E595D PUSH1 0xEA SHL PUSH1 0x64 DUP3 ADD MSTORE PUSH1 0x84 ADD PUSH2 0x388 JUMP JUMPDEST PUSH1 0x0 SLOAD PUSH2 0x120 DUP3 ADD MLOAD PUSH1 0x1 PUSH1 0x1 PUSH1 0xA0 SHL SUB SWAP1 SWAP2 AND SWAP1 PUSH4 0x23B872DD SWAP1 ADDRESS SWAP1 PUSH2 0xB18 PUSH32 0x0 PUSH1 0x64 PUSH2 0x1734 JUMP JUMPDEST DUP6 PUSH1 0x60 ADD MLOAD PUSH2 0xB27 SWAP2 SWAP1 PUSH2 0x174B JUMP JUMPDEST PUSH1 0x40 MLOAD DUP5 PUSH4 0xFFFFFFFF AND PUSH1 0xE0 SHL DUP2 MSTORE PUSH1 0x4 ADD PUSH2 0xB45 SWAP4 SWAP3 SWAP2 SWAP1 PUSH2 0x176A JUMP JUMPDEST PUSH1 0x20 PUSH1 0x40 MLOAD DUP1 DUP4 SUB DUP2 PUSH1 0x0 DUP8 GAS CALL ISZERO DUP1 ISZERO PUSH2 0xB64 JUMPI RETURNDATASIZE PUSH1 0x0 DUP1 RETURNDATACOPY RETURNDATASIZE PUSH1 0x0 REVERT JUMPDEST POP POP POP POP PUSH1 0x40 MLOAD RETURNDATASIZE PUSH1 0x1F NOT PUSH1 0x1F DUP3 ADD AND DUP3 ADD DUP1 PUSH1 0x40 MSTORE POP DUP2 ADD SWAP1 PUSH2 0xB88 SWAP2 SWAP1 PUSH2 0x178E JUMP JUMPDEST POP PUSH1 0xA0 DUP2 ADD MLOAD PUSH1 0x80 DUP3 ADD MLOAD PUSH1 0x20 DUP4 ADD MLOAD PUSH1 0x40 MLOAD PUSH4 0x21421707 PUSH1 0xE1 SHL DUP2 MSTORE PUSH1 0x1 PUSH1 0x1 PUSH1 0xA0 SHL SUB SWAP1 SWAP4 AND SWAP3 PUSH4 0x42842E0E SWAP3 PUSH2 0xBC5 SWAP3 ADDRESS SWAP3 PUSH1 0x4 ADD PUSH2 0x176A JUMP JUMPDEST PUSH1 0x0 PUSH1 0x40 MLOAD DUP1 DUP4 SUB DUP2 PUSH1 0x0 DUP8 DUP1 EXTCODESIZE ISZERO DUP1 ISZERO PUSH2 0xBDF JUMPI PUSH1 0x0 DUP1 REVERT JUMPDEST POP GAS CALL ISZERO DUP1 ISZERO PUSH2 0xBF3 JUMPI RETURNDATASIZE PUSH1 0x0 DUP1 RETURNDATACOPY RETURNDATASIZE PUSH1 0x0 REVERT JUMPDEST POP POP PUSH1 0x2 PUSH1 0xC0 DUP5 ADD MSTORE POP POP PUSH1 0x80 DUP2 ADD MLOAD PUSH2 0x120 DUP3 ADD MLOAD PUSH1 0x40 DUP1 MLOAD PUSH1 0x1 PUSH1 0x1 PUSH1 0xA0 SHL SUB SWAP4 DUP5 AND DUP2 MSTORE SWAP3 SWAP1 SWAP2 AND PUSH1 0x20 DUP4 ADD MSTORE DUP4 SWAP2 PUSH32 0xEA783BB65892B54921083CB8E8198F1BC2D372CBEB9D9949D31A945C22148E58 SWAP2 ADD PUSH2 0x629 JUMP JUMPDEST PUSH1 0x0 DUP2 DUP2 MSTORE PUSH1 0x3 PUSH1 0x20 DUP2 DUP2 MSTORE PUSH1 0x40 DUP1 DUP5 KECCAK256 DUP2 MLOAD PUSH2 0x180 DUP2 ADD DUP4 MSTORE DUP2 SLOAD DUP2 MSTORE PUSH1 0x1 DUP3 ADD SLOAD SWAP4 DUP2 ADD SWAP4 SWAP1 SWAP4 MSTORE PUSH1 0x2 DUP2 ADD SLOAD SWAP2 DUP4 ADD SWAP2 SWAP1 SWAP2 MSTORE DUP1 DUP4 ADD SLOAD PUSH1 0x60 DUP4 ADD MSTORE PUSH1 0x4 DUP2 ADD SLOAD PUSH1 0x1 PUSH1 0x1 PUSH1 0xA0 SHL SUB SWAP1 DUP2 AND PUSH1 0x80 DUP5 ADD MSTORE PUSH1 0x5 DUP3 ADD SLOAD SWAP1 DUP2 AND PUSH1 0xA0 DUP5 ADD MSTORE SWAP2 SWAP3 SWAP1 SWAP2 PUSH1 0xC0 DUP5 ADD SWAP2 PUSH1 0x1 PUSH1 0xA0 SHL SWAP1 SWAP2 DIV PUSH1 0xFF AND SWAP1 DUP2 GT ISZERO PUSH2 0xCD2 JUMPI PUSH2 0xCD2 PUSH2 0x1639 JUMP JUMPDEST PUSH1 0x3 DUP2 GT ISZERO PUSH2 0xCE3 JUMPI PUSH2 0xCE3 PUSH2 0x1639 JUMP JUMPDEST DUP2 MSTORE PUSH1 0x6 DUP3 ADD SLOAD PUSH1 0x20 DUP3 ADD MSTORE PUSH1 0x7 DUP3 ADD SLOAD PUSH1 0xFF DUP2 AND ISZERO ISZERO PUSH1 0x40 DUP4 ADD MSTORE PUSH2 0x100 SWAP1 DIV PUSH1 0x1 PUSH1 0x1 PUSH1 0xA0 SHL SUB SWAP1 DUP2 AND PUSH1 0x60 DUP4 ADD MSTORE PUSH1 0x8 DUP4 ADD SLOAD PUSH1 0x80 DUP1 DUP5 ADD SWAP2 SWAP1 SWAP2 MSTORE PUSH1 0x9 SWAP1 SWAP4 ADD SLOAD PUSH1 0xA0 SWAP1 SWAP3 ADD SWAP2 SWAP1 SWAP2 MSTORE SWAP1 DUP3 ADD MLOAD SWAP2 SWAP3 POP AND CALLER EQ DUP1 PUSH2 0xD5C JUMPI POP DUP1 PUSH2 0x120 ADD MLOAD PUSH1 0x1 PUSH1 0x1 PUSH1 0xA0 SHL SUB AND CALLER PUSH1 0x1 PUSH1 0x1 PUSH1 0xA0 SHL SUB AND EQ JUMPDEST PUSH2 0xDA0 JUMPI PUSH1 0x40 MLOAD PUSH3 0x461BCD PUSH1 0xE5 SHL DUP2 MSTORE PUSH1 0x20 PUSH1 0x4 DUP3 ADD MSTORE PUSH1 0x15 PUSH1 0x24 DUP3 ADD MSTORE PUSH21 0x1058DD1A5BDB881B9BDD08185D5D1A1BDC9A5E9959 PUSH1 0x5A SHL PUSH1 0x44 DUP3 ADD MSTORE PUSH1 0x64 ADD PUSH2 0x388 JUMP JUMPDEST DUP1 PUSH1 0xE0 ADD MLOAD TIMESTAMP GT PUSH2 0xDF3 JUMPI PUSH1 0x40 MLOAD PUSH3 0x461BCD PUSH1 0xE5 SHL DUP2 MSTORE PUSH1 0x20 PUSH1 0x4 DUP3 ADD MSTORE PUSH1 0x18 PUSH1 0x24 DUP3 ADD MSTORE PUSH32 0x41756374696F6E206973207374696C6C2072756E6E696E670000000000000000 PUSH1 0x44 DUP3 ADD MSTORE PUSH1 0x64 ADD PUSH2 0x388 JUMP JUMPDEST PUSH1 0x60 DUP2 ADD MLOAD PUSH1 0x0 SLOAD PUSH2 0x120 DUP4 ADD MLOAD PUSH1 0x40 MLOAD PUSH4 0x70A08231 PUSH1 0xE0 SHL DUP2 MSTORE PUSH1 0x1 PUSH1 0x1 PUSH1 0xA0 SHL SUB SWAP2 DUP3 AND PUSH1 0x4 DUP3 ADD MSTORE SWAP2 AND SWAP1 PUSH4 0x70A08231 SWAP1 PUSH1 0x24 ADD PUSH1 0x20 PUSH1 0x40 MLOAD DUP1 DUP4 SUB DUP2 DUP7 GAS STATICCALL ISZERO DUP1 ISZERO PUSH2 0xE47 JUMPI RETURNDATASIZE PUSH1 0x0 DUP1 RETURNDATACOPY RETURNDATASIZE PUSH1 0x0 REVERT JUMPDEST POP POP POP POP PUSH1 0x40 MLOAD RETURNDATASIZE PUSH1 0x1F NOT PUSH1 0x1F DUP3 ADD AND DUP3 ADD DUP1 PUSH1 0x40 MSTORE POP DUP2 ADD SWAP1 PUSH2 0xE6B SWAP2 SWAP1 PUSH2 0x17B2 JUMP JUMPDEST LT ISZERO PUSH2 0xEEA JUMPI PUSH1 0x40 MLOAD PUSH3 0x461BCD PUSH1 0xE5 SHL DUP2 MSTORE PUSH1 0x20 PUSH1 0x4 DUP3 ADD MSTORE PUSH1 0x42 PUSH1 0x24 DUP3 ADD MSTORE PUSH32 0x427579657220646F6573206E6F7420774554482062616C616E636520746F2063 PUSH1 0x44 DUP3 ADD MSTORE PUSH32 0x6F766572207468652073616C652070726963652C2073616C6520726576657274 PUSH1 0x64 DUP3 ADD MSTORE PUSH2 0x1959 PUSH1 0xF2 SHL PUSH1 0x84 DUP3 ADD MSTORE PUSH1 0xA4 ADD PUSH2 0x388 JUMP JUMPDEST DUP1 PUSH2 0x100 ADD MLOAD PUSH2 0x1169 JUMPI PUSH1 0x2 DUP2 PUSH1 0xC0 ADD MLOAD PUSH1 0x3 DUP2 GT ISZERO PUSH2 0xF0C JUMPI PUSH2 0xF0C PUSH2 0x1639 JUMP JUMPDEST POP POP PUSH1 0x0 SLOAD PUSH2 0x120 DUP3 ADD MLOAD PUSH1 0x80 DUP4 ADD MLOAD PUSH1 0x1 PUSH1 0x1 PUSH1 0xA0 SHL SUB SWAP1 SWAP3 AND SWAP2 PUSH4 0x23B872DD SWAP2 SWAP1 PUSH2 0xF5A PUSH32 0x0 PUSH1 0x1 PUSH2 0x1734 JUMP JUMPDEST DUP6 PUSH1 0x60 ADD MLOAD PUSH2 0xF69 SWAP2 SWAP1 PUSH2 0x174B JUMP JUMPDEST PUSH1 0x40 MLOAD DUP5 PUSH4 0xFFFFFFFF AND PUSH1 0xE0 SHL DUP2 MSTORE PUSH1 0x4 ADD PUSH2 0xF87 SWAP4 SWAP3 SWAP2 SWAP1 PUSH2 0x176A JUMP JUMPDEST PUSH1 0x20 PUSH1 0x40 MLOAD DUP1 DUP4 SUB DUP2 PUSH1 0x0 DUP8 GAS CALL ISZERO DUP1 ISZERO PUSH2 0xFA6 JUMPI RETURNDATASIZE PUSH1 0x0 DUP1 RETURNDATACOPY RETURNDATASIZE PUSH1 0x0 REVERT JUMPDEST POP POP POP POP PUSH1 0x40 MLOAD RETURNDATASIZE PUSH1 0x1F NOT PUSH1 0x1F DUP3 ADD AND DUP3 ADD DUP1 PUSH1 0x40 MSTORE POP DUP2 ADD SWAP1 PUSH2 0xFCA SWAP2 SWAP1 PUSH2 0x178E JUMP JUMPDEST POP PUSH1 0x0 SLOAD PUSH2 0x120 DUP3 ADD MLOAD PUSH1 0x60 DUP4 ADD MLOAD PUSH1 0x1 PUSH1 0x1 PUSH1 0xA0 SHL SUB SWAP1 SWAP3 AND SWAP2 PUSH4 0x23B872DD SWAP2 SWAP1 PUSH32 0x0 SWAP1 PUSH2 0x1039 SWAP1 PUSH32 0x0 SWAP1 PUSH2 0x174B JUMP JUMPDEST PUSH1 0x40 MLOAD DUP5 PUSH4 0xFFFFFFFF AND PUSH1 0xE0 SHL DUP2 MSTORE PUSH1 0x4 ADD PUSH2 0x1057 SWAP4 SWAP3 SWAP2 SWAP1 PUSH2 0x176A JUMP JUMPDEST PUSH1 0x20 PUSH1 0x40 MLOAD DUP1 DUP4 SUB DUP2 PUSH1 0x0 DUP8 GAS CALL ISZERO DUP1 ISZERO PUSH2 0x1076 JUMPI RETURNDATASIZE PUSH1 0x0 DUP1 RETURNDATACOPY RETURNDATASIZE PUSH1 0x0 REVERT JUMPDEST POP POP POP POP PUSH1 0x40 MLOAD RETURNDATASIZE PUSH1 0x1F NOT PUSH1 0x1F DUP3 ADD AND DUP3 ADD DUP1 PUSH1 0x40 MSTORE POP DUP2 ADD SWAP1 PUSH2 0x109A SWAP2 SWAP1 PUSH2 0x178E JUMP JUMPDEST POP PUSH1 0xA0 DUP2 ADD MLOAD PUSH2 0x120 DUP3 ADD MLOAD PUSH1 0x20 DUP4 ADD MLOAD PUSH1 0x40 MLOAD PUSH4 0x21421707 PUSH1 0xE1 SHL DUP2 MSTORE PUSH1 0x1 PUSH1 0x1 PUSH1 0xA0 SHL SUB SWAP1 SWAP4 AND SWAP3 PUSH4 0x42842E0E SWAP3 PUSH2 0x10D8 SWAP3 ADDRESS SWAP3 PUSH1 0x4 ADD PUSH2 0x176A JUMP JUMPDEST PUSH1 0x0 PUSH1 0x40 MLOAD DUP1 DUP4 SUB DUP2 PUSH1 0x0 DUP8 DUP1 EXTCODESIZE ISZERO DUP1 ISZERO PUSH2 0x10F2 JUMPI PUSH1 0x0 DUP1 REVERT JUMPDEST POP GAS CALL ISZERO DUP1 ISZERO PUSH2 0x1106 JUMPI RETURNDATASIZE PUSH1 0x0 DUP1 RETURNDATACOPY RETURNDATASIZE PUSH1 0x0 REVERT JUMPDEST POP POP POP POP DUP1 PUSH2 0x120 ADD MLOAD PUSH1 0x1 PUSH1 0x1 PUSH1 0xA0 SHL SUB AND DUP2 PUSH1 0x80 ADD MLOAD PUSH1 0x1 PUSH1 0x1 PUSH1 0xA0 SHL SUB AND DUP4 PUSH32 0x4EBD6EF39C1235E69BA7DEDF24AD43BDEB57DEB289D98473668070D6CA9B685E DUP5 PUSH1 0x60 ADD MLOAD PUSH1 0x40 MLOAD PUSH2 0x115D SWAP2 DUP2 MSTORE PUSH1 0x20 ADD SWAP1 JUMP JUMPDEST PUSH1 0x40 MLOAD DUP1 SWAP2 SUB SWAP1 LOG4 POP POP JUMP JUMPDEST PUSH1 0x0 SLOAD PUSH2 0x120 DUP3 ADD MLOAD PUSH1 0x60 DUP4 ADD MLOAD PUSH1 0x40 MLOAD PUSH4 0x23B872DD PUSH1 0xE0 SHL DUP2 MSTORE PUSH1 0x1 PUSH1 0x1 PUSH1 0xA0 SHL SUB SWAP1 SWAP4 AND SWAP3 PUSH4 0x23B872DD SWAP3 PUSH2 0x11A7 SWAP3 SWAP1 SWAP2 ADDRESS SWAP2 SWAP1 PUSH1 0x4 ADD PUSH2 0x176A JUMP JUMPDEST PUSH1 0x20 PUSH1 0x40 MLOAD DUP1 DUP4 SUB DUP2 PUSH1 0x0 DUP8 GAS CALL ISZERO DUP1 ISZERO PUSH2 0x11C6 JUMPI RETURNDATASIZE PUSH1 0x0 DUP1 RETURNDATACOPY RETURNDATASIZE PUSH1 0x0 REVERT JUMPDEST POP POP POP POP PUSH1 0x40 MLOAD RETURNDATASIZE PUSH1 0x1F NOT PUSH1 0x1F DUP3 ADD AND DUP3 ADD DUP1 PUSH1 0x40 MSTORE POP DUP2 ADD SWAP1 PUSH2 0x11EA SWAP2 SWAP1 PUSH2 0x178E JUMP JUMPDEST POP PUSH1 0x1 DUP2 PUSH1 0xC0 ADD MLOAD PUSH1 0x3 DUP2 GT ISZERO PUSH2 0x1203 JUMPI PUSH2 0x1203 PUSH2 0x1639 JUMP JUMPDEST POP POP POP POP JUMP JUMPDEST DUP5 DUP7 LT ISZERO PUSH2 0x126B JUMPI PUSH1 0x40 MLOAD PUSH3 0x461BCD PUSH1 0xE5 SHL DUP2 MSTORE PUSH1 0x20 PUSH1 0x4 DUP3 ADD MSTORE PUSH1 0x29 PUSH1 0x24 DUP3 ADD MSTORE PUSH32 0x53746172742070726963652063616E6E6F742062652068696768657220746861 PUSH1 0x44 DUP3 ADD MSTORE PUSH9 0x6E2072657365727665 PUSH1 0xB8 SHL PUSH1 0x64 DUP3 ADD MSTORE PUSH1 0x84 ADD PUSH2 0x388 JUMP JUMPDEST PUSH1 0x1 DUP5 LT ISZERO PUSH2 0x12CA JUMPI PUSH1 0x40 MLOAD PUSH3 0x461BCD PUSH1 0xE5 SHL DUP2 MSTORE PUSH1 0x20 PUSH1 0x4 DUP3 ADD MSTORE PUSH1 0x25 PUSH1 0x24 DUP3 ADD MSTORE PUSH32 0x41756374696F6E206C656E677468206D757374206265206174206C6561737420 PUSH1 0x44 DUP3 ADD MSTORE PUSH5 0x3120646179 PUSH1 0xD8 SHL PUSH1 0x64 DUP3 ADD MSTORE PUSH1 0x84 ADD PUSH2 0x388 JUMP JUMPDEST PUSH1 0x1 DUP1 SLOAD SWAP1 PUSH1 0x0 PUSH2 0x12DA DUP4 PUSH2 0x17CB JUMP JUMPDEST SWAP1 SWAP2 SSTORE POP POP PUSH1 0x40 MLOAD PUSH4 0xA22CB465 PUSH1 0xE0 SHL DUP2 MSTORE ADDRESS PUSH1 0x4 DUP3 ADD MSTORE PUSH1 0x1 PUSH1 0x24 DUP3 ADD MSTORE PUSH1 0x1 PUSH1 0x1 PUSH1 0xA0 SHL SUB DUP4 AND SWAP1 PUSH4 0xA22CB465 SWAP1 PUSH1 0x44 ADD PUSH1 0x0 PUSH1 0x40 MLOAD DUP1 DUP4 SUB DUP2 PUSH1 0x0 DUP8 DUP1 EXTCODESIZE ISZERO DUP1 ISZERO PUSH2 0x1327 JUMPI PUSH1 0x0 DUP1 REVERT JUMPDEST POP GAS CALL ISZERO DUP1 ISZERO PUSH2 0x133B JUMPI RETURNDATASIZE PUSH1 0x0 DUP1 RETURNDATACOPY RETURNDATASIZE PUSH1 0x0 REVERT JUMPDEST POP POP PUSH1 0x40 MLOAD PUSH4 0x23B872DD PUSH1 0xE0 SHL DUP2 MSTORE PUSH1 0x1 PUSH1 0x1 PUSH1 0xA0 SHL SUB DUP6 AND SWAP3 POP PUSH4 0x23B872DD SWAP2 POP PUSH2 0x136F SWAP1 CALLER SWAP1 ADDRESS SWAP1 DUP9 SWAP1 PUSH1 0x4 ADD PUSH2 0x176A JUMP JUMPDEST PUSH1 0x0 PUSH1 0x40 MLOAD DUP1 DUP4 SUB DUP2 PUSH1 0x0 DUP8 DUP1 EXTCODESIZE ISZERO DUP1 ISZERO PUSH2 0x1389 JUMPI PUSH1 0x0 DUP1 REVERT JUMPDEST POP GAS CALL ISZERO DUP1 ISZERO PUSH2 0x139D JUMPI RETURNDATASIZE PUSH1 0x0 DUP1 RETURNDATACOPY RETURNDATASIZE PUSH1 0x0 REVERT JUMPDEST POP POP POP POP PUSH1 0x40 MLOAD DUP1 PUSH2 0x180 ADD PUSH1 0x40 MSTORE DUP1 PUSH1 0x1 SLOAD DUP2 MSTORE PUSH1 0x20 ADD DUP5 DUP2 MSTORE PUSH1 0x20 ADD DUP8 PUSH7 0x2386F26FC10000 PUSH2 0x13CE SWAP2 SWAP1 PUSH2 0x174B JUMP JUMPDEST DUP2 MSTORE PUSH1 0x20 ADD PUSH2 0x13E4 DUP8 PUSH7 0x2386F26FC10000 PUSH2 0x174B JUMP JUMPDEST DUP2 MSTORE CALLER PUSH1 0x20 DUP3 ADD MSTORE PUSH1 0x1 PUSH1 0x1 PUSH1 0xA0 SHL SUB DUP5 AND PUSH1 0x40 DUP3 ADD MSTORE PUSH1 0x60 ADD PUSH1 0x0 DUP2 MSTORE PUSH1 0x20 ADD PUSH2 0x1412 DUP7 PUSH3 0x15180 PUSH2 0x174B JUMP JUMPDEST PUSH2 0x141C SWAP1 TIMESTAMP PUSH2 0x17E6 JUMP JUMPDEST DUP2 MSTORE DUP3 ISZERO ISZERO PUSH1 0x20 DUP3 ADD MSTORE PUSH1 0x0 PUSH1 0x40 DUP3 ADD MSTORE PUSH1 0x60 ADD PUSH2 0x143D DUP7 PUSH3 0x93A80 PUSH2 0x17E6 JUMP JUMPDEST DUP2 MSTORE PUSH1 0x0 PUSH1 0x20 SWAP2 DUP3 ADD DUP2 SWAP1 MSTORE PUSH1 0x1 DUP1 SLOAD DUP3 MSTORE PUSH1 0x3 DUP1 DUP5 MSTORE PUSH1 0x40 SWAP3 DUP4 SWAP1 KECCAK256 DUP6 MLOAD DUP2 SSTORE SWAP4 DUP6 ADD MLOAD SWAP2 DUP5 ADD SWAP2 SWAP1 SWAP2 SSTORE SWAP1 DUP4 ADD MLOAD PUSH1 0x2 DUP4 ADD SSTORE PUSH1 0x60 DUP4 ADD MLOAD DUP3 DUP3 ADD SSTORE PUSH1 0x80 DUP4 ADD MLOAD PUSH1 0x4 DUP4 ADD DUP1 SLOAD PUSH1 0x1 PUSH1 0x1 PUSH1 0xA0 SHL SUB NOT SWAP1 DUP2 AND PUSH1 0x1 PUSH1 0x1 PUSH1 0xA0 SHL SUB SWAP4 DUP5 AND OR SWAP1 SWAP2 SSTORE PUSH1 0xA0 DUP6 ADD MLOAD PUSH1 0x5 DUP6 ADD DUP1 SLOAD SWAP3 DUP4 AND SWAP2 SWAP1 SWAP4 AND SWAP1 DUP2 OR DUP4 SSTORE PUSH1 0xC0 DUP7 ADD MLOAD SWAP4 PUSH1 0x1 PUSH1 0x1 PUSH1 0xA8 SHL SUB NOT SWAP1 SWAP3 AND OR SWAP1 PUSH1 0x1 PUSH1 0xA0 SHL SWAP1 DUP5 SWAP1 DUP2 GT ISZERO PUSH2 0x14E3 JUMPI PUSH2 0x14E3 PUSH2 0x1639 JUMP JUMPDEST MUL OR SWAP1 SSTORE POP PUSH1 0xE0 DUP3 ADD MLOAD PUSH1 0x6 DUP3 ADD SSTORE PUSH2 0x100 DUP1 DUP4 ADD MLOAD PUSH1 0x7 DUP4 ADD DUP1 SLOAD PUSH2 0x120 DUP7 ADD MLOAD PUSH1 0x1 PUSH1 0x1 PUSH1 0xA8 SHL SUB NOT SWAP1 SWAP2 AND SWAP3 ISZERO ISZERO PUSH2 0x100 PUSH1 0x1 PUSH1 0xA8 SHL SUB NOT AND SWAP3 SWAP1 SWAP3 OR PUSH1 0x1 PUSH1 0x1 PUSH1 0xA0 SHL SUB SWAP1 SWAP3 AND SWAP1 SWAP3 MUL OR SWAP1 SSTORE PUSH2 0x140 DUP3 ADD MLOAD PUSH1 0x8 DUP3 ADD SSTORE PUSH2 0x160 SWAP1 SWAP2 ADD MLOAD PUSH1 0x9 SWAP1 SWAP2 ADD SSTORE PUSH1 0x1 SLOAD PUSH1 0x40 MLOAD CALLER SWAP2 SWAP1 PUSH32 0xF4E4CD593FA99CEF6B200FB8C03CEAC5984743E70E112F4A2F035E79AF3C0C59 SWAP1 PUSH1 0x0 SWAP1 LOG3 POP POP POP POP POP POP JUMP JUMPDEST PUSH1 0x0 PUSH1 0x20 DUP3 DUP5 SUB SLT ISZERO PUSH2 0x1595 JUMPI PUSH1 0x0 DUP1 REVERT JUMPDEST POP CALLDATALOAD SWAP2 SWAP1 POP JUMP JUMPDEST PUSH1 0x0 DUP1 PUSH1 0x40 DUP4 DUP6 SUB SLT ISZERO PUSH2 0x15AF JUMPI PUSH1 0x0 DUP1 REVERT JUMPDEST POP POP DUP1 CALLDATALOAD SWAP3 PUSH1 0x20 SWAP1 SWAP2 ADD CALLDATALOAD SWAP2 POP JUMP JUMPDEST DUP1 ISZERO ISZERO DUP2 EQ PUSH2 0x15CC JUMPI PUSH1 0x0 DUP1 REVERT JUMPDEST POP JUMP JUMPDEST PUSH1 0x0 DUP1 PUSH1 0x0 DUP1 PUSH1 0x0 DUP1 PUSH1 0xC0 DUP8 DUP10 SUB SLT ISZERO PUSH2 0x15E8 JUMPI PUSH1 0x0 DUP1 REVERT JUMPDEST DUP7 CALLDATALOAD SWAP6 POP PUSH1 0x20 DUP8 ADD CALLDATALOAD SWAP5 POP PUSH1 0x40 DUP8 ADD CALLDATALOAD SWAP4 POP PUSH1 0x60 DUP8 ADD CALLDATALOAD SWAP3 POP PUSH1 0x80 DUP8 ADD CALLDATALOAD PUSH1 0x1 PUSH1 0x1 PUSH1 0xA0 SHL SUB DUP2 AND DUP2 EQ PUSH2 0x161B JUMPI PUSH1 0x0 DUP1 REVERT JUMPDEST SWAP2 POP PUSH1 0xA0 DUP8 ADD CALLDATALOAD PUSH2 0x162B DUP2 PUSH2 0x15BE JUMP JUMPDEST DUP1 SWAP2 POP POP SWAP3 SWAP6 POP SWAP3 SWAP6 POP SWAP3 SWAP6 JUMP JUMPDEST PUSH4 0x4E487B71 PUSH1 0xE0 SHL PUSH1 0x0 MSTORE PUSH1 0x21 PUSH1 0x4 MSTORE PUSH1 0x24 PUSH1 0x0 REVERT JUMPDEST PUSH1 0x4 DUP2 LT PUSH2 0x166D JUMPI PUSH4 0x4E487B71 PUSH1 0xE0 SHL PUSH1 0x0 MSTORE PUSH1 0x21 PUSH1 0x4 MSTORE PUSH1 0x24 PUSH1 0x0 REVERT JUMPDEST SWAP1 MSTORE JUMP JUMPDEST DUP13 DUP2 MSTORE PUSH1 0x20 DUP2 ADD DUP13 SWAP1 MSTORE PUSH1 0x40 DUP2 ADD DUP12 SWAP1 MSTORE PUSH1 0x60 DUP2 ADD DUP11 SWAP1 MSTORE PUSH1 0x1 PUSH1 0x1 PUSH1 0xA0 SHL SUB DUP10 DUP2 AND PUSH1 0x80 DUP4 ADD MSTORE DUP9 DUP2 AND PUSH1 0xA0 DUP4 ADD MSTORE PUSH2 0x180 DUP3 ADD SWAP1 PUSH2 0x16B4 PUSH1 0xC0 DUP5 ADD DUP11 PUSH2 0x164F JUMP JUMPDEST PUSH1 0xE0 DUP4 ADD SWAP8 SWAP1 SWAP8 MSTORE SWAP5 ISZERO ISZERO PUSH2 0x100 DUP3 ADD MSTORE SWAP3 SWAP1 SWAP5 AND PUSH2 0x120 DUP4 ADD MSTORE PUSH2 0x140 DUP3 ADD MSTORE PUSH2 0x160 ADD SWAP2 SWAP1 SWAP2 MSTORE SWAP8 SWAP7 POP POP POP POP POP POP POP JUMP JUMPDEST PUSH1 0x20 DUP2 ADD PUSH2 0x16F6 DUP3 DUP5 PUSH2 0x164F JUMP JUMPDEST SWAP3 SWAP2 POP POP JUMP JUMPDEST PUSH4 0x4E487B71 PUSH1 0xE0 SHL PUSH1 0x0 MSTORE PUSH1 0x11 PUSH1 0x4 MSTORE PUSH1 0x24 PUSH1 0x0 REVERT JUMPDEST PUSH1 0x0 DUP3 PUSH2 0x172F JUMPI PUSH4 0x4E487B71 PUSH1 0xE0 SHL PUSH1 0x0 MSTORE PUSH1 0x12 PUSH1 0x4 MSTORE PUSH1 0x24 PUSH1 0x0 REVERT JUMPDEST POP DIV SWAP1 JUMP JUMPDEST PUSH1 0x0 DUP3 DUP3 LT ISZERO PUSH2 0x1746 JUMPI PUSH2 0x1746 PUSH2 0x16FC JUMP JUMPDEST POP SUB SWAP1 JUMP JUMPDEST PUSH1 0x0 DUP2 PUSH1 0x0 NOT DIV DUP4 GT DUP3 ISZERO ISZERO AND ISZERO PUSH2 0x1765 JUMPI PUSH2 0x1765 PUSH2 0x16FC JUMP JUMPDEST POP MUL SWAP1 JUMP JUMPDEST PUSH1 0x1 PUSH1 0x1 PUSH1 0xA0 SHL SUB SWAP4 DUP5 AND DUP2 MSTORE SWAP2 SWAP1 SWAP3 AND PUSH1 0x20 DUP3 ADD MSTORE PUSH1 0x40 DUP2 ADD SWAP2 SWAP1 SWAP2 MSTORE PUSH1 0x60 ADD SWAP1 JUMP JUMPDEST PUSH1 0x0 PUSH1 0x20 DUP3 DUP5 SUB SLT ISZERO PUSH2 0x17A0 JUMPI PUSH1 0x0 DUP1 REVERT JUMPDEST DUP2 MLOAD PUSH2 0x17AB DUP2 PUSH2 0x15BE JUMP JUMPDEST SWAP4 SWAP3 POP POP POP JUMP JUMPDEST PUSH1 0x0 PUSH1 0x20 DUP3 DUP5 SUB SLT ISZERO PUSH2 0x17C4 JUMPI PUSH1 0x0 DUP1 REVERT JUMPDEST POP MLOAD SWAP2 SWAP1 POP JUMP JUMPDEST PUSH1 0x0 PUSH1 0x0 NOT DUP3 EQ ISZERO PUSH2 0x17DF JUMPI PUSH2 0x17DF PUSH2 0x16FC JUMP JUMPDEST POP PUSH1 0x1 ADD SWAP1 JUMP JUMPDEST PUSH1 0x0 DUP3 NOT DUP3 GT ISZERO PUSH2 0x17F9 JUMPI PUSH2 0x17F9 PUSH2 0x16FC JUMP JUMPDEST POP ADD SWAP1 JUMP INVALID LOG2 PUSH5 0x6970667358 0x22 SLT KECCAK256 PUSH6 0xF45832E5BCBF MOD BYTE 0xB9 0xB6 0xD8 0x49 PUSH1 0x68 0x2E ADDRESS BLOCKHASH PUSH15 0x98752C239373B6AAFBCC16E8BC6473 PUSH16 0x6C634300080C00330000000000000000 ","sha1":"196b4befdd58b01a173755c14577689da130c05c","source":"// SPDX-License-Identifier: MIT\npragma solidity ^0.8.0;\n\nimport \"@openzeppelin/contracts/security/ReentrancyGuard.sol\";\nimport \"@openzeppelin/contracts/token/ERC721/IERC721.sol\";\nimport \"@openzeppelin/contracts/token/ERC20/IERC20.sol\";\n\ncontract Marketplace {\n    IERC20 public weth;\n    address payable public immutable feeAccount;\n    uint256 public immutable feePercent;\n    uint256 public listingCount;\n\n    enum AUCTION_STATE {\n        OPEN,\n        PENDING,\n        FINALIZED,\n        CLOSED\n    }\n    AUCTION_STATE public auction_state;\n    struct Listing {\n        uint256 listingId;\n        uint256 tokenId;\n        uint256 reservePrice;\n        uint256 currentPrice;\n        address payable seller;\n        IERC721 nft;\n        AUCTION_STATE auctionState;\n        uint256 closingTime;\n        bool escrow;\n        address payable buyer;\n        uint256 escrowClosingTime;\n        uint256 bidCounter;\n    }\n\n    mapping(uint256 => Listing) public listings;\n\n    event Listed(uint256 indexed listingId, address indexed seller);\n\n    event Bid(\n        uint256 indexed listingId,\n        uint256 bidPrice,\n        address indexed seller,\n        address indexed bidder\n    );\n\n    event Bought(\n        uint256 indexed listingId,\n        uint256 salePrice,\n        address indexed seller,\n        address indexed buyer\n    );\n\n    event Closed(uint256 indexed listingId, address seller, address buyer);\n    event confirmedEscrow(uint256 indexed listingId, address seller);\n    event WithdrawEscrow(\n        uint256 indexed listingId,\n        address seller,\n        address buyer\n    );\n\n    constructor(uint256 _feePercent, address _weth) {\n        weth = IERC20(_weth);\n        feeAccount = payable(msg.sender);\n        feePercent = _feePercent;\n    }\n\n    function createListing(\n        uint256 _reservePrice,\n        uint256 _startPrice,\n        uint256 _closingTime,\n        uint256 _tokenId,\n        IERC721 _nft,\n        bool _escrow\n    ) external {\n        require(_reservePrice >= 0, \"Invalid reserve price\");\n        require(\n            _reservePrice >= _startPrice,\n            \"Start price cannot be higher than reserve\"\n        );\n        require(_closingTime >= (1), \"Auction length must be at least 1 day\");\n        listingCount++;\n        _nft.setApprovalForAll(address(this), true);\n        _nft.transferFrom(msg.sender, address(this), _tokenId);\n        listings[listingCount] = Listing(\n            listingCount,\n            _tokenId,\n            (_reservePrice * (10**16)),\n            (_startPrice * (10**16)),\n            payable(msg.sender),\n            _nft,\n            AUCTION_STATE.OPEN,\n            (block.timestamp + (_closingTime * 1 days)),\n            _escrow,\n            payable(address(0)),\n            (_closingTime + (7 days)),\n            0\n        );\n        emit Listed(listingCount, msg.sender);\n    }\n\n    function bid(uint256 _listingId, uint256 _bidPrice) external {\n        uint256 bidPrice = _bidPrice * (10**16);\n        Listing storage listing = listings[_listingId];\n        require(\n            weth.balanceOf(msg.sender) > listing.currentPrice,\n            \"You don't have enough ETH to cover this bid!\"\n        );\n        require(\n            bidPrice > listing.currentPrice,\n            \"Bid must be more than the current price, duh!\"\n        );\n        require(\n            listing.auctionState == AUCTION_STATE.OPEN,\n            \"This item is closed for bidding\"\n        );\n        listing.buyer = payable(msg.sender);\n        weth.approve(address(this), bidPrice);\n        listing.currentPrice = bidPrice;\n        listing.bidCounter++;\n        emit Bid(_listingId, bidPrice, listing.seller, listing.buyer);\n    }\n\n    function endAuction(uint256 _listingId) external {\n        Listing memory listing = listings[_listingId];\n        require(\n            msg.sender == listing.seller || msg.sender == listing.buyer,\n            \"Action not authorized\"\n        );\n        require(\n            block.timestamp > listing.closingTime,\n            \"Auction is still running\"\n        );\n        // Cancels deal if buyer does not have balance to cover sale price\n        if (weth.balanceOf(listing.buyer) < listing.currentPrice) {\n            revert(\n                \"Buyer does not wETH balance to cover the sale price, sale reverted\"\n            );\n            listing.auctionState = AUCTION_STATE.CLOSED;\n            emit Closed(_listingId, listing.seller, listing.buyer);\n        }\n        // Auto-Finalize and transfer if no escrow\n        if (!listing.escrow) {\n            listing.auctionState == AUCTION_STATE.FINALIZED;\n            weth.transferFrom(\n                listing.buyer,\n                listing.seller,\n                listing.currentPrice * (1 - feePercent)\n            );\n            weth.transferFrom(\n                listing.buyer,\n                feeAccount,\n                listing.currentPrice * feePercent\n            );\n            listing.nft.safeTransferFrom(\n                address(this),\n                listing.buyer,\n                listing.tokenId\n            );\n            emit Bought(\n                _listingId,\n                listing.currentPrice,\n                listing.seller,\n                listing.buyer\n            );\n        } else {\n            weth.transferFrom(\n                listing.buyer,\n                address(this),\n                listing.currentPrice\n            );\n            listing.auctionState == AUCTION_STATE.PENDING;\n        }\n    }\n\n    function confirmEscrow(uint256 _listingId) external {\n        Listing memory listing = listings[_listingId];\n        require(msg.sender == listing.buyer, \"Only buyer can finalize escrow\");\n        require(listing.auctionState == AUCTION_STATE.PENDING);\n        require(\n            block.timestamp < listing.escrowClosingTime,\n            \"Escrow has expired, the sale will be reversed\"\n        );\n        listing.seller.transfer(\n            listing.currentPrice * (1 - (100 - feePercent / 100))\n        );\n        weth.transferFrom(\n            address(this),\n            feeAccount,\n            listing.currentPrice * (feePercent / 100)\n        );\n        listing.nft.safeTransferFrom(\n            address(this),\n            listing.buyer,\n            listing.tokenId\n        );\n        listing.auctionState = AUCTION_STATE.FINALIZED;\n        emit confirmedEscrow(_listingId, listing.seller);\n    }\n\n    function withdrawEscrow(uint256 _listingId) external {\n        Listing memory listing = listings[_listingId];\n        require(\n            msg.sender == listing.buyer,\n            \"Only buyer can withdraw from escrow\"\n        );\n        require(listing.auctionState == AUCTION_STATE.PENDING);\n        require(\n            block.timestamp > listing.escrowClosingTime,\n            \"The escrow time has not expired yet\"\n        );\n        weth.transferFrom(\n            address(this),\n            listing.buyer,\n            listing.currentPrice * (100 - feePercent)\n        );\n        listing.nft.safeTransferFrom(\n            address(this),\n            listing.seller,\n            listing.tokenId\n        );\n        listing.auctionState = AUCTION_STATE.FINALIZED;\n        emit WithdrawEscrow(_listingId, listing.seller, listing.buyer);\n    }\n}\n","sourcePath":"contracts/Marketplace.sol","type":"contract","deployment":{"address":"0xcaaF4284aD7B41bEa1306873d8E1806DddeCc518","chainid":"4","blockHeight":10464408}}